{
  "contractName": "PriceAdjust",
  "abi": [
    {
      "anonymous": false,
      "inputs": [
        {
          "indexed": true,
          "internalType": "bytes32",
          "name": "role",
          "type": "bytes32"
        },
        {
          "indexed": true,
          "internalType": "bytes32",
          "name": "previousAdminRole",
          "type": "bytes32"
        },
        {
          "indexed": true,
          "internalType": "bytes32",
          "name": "newAdminRole",
          "type": "bytes32"
        }
      ],
      "name": "RoleAdminChanged",
      "type": "event"
    },
    {
      "anonymous": false,
      "inputs": [
        {
          "indexed": true,
          "internalType": "bytes32",
          "name": "role",
          "type": "bytes32"
        },
        {
          "indexed": true,
          "internalType": "address",
          "name": "account",
          "type": "address"
        },
        {
          "indexed": true,
          "internalType": "address",
          "name": "sender",
          "type": "address"
        }
      ],
      "name": "RoleGranted",
      "type": "event"
    },
    {
      "anonymous": false,
      "inputs": [
        {
          "indexed": true,
          "internalType": "bytes32",
          "name": "role",
          "type": "bytes32"
        },
        {
          "indexed": true,
          "internalType": "address",
          "name": "account",
          "type": "address"
        },
        {
          "indexed": true,
          "internalType": "address",
          "name": "sender",
          "type": "address"
        }
      ],
      "name": "RoleRevoked",
      "type": "event"
    },
    {
      "inputs": [],
      "name": "DEFAULT_ADMIN_ROLE",
      "outputs": [
        {
          "internalType": "bytes32",
          "name": "",
          "type": "bytes32"
        }
      ],
      "stateMutability": "view",
      "type": "function",
      "constant": true
    },
    {
      "inputs": [
        {
          "internalType": "bytes32",
          "name": "role",
          "type": "bytes32"
        }
      ],
      "name": "getRoleAdmin",
      "outputs": [
        {
          "internalType": "bytes32",
          "name": "",
          "type": "bytes32"
        }
      ],
      "stateMutability": "view",
      "type": "function",
      "constant": true
    },
    {
      "inputs": [
        {
          "internalType": "bytes32",
          "name": "role",
          "type": "bytes32"
        },
        {
          "internalType": "uint256",
          "name": "index",
          "type": "uint256"
        }
      ],
      "name": "getRoleMember",
      "outputs": [
        {
          "internalType": "address",
          "name": "",
          "type": "address"
        }
      ],
      "stateMutability": "view",
      "type": "function",
      "constant": true
    },
    {
      "inputs": [
        {
          "internalType": "bytes32",
          "name": "role",
          "type": "bytes32"
        }
      ],
      "name": "getRoleMemberCount",
      "outputs": [
        {
          "internalType": "uint256",
          "name": "",
          "type": "uint256"
        }
      ],
      "stateMutability": "view",
      "type": "function",
      "constant": true
    },
    {
      "inputs": [
        {
          "internalType": "bytes32",
          "name": "role",
          "type": "bytes32"
        },
        {
          "internalType": "address",
          "name": "account",
          "type": "address"
        }
      ],
      "name": "grantRole",
      "outputs": [],
      "stateMutability": "nonpayable",
      "type": "function"
    },
    {
      "inputs": [
        {
          "internalType": "bytes32",
          "name": "role",
          "type": "bytes32"
        },
        {
          "internalType": "address",
          "name": "account",
          "type": "address"
        }
      ],
      "name": "hasRole",
      "outputs": [
        {
          "internalType": "bool",
          "name": "",
          "type": "bool"
        }
      ],
      "stateMutability": "view",
      "type": "function",
      "constant": true
    },
    {
      "inputs": [
        {
          "internalType": "bytes32",
          "name": "role",
          "type": "bytes32"
        },
        {
          "internalType": "address",
          "name": "account",
          "type": "address"
        }
      ],
      "name": "renounceRole",
      "outputs": [],
      "stateMutability": "nonpayable",
      "type": "function"
    },
    {
      "inputs": [
        {
          "internalType": "bytes32",
          "name": "role",
          "type": "bytes32"
        },
        {
          "internalType": "address",
          "name": "account",
          "type": "address"
        }
      ],
      "name": "revokeRole",
      "outputs": [],
      "stateMutability": "nonpayable",
      "type": "function"
    },
    {
      "inputs": [
        {
          "internalType": "contract IPoolCustomer",
          "name": "_pool",
          "type": "address"
        }
      ],
      "name": "initialize",
      "outputs": [],
      "stateMutability": "nonpayable",
      "type": "function"
    },
    {
      "inputs": [],
      "name": "getPool",
      "outputs": [
        {
          "internalType": "address",
          "name": "",
          "type": "address"
        }
      ],
      "stateMutability": "view",
      "type": "function",
      "constant": true
    },
    {
      "inputs": [
        {
          "internalType": "contract IPoolCustomer",
          "name": "poolAddr",
          "type": "address"
        }
      ],
      "name": "setPool",
      "outputs": [],
      "stateMutability": "nonpayable",
      "type": "function"
    },
    {
      "inputs": [
        {
          "internalType": "string",
          "name": "tokenName",
          "type": "string"
        },
        {
          "internalType": "contract ERC20",
          "name": "tokenAddr",
          "type": "address"
        },
        {
          "internalType": "int256",
          "name": "targetPrice",
          "type": "int256"
        },
        {
          "internalType": "uint8",
          "name": "decimals",
          "type": "uint8"
        }
      ],
      "name": "adjust",
      "outputs": [],
      "stateMutability": "nonpayable",
      "type": "function"
    },
    {
      "inputs": [],
      "name": "getBackends",
      "outputs": [
        {
          "internalType": "address[]",
          "name": "",
          "type": "address[]"
        }
      ],
      "stateMutability": "view",
      "type": "function",
      "constant": true
    },
    {
      "inputs": [],
      "name": "getOwner",
      "outputs": [
        {
          "internalType": "address",
          "name": "",
          "type": "address"
        }
      ],
      "stateMutability": "view",
      "type": "function",
      "constant": true
    },
    {
      "inputs": [
        {
          "internalType": "address",
          "name": "backendAddr",
          "type": "address"
        }
      ],
      "name": "grantBackend",
      "outputs": [],
      "stateMutability": "nonpayable",
      "type": "function"
    },
    {
      "inputs": [
        {
          "internalType": "address",
          "name": "backendAddr",
          "type": "address"
        }
      ],
      "name": "revokeBackend",
      "outputs": [],
      "stateMutability": "nonpayable",
      "type": "function"
    }
  ],
  "bytecode": "0x608060405234801561001057600080fd5b50611b93806100206000396000f3fe608060405234801561001057600080fd5b50600436106101005760003560e01c806391d1485411610097578063c4d66de811610066578063c4d66de8146101fa578063ca15c8731461020d578063d547741f14610220578063e1683e2d1461023357610100565b806391d14854146101ac578063a217fddf146101cc578063a98a8558146101d4578063b6ceb984146101e757610100565b80633c7279a0116100d35780633c7279a01461016b5780634437152a1461017e578063893d20e8146101915780639010d07c1461019957610100565b8063026b1d5f14610105578063248a9ca3146101235780632f2ff15d1461014357806336568abe14610158575b600080fd5b61010d610248565b60405161011a91906117da565b60405180910390f35b6101366101313660046115bd565b610257565b60405161011a91906118b5565b6101566101513660046115d5565b61026f565b005b6101566101663660046115d5565b6102c0565b61015661017936600461157e565b610302565b61015661018c36600461157e565b61034c565b61010d610398565b61010d6101a7366004611604565b6103a7565b6101bf6101ba3660046115d5565b6103ce565b60405161011a91906118aa565b6101366103ec565b6101566101e236600461157e565b6103f1565b6101566101f5366004611625565b610438565b61015661020836600461157e565b610f6b565b61013661021b3660046115bd565b611034565b61015661022e3660046115d5565b61104b565b61023b611085565b60405161011a919061185d565b6066546001600160a01b031690565b6000818152603360205260409020600201545b919050565b60008281526033602052604090206002015461028d906101ba6110a8565b6102b25760405162461bcd60e51b81526004016102a990611900565b60405180910390fd5b6102bc82826110ac565b5050565b6102c86110a8565b6001600160a01b0316816001600160a01b0316146102f85760405162461bcd60e51b81526004016102a990611a8f565b6102bc828261111b565b6065546001600160a01b0316331461032c5760405162461bcd60e51b81526004016102a990611a6b565b61034960405161033b906117c2565b60405180910390208261104b565b50565b6065546001600160a01b031633146103765760405162461bcd60e51b81526004016102a990611a6b565b606680546001600160a01b0319166001600160a01b0392909216919091179055565b6065546001600160a01b031690565b60008281526033602052604081206103c5908363ffffffff61118a16565b90505b92915050565b60008281526033602052604081206103c5908363ffffffff61119616565b600081565b6065546001600160a01b0316331461041b5760405162461bcd60e51b81526004016102a990611a6b565b61034960405161042a906117c2565b60405180910390208261026f565b6066546040805163dcdd827760e01b815290516000926001600160a01b03169163dcdd8277916004808301926020929190829003018186803b15801561047d57600080fd5b505afa158015610491573d6000803e3d6000fd5b505050506040513d601f19601f820116820180604052508101906104b591906115a1565b90506000606660009054906101000a90046001600160a01b03166001600160a01b031663b0f479a16040518163ffffffff1660e01b815260040160206040518083038186803b15801561050757600080fd5b505afa15801561051b573d6000803e3d6000fd5b505050506040513d601f19601f8201168201806040525081019061053f91906115a1565b6001600160a01b031663c45a01556040518163ffffffff1660e01b815260040160206040518083038186803b15801561057757600080fd5b505afa15801561058b573d6000803e3d6000fd5b505050506040513d601f19601f820116820180604052508101906105af91906115a1565b6001600160a01b031663e6a4390583876040518363ffffffff1660e01b81526004016105dc9291906117ee565b60206040518083038186803b1580156105f457600080fd5b505afa158015610608573d6000803e3d6000fd5b505050506040513d601f19601f8201168201806040525081019061062c91906115a1565b9050610636611532565b826001600160a01b031663313ce5676040518163ffffffff1660e01b815260040160206040518083038186803b15801561066f57600080fd5b505afa158015610683573d6000803e3d6000fd5b505050506040513d601f19601f820116820180604052508101906106a7919061172d565b60ff16866001600160a01b031663313ce5676040518163ffffffff1660e01b815260040160206040518083038186803b1580156106e357600080fd5b505afa1580156106f7573d6000803e3d6000fd5b505050506040513d601f19601f8201168201806040525081019061071b919061172d565b850160ff161061081e57826001600160a01b031663313ce5676040518163ffffffff1660e01b815260040160206040518083038186803b15801561075e57600080fd5b505afa158015610772573d6000803e3d6000fd5b505050506040513d601f19601f82011682018060405250810190610796919061172d565b866001600160a01b031663313ce5676040518163ffffffff1660e01b815260040160206040518083038186803b1580156107cf57600080fd5b505afa1580156107e3573d6000803e3d6000fd5b505050506040513d601f19601f82011682018060405250810190610807919061172d565b85010360ff16600a0a81526001602082015261091e565b6001816000018181525050856001600160a01b031663313ce5676040518163ffffffff1660e01b815260040160206040518083038186803b15801561086257600080fd5b505afa158015610876573d6000803e3d6000fd5b505050506040513d601f19601f8201168201806040525081019061089a919061172d565b84846001600160a01b031663313ce5676040518163ffffffff1660e01b815260040160206040518083038186803b1580156108d457600080fd5b505afa1580156108e8573d6000803e3d6000fd5b505050506040513d601f19601f8201168201806040525081019061090c919061172d565b030360ff16600a0a8160200181815250505b600080600080856001600160a01b0316630902f1ac6040518163ffffffff1660e01b815260040160606040518083038186803b15801561095d57600080fd5b505afa158015610971573d6000803e3d6000fd5b505050506040513d601f19601f8201168201806040525081019061099591906116c1565b506001600160701b031691506001600160701b03169150866001600160a01b0316866001600160a01b0316630dfe16816040518163ffffffff1660e01b815260040160206040518083038186803b1580156109ef57600080fd5b505afa158015610a03573d6000803e3d6000fd5b505050506040513d601f19601f82011682018060405250810190610a2791906115a1565b6001600160a01b031614610a3b5780610a3d565b815b9350866001600160a01b0316866001600160a01b0316630dfe16816040518163ffffffff1660e01b815260040160206040518083038186803b158015610a8257600080fd5b505afa158015610a96573d6000803e3d6000fd5b505050506040513d601f19601f82011682018060405250810190610aba91906115a1565b6001600160a01b031614610ace5781610ad0565b805b925050506000836020015182028460000151840281610aeb57fe5b05905087811215610b505760408051808201825260048152635553444d60e01b602080830191909152918601526103e560608601526107cd84026080860152845190850151890283028185020384026103e80281610b4557fe5b0560a0850152610bce565b87811315610bc3578a8a8080601f01602080910402602001604051908101604052809392919081815260200183838082843760009201919091525050505060408501526103e560608501526107cd82026080850152602084015184519089029084028184020383026103e80281610b4557fe5b505050505050610f64565b60a08401516060850151608086015191026004029080020360c0850181905260001315610c0d5760405162461bcd60e51b81526004016102a990611986565b8360600151600202610c228560c001516111ab565b85608001516000030181610c3257fe5b058460e00181815250508360600151600202610c518560c001516111ab565b85608001516000030381610c6157fe5b0561010085015260e08401516000908113801590610c855750600085610100015112155b15610cb3578461010001518560e001511315610ca657846101000151610cac565b8460e001515b9050610cfb565b60008560e0015112610cca575060e0840151610cfb565b600085610100015112610ce35750610100840151610cfb565b60405162461bcd60e51b81526004016102a99061194f565b80610d0c5750505050505050610f64565b606660009054906101000a90046001600160a01b03166001600160a01b031663b0f479a16040518163ffffffff1660e01b815260040160206040518083038186803b158015610d5a57600080fd5b505afa158015610d6e573d6000803e3d6000fd5b505050506040513d601f19601f82011682018060405250810190610d9291906115a1565b6001600160a01b031663054d50d482610dd4604051806040016040528060048152602001635553444d60e01b81525089604001516111fc90919063ffffffff16565b610dde5785610de0565b865b60408051808201825260048152635553444d60e01b6020820152908a0151610e0d9163ffffffff6111fc16565b610e175787610e19565b865b6040518463ffffffff1660e01b8152600401610e3793929190611ade565b60206040518083038186803b158015610e4f57600080fd5b505afa158015610e63573d6000803e3d6000fd5b505050506040513d601f19601f82011682018060405250810190610e879190611715565b610e975750505050505050610f64565b606660009054906101000a90046001600160a01b03166001600160a01b03166340632c66308e8e604051806040016040528060048152602001635553444d60e01b815250604051602001610eed93929190611775565b60408051601f19818403018152828252908a01516001600160e01b031960e086901b168352610f2a93928790600090610258420190600401611808565b600060405180830381600087803b158015610f4457600080fd5b505af1158015610f58573d6000803e3d6000fd5b50505050505050505050505b5050505050565b600054610100900460ff1680610f845750610f84611255565b80610f92575060005460ff16155b610fae5760405162461bcd60e51b81526004016102a990611a1d565b600054610100900460ff16158015610fd9576000805460ff1961ff0019909116610100171660011790555b610fe1611266565b610fe9611266565b60658054336001600160a01b03199182168117909255606680549091166001600160a01b03851617905561101f906000906102b2565b80156102bc576000805461ff00191690555050565b60008181526033602052604081206103c8906112e8565b600082815260336020526040902060020154611069906101ba6110a8565b6102f85760405162461bcd60e51b81526004016102a9906119cd565b60606110a3604051611096906117c2565b60405180910390206112f3565b905090565b3390565b60008281526033602052604090206110ca908263ffffffff61139116565b156102bc576110d76110a8565b6001600160a01b0316816001600160a01b0316837f2f8788117e7eff1d82e926ec794901d17c78024a50270940304540a733656f0d60405160405180910390a45050565b6000828152603360205260409020611139908263ffffffff6113a616565b156102bc576111466110a8565b6001600160a01b0316816001600160a01b0316837ff6391f5c32d9c69d2a47ea670b442974b53935d1edc7fd64eb21e047a839171b60405160405180910390a45050565b60006103c583836113bb565b60006103c5836001600160a01b038416611400565b600060038211156111ee575080600160028204015b818110156111e8578091506002818285816111d757fe5b0401816111e057fe5b0490506111c0565b5061026a565b811561026a57506001919050565b60008160405160200161120f91906117a6565b604051602081830303815290604052805190602001208360405160200161123691906117a6565b6040516020818303038152906040528051906020012014905092915050565b600061126030611418565b15905090565b600054610100900460ff168061127f575061127f611255565b8061128d575060005460ff16155b6112a95760405162461bcd60e51b81526004016102a990611a1d565b600054610100900460ff161580156112d4576000805460ff1961ff0019909116610100171660011790555b8015610349576000805461ff001916905550565b60006103c88261141e565b6060600061130083611034565b905060608167ffffffffffffffff8111801561131b57600080fd5b50604051908082528060200260200182016040528015611345578160200160208202803683370190505b50905060005b828110156113895761135d85826103a7565b82828151811061136957fe5b6001600160a01b039092166020928302919091019091015260010161134b565b509392505050565b60006103c5836001600160a01b038416611422565b60006103c5836001600160a01b03841661146c565b815460009082106113de5760405162461bcd60e51b81526004016102a9906118be565b8260000182815481106113ed57fe5b9060005260206000200154905092915050565b60009081526001919091016020526040902054151590565b3b151590565b5490565b600061142e8383611400565b611464575081546001818101845560008481526020808220909301849055845484825282860190935260409020919091556103c8565b5060006103c8565b60008181526001830160205260408120548015611528578354600019808301919081019060009087908390811061149f57fe5b90600052602060002001549050808760000184815481106114bc57fe5b6000918252602080832090910192909255828152600189810190925260409020908401905586548790806114ec57fe5b600190038181906000526020600020016000905590558660010160008781526020019081526020016000206000905560019450505050506103c8565b60009150506103c8565b6040518061012001604052806000815260200160008152602001606081526020016000815260200160008152602001600081526020016000815260200160008152602001600081525090565b60006020828403121561158f578081fd5b813561159a81611b24565b9392505050565b6000602082840312156115b2578081fd5b815161159a81611b24565b6000602082840312156115ce578081fd5b5035919050565b600080604083850312156115e7578081fd5b8235915060208301356115f981611b24565b809150509250929050565b60008060408385031215611616578182fd5b50508035926020909101359150565b60008060008060006080868803121561163c578081fd5b853567ffffffffffffffff80821115611653578283fd5b81880189601f820112611664578384fd5b8035925081831115611674578384fd5b896020848301011115611685578384fd5b602090810197509195505086013561169c81611b24565b92506040860135915060608601356116b381611b4e565b809150509295509295909350565b6000806000606084860312156116d5578283fd5b83516116e081611b39565b60208501519093506116f181611b39565b604085015190925063ffffffff8116811461170a578182fd5b809150509250925092565b600060208284031215611726578081fd5b5051919050565b60006020828403121561173e578081fd5b815161159a81611b4e565b60008151808452611761816020860160208601611af4565b601f01601f19169290920160200192915050565b600083858337602f60f81b8285019081528351611799816001840160208801611af4565b0160010195945050505050565b600082516117b8818460208701611af4565b9190910192915050565b6b4241434b454e445f524f4c4560a01b8152600c0190565b6001600160a01b0391909116815260200190565b6001600160a01b0392831681529116602082015260400190565b6001600160a01b038716815260c06020820181905260009061182c90830188611749565b828103604084015261183e8188611749565b60608401969096525050608081019290925260a0909101529392505050565b6020808252825182820181905260009190848201906040850190845b8181101561189e5783516001600160a01b031683529284019291840191600101611879565b50909695505050505050565b901515815260200190565b90815260200190565b60208082526022908201527f456e756d657261626c655365743a20696e646578206f7574206f6620626f756e604082015261647360f01b606082015260800190565b6020808252602f908201527f416363657373436f6e74726f6c3a2073656e646572206d75737420626520616e60408201526e0818591b5a5b881d1bc819dc985b9d608a1b606082015260800190565b60208082526018908201527f4e6f206e6f6e206e6567617469766520736f6c7574696f6e0000000000000000604082015260600190565b60208082526027908201527f43616e6e6f742066696e64207265616c20726f6f74206f6620616d6f756e74206040820152661d1bc81cd95b1b60ca1b606082015260800190565b60208082526030908201527f416363657373436f6e74726f6c3a2073656e646572206d75737420626520616e60408201526f2061646d696e20746f207265766f6b6560801b606082015260800190565b6020808252602e908201527f496e697469616c697a61626c653a20636f6e747261637420697320616c72656160408201526d191e481a5b9a5d1a585b1a5e995960921b606082015260800190565b6020808252600a90820152694f776e6572206f6e6c7960b01b604082015260600190565b6020808252602f908201527f416363657373436f6e74726f6c3a2063616e206f6e6c792072656e6f756e636560408201526e103937b632b9903337b91039b2b63360891b606082015260800190565b9283526020830191909152604082015260600190565b60005b83811015611b0f578181015183820152602001611af7565b83811115611b1e576000848401525b50505050565b6001600160a01b038116811461034957600080fd5b6001600160701b038116811461034957600080fd5b60ff8116811461034957600080fdfea26469706673582212200e1bff7f3ec4b58b7e7a9df32c8c1004ea09b5cb92d240ed439ee0e45646759564736f6c63430006060033",
  "immutableReferences": {},
  "source": "pragma solidity =0.6.6;\npragma experimental ABIEncoderV2;\n\nimport \"@openzeppelin/contracts/token/ERC20/ERC20.sol\";\nimport \"@openzeppelin/contracts-upgradeable/access/AccessControlUpgradeable.sol\";\nimport \"./interfaces/swap/IUniswapV2Factory.sol\";\nimport \"./interfaces/swap/IUniswapV2Pair.sol\";\nimport \"./interfaces/swap/IUniswapV2Router02.sol\";\nimport \"./interfaces/IPoolCustomer.sol\";\nimport \"./interfaces/IPriceAdjust.sol\";\nimport \"./libraries/Math.sol\";\nimport \"./libraries/String.sol\";\n\ncontract PriceAdjust is AccessControlUpgradeable, IPriceAdjust {\n    using String for string;\n\n    bytes32 private constant BACKEND_ROLE = keccak256(\"BACKEND_ROLE\");\n\n    string private constant REF_TOKEN_NAME = \"USDM\";\n\n    address private owner;\n\n    IPoolCustomer private pool;\n\n    struct Variables {\n        // Struct to avoid stack too deep\n        int256 expN;\n        int256 expD;\n        string tokenNameSell;\n        int256 a;\n        int256 b;\n        int256 c;\n        int256 discriminant;\n        int256 root1;\n        int256 root2;\n    }\n\n    function initialize(IPoolCustomer _pool) public override initializer {\n        __Context_init_unchained();\n        __AccessControl_init_unchained();\n\n        owner = msg.sender;\n        pool = _pool;\n        _setupRole(DEFAULT_ADMIN_ROLE, msg.sender);\n    }\n\n    function getPool() external view override returns (address) {\n        return address(pool);\n    }\n\n    function setPool(IPoolCustomer poolAddr) external override ownerOnly {\n        pool = poolAddr;\n    }\n\n    function adjust(\n        string calldata tokenName,\n        ERC20 tokenAddr,\n        int256 targetPrice,\n        uint8 decimals\n    ) external override {\n        ERC20 refToken = ERC20(pool.getReferenceToken());\n        IUniswapV2Pair pair = IUniswapV2Pair(IUniswapV2Factory(IUniswapV2Router02(pool.getRouter()).factory()).getPair(address(refToken), address(tokenAddr)));\n\n        Variables memory v;\n        if ((decimals + tokenAddr.decimals()) >= refToken.decimals()) {\n            v.expN = int256(10**(uint256(decimals + tokenAddr.decimals() - refToken.decimals())));\n            v.expD = 1;\n        } else {\n            v.expN = 1;\n            v.expD = int256(10**(uint256(refToken.decimals() - decimals - tokenAddr.decimals())));\n        }\n\n        int256 reserveR;\n        int256 reserveT;\n        {\n            // Scope to avoid stack too deep\n            (uint256 r0, uint256 r1, ) = pair.getReserves();\n            reserveR = pair.token0() == address(refToken) ? int256(r0) : int256(r1);\n            reserveT = pair.token0() == address(refToken) ? int256(r1) : int256(r0);\n        }\n\n        int256 currentPrice = (reserveR * v.expN) / (reserveT * v.expD);\n\n        // If current price is lower than target, sell reference token to rise the price\n        // Similarly if current price is higher than target, sell token to drop the price\n        // Amount to sell can be found by solving the quadratic equation\n        // If both a, b, c are multipled by the denominator in c, this can reduce error due to division\n        // However numbers become very big and easy to overflow when calculating discriminant\n        // So sacrifice some accuracy to make calculation succeed in more situations\n        if (currentPrice < targetPrice) {\n            v.tokenNameSell = REF_TOKEN_NAME;\n            v.a = 997;\n            v.b = 1997 * reserveR;\n            v.c = (1000 * reserveR * (v.expN * reserveR - v.expD * targetPrice * reserveT)) / v.expN;\n        } else if (currentPrice > targetPrice) {\n            v.tokenNameSell = tokenName;\n            v.a = 997;\n            v.b = 1997 * reserveT;\n            v.c = (1000 * reserveT * (v.expD * targetPrice * reserveT - v.expN * reserveR)) / (v.expD * targetPrice);\n        } else {\n            // No price change\n            return;\n        }\n\n        v.discriminant = v.b * v.b - 4 * v.a * v.c;\n        require(v.discriminant >= 0, \"Cannot find real root of amount to sell\");\n\n        v.root1 = (-v.b + int256(Math.sqrt(uint256(v.discriminant)))) / (2 * v.a);\n        v.root2 = (-v.b - int256(Math.sqrt(uint256(v.discriminant)))) / (2 * v.a);\n\n        // Only 1 root is suitable to use, it should be the smaller one which >= 0\n        int256 root;\n        if (v.root1 >= 0 && v.root2 >= 0) {\n            root = v.root1 <= v.root2 ? v.root1 : v.root2;\n        } else if (v.root1 >= 0) {\n            root = v.root1;\n        } else if (v.root2 >= 0) {\n            root = v.root2;\n        } else {\n            revert(\"No non negative solution\");\n        }\n\n        if (root == 0) {\n            // Current price may be very close to target so the root is 0, in this case no need to do anything\n            return;\n        }\n\n        if (IUniswapV2Router02(pool.getRouter()).getAmountOut(uint256(root), uint256(v.tokenNameSell.equals(REF_TOKEN_NAME) ? reserveR : reserveT), uint256(v.tokenNameSell.equals(REF_TOKEN_NAME) ? reserveT : reserveR)) == 0) {\n            // Sell amount is so small so that buy amount becomes 0, also just skip this case\n            return;\n        }\n\n        pool.sell(address(this), string(abi.encodePacked(tokenName, \"/\", REF_TOKEN_NAME)), v.tokenNameSell, uint256(root), 0, block.timestamp + 600);\n    }\n\n    function getBackends() external view override returns (address[] memory) {\n        return getMembers(BACKEND_ROLE);\n    }\n\n    function getOwner() external view override returns (address) {\n        return owner;\n    }\n\n    function grantBackend(address backendAddr) external override ownerOnly {\n        grantRole(BACKEND_ROLE, backendAddr);\n    }\n\n    function revokeBackend(address backendAddr) external override ownerOnly {\n        revokeRole(BACKEND_ROLE, backendAddr);\n    }\n\n    function getMembers(bytes32 role) private view returns (address[] memory) {\n        uint256 count = getRoleMemberCount(role);\n        address[] memory members = new address[](count);\n        for (uint256 i = 0; i < count; i++) {\n            members[i] = getRoleMember(role, i);\n        }\n        return members;\n    }\n\n    modifier ownerOnly() {\n        require(msg.sender == owner, \"Owner only\");\n        _;\n    }\n\n    modifier backendOnly() {\n        require(hasRole(BACKEND_ROLE, msg.sender), \"Backend only\");\n        _;\n    }\n}\n",
  "sourcePath": "/Users/louis/go/src/DeCATS-contracts/contracts/PriceAdjust.sol",
  "compiler": {
    "name": "solc",
    "version": "0.6.6+commit.6c089d02.Emscripten.clang"
  },
  "schemaVersion": "3.4.3",
  "updatedAt": "2021-10-08T03:33:48.858Z",
  "networkType": "ethereum",
  "devdoc": {
    "methods": {
      "getRoleAdmin(bytes32)": {
        "details": "Returns the admin role that controls `role`. See {grantRole} and {revokeRole}.     * To change a role's admin, use {_setRoleAdmin}."
      },
      "getRoleMember(bytes32,uint256)": {
        "details": "Returns one of the accounts that have `role`. `index` must be a value between 0 and {getRoleMemberCount}, non-inclusive.     * Role bearers are not sorted in any particular way, and their ordering may change at any point.     * WARNING: When using {getRoleMember} and {getRoleMemberCount}, make sure you perform all queries on the same block. See the following https://forum.openzeppelin.com/t/iterating-over-elements-on-enumerableset-in-openzeppelin-contracts/2296[forum post] for more information."
      },
      "getRoleMemberCount(bytes32)": {
        "details": "Returns the number of accounts that have `role`. Can be used together with {getRoleMember} to enumerate all bearers of a role."
      },
      "grantRole(bytes32,address)": {
        "details": "Grants `role` to `account`.     * If `account` had not been already granted `role`, emits a {RoleGranted} event.     * Requirements:     * - the caller must have ``role``'s admin role."
      },
      "hasRole(bytes32,address)": {
        "details": "Returns `true` if `account` has been granted `role`."
      },
      "renounceRole(bytes32,address)": {
        "details": "Revokes `role` from the calling account.     * Roles are often managed via {grantRole} and {revokeRole}: this function's purpose is to provide a mechanism for accounts to lose their privileges if they are compromised (such as when a trusted device is misplaced).     * If the calling account had been granted `role`, emits a {RoleRevoked} event.     * Requirements:     * - the caller must be `account`."
      },
      "revokeRole(bytes32,address)": {
        "details": "Revokes `role` from `account`.     * If `account` had been granted `role`, emits a {RoleRevoked} event.     * Requirements:     * - the caller must have ``role``'s admin role."
      }
    }
  },
  "userdoc": {
    "methods": {}
  }
}