{
  "contractName": "DAppSample",
  "abi": [
    {
      "anonymous": false,
      "inputs": [
        {
          "indexed": true,
          "internalType": "address",
          "name": "owner",
          "type": "address"
        },
        {
          "indexed": true,
          "internalType": "address",
          "name": "spender",
          "type": "address"
        },
        {
          "indexed": false,
          "internalType": "uint256",
          "name": "value",
          "type": "uint256"
        }
      ],
      "name": "Approval",
      "type": "event"
    },
    {
      "anonymous": false,
      "inputs": [
        {
          "indexed": false,
          "internalType": "string",
          "name": "",
          "type": "string"
        }
      ],
      "name": "Event",
      "type": "event"
    },
    {
      "anonymous": false,
      "inputs": [
        {
          "indexed": true,
          "internalType": "address",
          "name": "owner",
          "type": "address"
        }
      ],
      "name": "OwnerAdded",
      "type": "event"
    },
    {
      "anonymous": false,
      "inputs": [
        {
          "indexed": true,
          "internalType": "address",
          "name": "owner",
          "type": "address"
        }
      ],
      "name": "OwnerRemoved",
      "type": "event"
    },
    {
      "anonymous": false,
      "inputs": [
        {
          "indexed": true,
          "internalType": "address",
          "name": "previousOwner",
          "type": "address"
        },
        {
          "indexed": true,
          "internalType": "address",
          "name": "newOwner",
          "type": "address"
        }
      ],
      "name": "OwnershipTransferred",
      "type": "event"
    },
    {
      "anonymous": false,
      "inputs": [
        {
          "indexed": true,
          "internalType": "address",
          "name": "reader",
          "type": "address"
        }
      ],
      "name": "ReaderAdded",
      "type": "event"
    },
    {
      "anonymous": false,
      "inputs": [
        {
          "indexed": true,
          "internalType": "address",
          "name": "reader",
          "type": "address"
        }
      ],
      "name": "ReaderRemoved",
      "type": "event"
    },
    {
      "anonymous": false,
      "inputs": [
        {
          "indexed": true,
          "internalType": "address",
          "name": "from",
          "type": "address"
        },
        {
          "indexed": true,
          "internalType": "address",
          "name": "to",
          "type": "address"
        },
        {
          "indexed": false,
          "internalType": "uint256",
          "name": "value",
          "type": "uint256"
        }
      ],
      "name": "Transfer",
      "type": "event"
    },
    {
      "anonymous": false,
      "inputs": [
        {
          "indexed": true,
          "internalType": "address",
          "name": "writer",
          "type": "address"
        }
      ],
      "name": "WriterAdded",
      "type": "event"
    },
    {
      "anonymous": false,
      "inputs": [
        {
          "indexed": true,
          "internalType": "address",
          "name": "writer",
          "type": "address"
        }
      ],
      "name": "WriterRemoved",
      "type": "event"
    },
    {
      "anonymous": false,
      "inputs": [
        {
          "indexed": true,
          "internalType": "address",
          "name": "dest",
          "type": "address"
        },
        {
          "indexed": true,
          "internalType": "uint256",
          "name": "srcAmount",
          "type": "uint256"
        },
        {
          "indexed": true,
          "internalType": "uint256",
          "name": "targetAmount",
          "type": "uint256"
        },
        {
          "indexed": false,
          "internalType": "string",
          "name": "srcAssetName",
          "type": "string"
        },
        {
          "indexed": false,
          "internalType": "string",
          "name": "targetAssetName",
          "type": "string"
        },
        {
          "indexed": false,
          "internalType": "bytes32",
          "name": "extraData",
          "type": "bytes32"
        }
      ],
      "name": "refunded",
      "type": "event"
    },
    {
      "inputs": [
        {
          "internalType": "address",
          "name": "newOwner",
          "type": "address"
        }
      ],
      "name": "addOwner",
      "outputs": [],
      "stateMutability": "nonpayable",
      "type": "function"
    },
    {
      "inputs": [
        {
          "internalType": "address",
          "name": "newReader",
          "type": "address"
        }
      ],
      "name": "addReader",
      "outputs": [],
      "stateMutability": "nonpayable",
      "type": "function"
    },
    {
      "inputs": [
        {
          "internalType": "address",
          "name": "newWriter",
          "type": "address"
        }
      ],
      "name": "addWriter",
      "outputs": [],
      "stateMutability": "nonpayable",
      "type": "function"
    },
    {
      "inputs": [
        {
          "internalType": "address",
          "name": "owner",
          "type": "address"
        },
        {
          "internalType": "address",
          "name": "spender",
          "type": "address"
        }
      ],
      "name": "allowance",
      "outputs": [
        {
          "internalType": "uint256",
          "name": "",
          "type": "uint256"
        }
      ],
      "stateMutability": "view",
      "type": "function"
    },
    {
      "inputs": [
        {
          "internalType": "address",
          "name": "spender",
          "type": "address"
        },
        {
          "internalType": "uint256",
          "name": "amount",
          "type": "uint256"
        }
      ],
      "name": "approve",
      "outputs": [
        {
          "internalType": "bool",
          "name": "",
          "type": "bool"
        }
      ],
      "stateMutability": "nonpayable",
      "type": "function"
    },
    {
      "inputs": [
        {
          "internalType": "address",
          "name": "account",
          "type": "address"
        }
      ],
      "name": "balanceOf",
      "outputs": [
        {
          "internalType": "uint256",
          "name": "",
          "type": "uint256"
        }
      ],
      "stateMutability": "view",
      "type": "function"
    },
    {
      "inputs": [],
      "name": "config",
      "outputs": [
        {
          "internalType": "contract ExternalSmartContractConfig",
          "name": "",
          "type": "address"
        }
      ],
      "stateMutability": "view",
      "type": "function"
    },
    {
      "inputs": [],
      "name": "decimals",
      "outputs": [
        {
          "internalType": "uint8",
          "name": "",
          "type": "uint8"
        }
      ],
      "stateMutability": "view",
      "type": "function"
    },
    {
      "inputs": [
        {
          "internalType": "address",
          "name": "spender",
          "type": "address"
        },
        {
          "internalType": "uint256",
          "name": "subtractedValue",
          "type": "uint256"
        }
      ],
      "name": "decreaseAllowance",
      "outputs": [
        {
          "internalType": "bool",
          "name": "",
          "type": "bool"
        }
      ],
      "stateMutability": "nonpayable",
      "type": "function"
    },
    {
      "inputs": [],
      "name": "getOwnerCount",
      "outputs": [
        {
          "internalType": "uint256",
          "name": "",
          "type": "uint256"
        }
      ],
      "stateMutability": "view",
      "type": "function"
    },
    {
      "inputs": [],
      "name": "getOwners",
      "outputs": [
        {
          "internalType": "address[]",
          "name": "",
          "type": "address[]"
        }
      ],
      "stateMutability": "view",
      "type": "function"
    },
    {
      "inputs": [],
      "name": "getReaderList",
      "outputs": [
        {
          "internalType": "address[]",
          "name": "",
          "type": "address[]"
        }
      ],
      "stateMutability": "view",
      "type": "function"
    },
    {
      "inputs": [],
      "name": "getWriterList",
      "outputs": [
        {
          "internalType": "address[]",
          "name": "",
          "type": "address[]"
        }
      ],
      "stateMutability": "view",
      "type": "function"
    },
    {
      "inputs": [
        {
          "internalType": "address",
          "name": "spender",
          "type": "address"
        },
        {
          "internalType": "uint256",
          "name": "addedValue",
          "type": "uint256"
        }
      ],
      "name": "increaseAllowance",
      "outputs": [
        {
          "internalType": "bool",
          "name": "",
          "type": "bool"
        }
      ],
      "stateMutability": "nonpayable",
      "type": "function"
    },
    {
      "inputs": [
        {
          "internalType": "string",
          "name": "name_",
          "type": "string"
        },
        {
          "internalType": "string",
          "name": "symbol_",
          "type": "string"
        },
        {
          "internalType": "uint256",
          "name": "totalSupply_",
          "type": "uint256"
        },
        {
          "internalType": "uint8",
          "name": "decimals_",
          "type": "uint8"
        }
      ],
      "name": "init",
      "outputs": [],
      "stateMutability": "nonpayable",
      "type": "function"
    },
    {
      "inputs": [
        {
          "internalType": "address",
          "name": "addr",
          "type": "address"
        }
      ],
      "name": "isOwner",
      "outputs": [
        {
          "internalType": "bool",
          "name": "",
          "type": "bool"
        }
      ],
      "stateMutability": "view",
      "type": "function"
    },
    {
      "inputs": [
        {
          "internalType": "address",
          "name": "addr",
          "type": "address"
        }
      ],
      "name": "isWriter",
      "outputs": [
        {
          "internalType": "bool",
          "name": "",
          "type": "bool"
        }
      ],
      "stateMutability": "view",
      "type": "function"
    },
    {
      "inputs": [],
      "name": "name",
      "outputs": [
        {
          "internalType": "string",
          "name": "",
          "type": "string"
        }
      ],
      "stateMutability": "view",
      "type": "function"
    },
    {
      "inputs": [
        {
          "internalType": "address",
          "name": "owner",
          "type": "address"
        }
      ],
      "name": "removeOwner",
      "outputs": [],
      "stateMutability": "nonpayable",
      "type": "function"
    },
    {
      "inputs": [
        {
          "internalType": "address",
          "name": "existingReader",
          "type": "address"
        }
      ],
      "name": "removerReader",
      "outputs": [],
      "stateMutability": "nonpayable",
      "type": "function"
    },
    {
      "inputs": [
        {
          "internalType": "address",
          "name": "existingWriter",
          "type": "address"
        }
      ],
      "name": "removerWriter",
      "outputs": [],
      "stateMutability": "nonpayable",
      "type": "function"
    },
    {
      "inputs": [],
      "name": "renounceOwnership",
      "outputs": [],
      "stateMutability": "nonpayable",
      "type": "function"
    },
    {
      "inputs": [
        {
          "internalType": "address",
          "name": "extAddr",
          "type": "address"
        }
      ],
      "name": "setExternalSmartContractConfig",
      "outputs": [],
      "stateMutability": "nonpayable",
      "type": "function"
    },
    {
      "inputs": [],
      "name": "symbol",
      "outputs": [
        {
          "internalType": "string",
          "name": "",
          "type": "string"
        }
      ],
      "stateMutability": "view",
      "type": "function"
    },
    {
      "inputs": [],
      "name": "totalSupply",
      "outputs": [
        {
          "internalType": "uint256",
          "name": "",
          "type": "uint256"
        }
      ],
      "stateMutability": "view",
      "type": "function"
    },
    {
      "inputs": [
        {
          "internalType": "address",
          "name": "recipient",
          "type": "address"
        },
        {
          "internalType": "uint256",
          "name": "amount",
          "type": "uint256"
        }
      ],
      "name": "transfer",
      "outputs": [
        {
          "internalType": "bool",
          "name": "",
          "type": "bool"
        }
      ],
      "stateMutability": "nonpayable",
      "type": "function"
    },
    {
      "inputs": [
        {
          "internalType": "address",
          "name": "sender",
          "type": "address"
        },
        {
          "internalType": "address",
          "name": "recipient",
          "type": "address"
        },
        {
          "internalType": "uint256",
          "name": "amount",
          "type": "uint256"
        }
      ],
      "name": "transferFrom",
      "outputs": [
        {
          "internalType": "bool",
          "name": "",
          "type": "bool"
        }
      ],
      "stateMutability": "nonpayable",
      "type": "function"
    },
    {
      "inputs": [
        {
          "internalType": "string",
          "name": "receivedTokenSymbol",
          "type": "string"
        },
        {
          "internalType": "uint256",
          "name": "amount",
          "type": "uint256"
        },
        {
          "internalType": "address",
          "name": "dest",
          "type": "address"
        },
        {
          "internalType": "bytes32",
          "name": "extraData",
          "type": "bytes32"
        }
      ],
      "name": "mintCustomToken",
      "outputs": [],
      "stateMutability": "nonpayable",
      "type": "function"
    },
    {
      "inputs": [
        {
          "internalType": "string",
          "name": "targetAssetName",
          "type": "string"
        },
        {
          "internalType": "uint256",
          "name": "srcAmount",
          "type": "uint256"
        },
        {
          "internalType": "address",
          "name": "dest",
          "type": "address"
        },
        {
          "internalType": "bytes32",
          "name": "extraData",
          "type": "bytes32"
        }
      ],
      "name": "refund",
      "outputs": [],
      "stateMutability": "nonpayable",
      "type": "function"
    }
  ],
  "bytecode": "0x608060405260006100176001600160e01b036100ab16565b6001600160a01b0381166000818152600160208190526040808320805460ff191683179055825491820183558280527f290decd9548b62a8d60345a988386fc84ba6bc95484008f6362f93160ef3e56390910180546001600160a01b031916841790555192935090917f8be0079c531659141344cd1fd0a4f28419497f9722a3daafe3b4186f6b6457e0908290a3506100af565b3390565b612531806100be6000396000f3fe608060405234801561001057600080fd5b50600436106101cf5760003560e01c8063715018a611610104578063a0e67e2b116100a2578063da2824a811610071578063da2824a8146107f2578063dd62ed3e14610818578063ddc6f5f614610846578063ef18374a1461086c576101cf565b8063a0e67e2b1461076c578063a457c2d714610774578063a9059cbb146107a0578063afd8b1d1146107cc576101cf565b806385aaed4e116100de57806385aaed4e1461067e5780638f64690a1461068657806395d89b411461073e5780639ac886cf14610746576101cf565b8063715018a61461062c57806379502c55146106345780638145d12614610658576101cf565b8063313ce5671161017157806340f950c81161014b57806340f950c8146103f75780634f5b9e85146104af5780637065cb48146105e057806370a0823114610606576101cf565b8063313ce5671461035557806339509351146103735780633a1abfe71461039f576101cf565b806318160ddd116101ad57806318160ddd146102b957806323b872dd146102d35780632b29ba23146103095780632f54bf6e1461032f576101cf565b806306fdde03146101d4578063095ea7b314610251578063173825d914610291575b600080fd5b6101dc610874565b6040805160208082528351818301528351919283929083019185019080838360005b838110156102165781810151838201526020016101fe565b50505050905090810190601f1680156102435780820380516001836020036101000a031916815260200191505b509250505060405180910390f35b61027d6004803603604081101561026757600080fd5b506001600160a01b03813516906020013561090b565b604080519115158252519081900360200190f35b6102b7600480360360208110156102a757600080fd5b50356001600160a01b0316610928565b005b6102c1610af0565b60408051918252519081900360200190f35b61027d600480360360608110156102e957600080fd5b506001600160a01b03813581169160208101359091169060400135610af6565b61027d6004803603602081101561031f57600080fd5b50356001600160a01b0316610b83565b61027d6004803603602081101561034557600080fd5b50356001600160a01b0316610ba1565b61035d610bbf565b6040805160ff9092168252519081900360200190f35b61027d6004803603604081101561038957600080fd5b506001600160a01b038135169060200135610bc8565b6103a7610c1c565b60408051602080825283518183015283519192839290830191858101910280838360005b838110156103e35781810151838201526020016103cb565b505050509050019250505060405180910390f35b6102b76004803603608081101561040d57600080fd5b810190602081018135600160201b81111561042757600080fd5b82018360208201111561043957600080fd5b803590602001918460018302840111600160201b8311171561045a57600080fd5b91908080601f0160208091040260200160405190810160405280939291908181526020018383808284376000920191909152509295505082359350505060208101356001600160a01b03169060400135610c7d565b6102b7600480360360808110156104c557600080fd5b810190602081018135600160201b8111156104df57600080fd5b8201836020820111156104f157600080fd5b803590602001918460018302840111600160201b8311171561051257600080fd5b91908080601f0160208091040260200160405190810160405280939291908181526020018383808284376000920191909152509295949360208101935035915050600160201b81111561056457600080fd5b82018360208201111561057657600080fd5b803590602001918460018302840111600160201b8311171561059757600080fd5b91908080601f016020809104026020016040519081016040528093929190818152602001838380828437600092019190915250929550508235935050506020013560ff16610d07565b6102b7600480360360208110156105f657600080fd5b50356001600160a01b0316610db9565b6102c16004803603602081101561061c57600080fd5b50356001600160a01b0316610f2a565b6102b7610f45565b61063c6110c2565b604080516001600160a01b039092168252519081900360200190f35b6102b76004803603602081101561066e57600080fd5b50356001600160a01b03166110d6565b6103a76112dc565b6102b76004803603608081101561069c57600080fd5b810190602081018135600160201b8111156106b657600080fd5b8201836020820111156106c857600080fd5b803590602001918460018302840111600160201b831117156106e957600080fd5b91908080601f0160208091040260200160405190810160405280939291908181526020018383808284376000920191909152509295505082359350505060208101356001600160a01b0316906040013561133c565b6101dc6113bb565b6102b76004803603602081101561075c57600080fd5b50356001600160a01b031661141c565b6103a76114b1565b61027d6004803603604081101561078a57600080fd5b506001600160a01b038135169060200135611511565b61027d600480360360408110156107b657600080fd5b506001600160a01b03813516906020013561157f565b6102b7600480360360208110156107e257600080fd5b50356001600160a01b0316611593565b6102b76004803603602081101561080857600080fd5b50356001600160a01b03166116f5565b6102c16004803603604081101561082e57600080fd5b506001600160a01b0381358116916020013516611857565b6102b76004803603602081101561085c57600080fd5b50356001600160a01b0316611882565b6102c1611a88565b60098054604080516020601f60026000196101006001881615020190951694909404938401819004810282018101909252828152606093909290918301828280156109005780601f106108d557610100808354040283529160200191610900565b820191906000526020600020905b8154815290600101906020018083116108e357829003601f168201915b505050505090505b90565b600061091f610918611a8e565b8484611a92565b50600192915050565b6000610932611a8e565b6001600160a01b03811660009081526001602081905260409091205491925060ff9091161515146109945760405162461bcd60e51b81526004018080602001828103825260278152602001806123f86027913960400191505060405180910390fd5b6001600160a01b038216600090815260016020526040902054829060ff166109bb57600080fd5b6001600160a01b0383166000908152600160205260408120805460ff191690558054905b81811015610a8857846001600160a01b0316600082815481106109fe57fe5b6000918252602090912001546001600160a01b03161415610a805760006001830381548110610a2957fe5b600091825260208220015481546001600160a01b03909116919083908110610a4d57fe5b9060005260206000200160006101000a8154816001600160a01b0302191690836001600160a01b03160217905550610a88565b6001016109df565b506000805480610a9457fe5b600082815260208120820160001990810180546001600160a01b03191690559091019091556040516001600160a01b038616917f58619076adf5bb0943d100ef88d52d7c3fd691b19d3a9071b555b651fbf418da91a250505050565b60085490565b6000610b03848484611b7e565b610b7984610b0f611a8e565b610b7485604051806060016040528060288152602001612445602891396001600160a01b038a16600090815260076020526040812090610b4d611a8e565b6001600160a01b03168152602081019190915260400160002054919063ffffffff611ce716565b611a92565b5060019392505050565b6001600160a01b031660009081526005602052604090205460ff1690565b6001600160a01b031660009081526001602052604090205460ff1690565b600b5460ff1690565b600061091f610bd5611a8e565b84610b748560076000610be6611a8e565b6001600160a01b03908116825260208083019390935260409182016000908120918c16815292529020549063ffffffff611d7e16565b6060600480548060200260200160405190810160405280929190818152602001828054801561090057602002820191906000526020600020905b81546001600160a01b03168152600190910190602001808311610c56575050505050905090565b6000610c87611a8e565b6001600160a01b03811660009081526001602081905260409091205491925060ff909116151514610ce95760405162461bcd60e51b81526004018080602001828103825260278152602001806123f86027913960400191505060405180910390fd5b610cf38385611ddf565b610d008585868686611ee7565b5050505050565b6000610d11611a8e565b6001600160a01b03811660009081526001602081905260409091205491925060ff909116151514610d735760405162461bcd60e51b81526004018080602001828103825260278152602001806123f86027913960400191505060405180910390fd5b8451610d869060099060208801906122f8565b508351610d9a90600a9060208701906122f8565b5050600891909155600b805460ff191660ff9092169190911790555050565b6000610dc3611a8e565b6001600160a01b03811660009081526001602081905260409091205491925060ff909116151514610e255760405162461bcd60e51b81526004018080602001828103825260278152602001806123f86027913960400191505060405180910390fd5b6001600160a01b038216600090815260016020819052604090912054839160ff90911615151415610e9d576040805162461bcd60e51b815260206004820152601b60248201527f4164647265737320616c726561647920697320616e206f776e65720000000000604482015290519081900360640190fd5b6001600160a01b0383166000818152600160208190526040808320805460ff191683179055825491820183558280527f290decd9548b62a8d60345a988386fc84ba6bc95484008f6362f93160ef3e56390910180546001600160a01b03191684179055517f994a936646fe87ffe4f1e469d3d6aa417d6b855598397f323de5b449f765f0c39190a2505050565b6001600160a01b031660009081526006602052604090205490565b6000610f4f611a8e565b6001600160a01b03811660009081526001602081905260409091205491925060ff909116151514610fb15760405162461bcd60e51b81526004018080602001828103825260278152602001806123f86027913960400191505060405180910390fd5b6000610fbb611a8e565b6001600160a01b0381166000908152600160205260408120805460ff191690559091505b6000546000190181101561109057816001600160a01b03166000828154811061100457fe5b6000918252602090912001546001600160a01b031614156110885760008054600019810190811061103157fe5b600091825260208220015481546001600160a01b0390911691908390811061105557fe5b9060005260206000200160006101000a8154816001600160a01b0302191690836001600160a01b03160217905550611090565b600101610fdf565b50600080548061109c57fe5b600082815260209020810160001990810180546001600160a01b03191690550190555050565b600b5461010090046001600160a01b031681565b60006110e0611a8e565b6001600160a01b03811660009081526001602081905260409091205491925060ff9091161515146111425760405162461bcd60e51b81526004018080602001828103825260278152602001806123f86027913960400191505060405180910390fd5b6001600160a01b038216600090815260056020526040902054829060ff166111a4576040805162461bcd60e51b815260206004820152601060248201526f15dc9a5d195c881b9bdd08195e1a5cdd60821b604482015290519081900360640190fd5b6001600160a01b0383166000908152600560205260408120805460ff19169055600454905b8181101561127457846001600160a01b0316600482815481106111e857fe5b6000918252602090912001546001600160a01b0316141561126c576004600183038154811061121357fe5b600091825260209091200154600480546001600160a01b03909216918390811061123957fe5b9060005260206000200160006101000a8154816001600160a01b0302191690836001600160a01b03160217905550611274565b6001016111c9565b50600480548061128057fe5b600082815260208120820160001990810180546001600160a01b03191690559091019091556040516001600160a01b038616917f86e5bbceda94081c32220d685f37cc4e3ea7bb0be2dfbf0cb703579505a5390e91a250505050565b60606002805480602002602001604051908101604052809291908181526020018280548015610900576020028201919060005260206000209081546001600160a01b03168152600190910190602001808311610c56575050505050905090565b61134533610ba1565b15801561136257503360009081526005602052604090205460ff16155b156113ab576040805162461bcd60e51b81526020600482015260146024820152734f776e6572206f7220777269746572206f6e6c7960601b604482015290519081900360640190fd5b6113b582846121b3565b50505050565b600a8054604080516020601f60026000196101006001881615020190951694909404938401819004810282018101909252828152606093909290918301828280156109005780601f106108d557610100808354040283529160200191610900565b6000611426611a8e565b6001600160a01b03811660009081526001602081905260409091205491925060ff9091161515146114885760405162461bcd60e51b81526004018080602001828103825260278152602001806123f86027913960400191505060405180910390fd5b50600b80546001600160a01b0390921661010002610100600160a81b0319909216919091179055565b60606000805480602002602001604051908101604052809291908181526020018280548015610900576020028201919060005260206000209081546001600160a01b03168152600190910190602001808311610c56575050505050905090565b600061091f61151e611a8e565b84610b74856040518060600160405280602581526020016124d76025913960076000611548611a8e565b6001600160a01b03908116825260208083019390935260409182016000908120918d1681529252902054919063ffffffff611ce716565b600061091f61158c611a8e565b8484611b7e565b600061159d611a8e565b6001600160a01b03811660009081526001602081905260409091205491925060ff9091161515146115ff5760405162461bcd60e51b81526004018080602001828103825260278152602001806123f86027913960400191505060405180910390fd5b6001600160a01b038216600090815260036020526040902054829060ff1615611667576040805162461bcd60e51b815260206004820152601560248201527452656164657220616c72656164792065786973747360581b604482015290519081900360640190fd5b6001600160a01b038316600081815260036020526040808220805460ff1916600190811790915560028054918201815583527f405787fa12a823e0f2b7631cc41b3ba8828b3321ca811111fa75cd3aa3bb5ace0180546001600160a01b03191684179055517fb7724d890d2888af5a3fc456edb667e2c82c4441449ebcac301c618759e4f86d9190a2505050565b60006116ff611a8e565b6001600160a01b03811660009081526001602081905260409091205491925060ff9091161515146117615760405162461bcd60e51b81526004018080602001828103825260278152602001806123f86027913960400191505060405180910390fd5b6001600160a01b038216600090815260056020526040902054829060ff16156117c9576040805162461bcd60e51b815260206004820152601560248201527457726974657220616c72656164792065786973747360581b604482015290519081900360640190fd5b6001600160a01b038316600081815260056020526040808220805460ff1916600190811790915560048054918201815583527f8a35acfbc15ff81a39ae7d344fd709f28e8600b4aa8c65c6b64bfe7fe36bd19b0180546001600160a01b03191684179055517f6ff3aa2ea7b53070f6d9d07a445d338d89e8edef44250ffa8be19f53910d4a2e9190a2505050565b6001600160a01b03918216600090815260076020908152604080832093909416825291909152205490565b600061188c611a8e565b6001600160a01b03811660009081526001602081905260409091205491925060ff9091161515146118ee5760405162461bcd60e51b81526004018080602001828103825260278152602001806123f86027913960400191505060405180910390fd5b6001600160a01b038216600090815260036020526040902054829060ff16611950576040805162461bcd60e51b815260206004820152601060248201526f14995859195c881b9bdd08195e1a5cdd60821b604482015290519081900360640190fd5b6001600160a01b0383166000908152600360205260408120805460ff19169055600254905b81811015611a2057846001600160a01b03166002828154811061199457fe5b6000918252602090912001546001600160a01b03161415611a1857600260018303815481106119bf57fe5b600091825260209091200154600280546001600160a01b0390921691839081106119e557fe5b9060005260206000200160006101000a8154816001600160a01b0302191690836001600160a01b03160217905550611a20565b600101611975565b506002805480611a2c57fe5b600082815260208120820160001990810180546001600160a01b03191690559091019091556040516001600160a01b038616917fe933431644458f1217f9e93d3e000e03c9bbbe55761046d0985c2e4d157bcbaa91a250505050565b60005490565b3390565b6001600160a01b038316611ad75760405162461bcd60e51b81526004018080602001828103825260248152602001806124b36024913960400191505060405180910390fd5b6001600160a01b038216611b1c5760405162461bcd60e51b81526004018080602001828103825260228152602001806123d66022913960400191505060405180910390fd5b6001600160a01b03808416600081815260076020908152604080832094871680845294825291829020859055815185815291517f8c5be1e5ebec7d5bd14f71427d1e84f3dd0314c0f7b2291e5b200ac8c7c3b9259281900390910190a3505050565b6001600160a01b038316611bc35760405162461bcd60e51b815260040180806020018281038252602581526020018061248e6025913960400191505060405180910390fd5b6001600160a01b038216611c085760405162461bcd60e51b81526004018080602001828103825260238152602001806123916023913960400191505060405180910390fd5b611c138383836122b1565b611c568160405180606001604052806026815260200161241f602691396001600160a01b038616600090815260066020526040902054919063ffffffff611ce716565b6001600160a01b038085166000908152600660205260408082209390935590841681522054611c8b908263ffffffff611d7e16565b6001600160a01b0380841660008181526006602090815260409182902094909455805185815290519193928716927fddf252ad1be2c89b69c2b068fc378daa952ba7f163c4a11628f55a4df523b3ef92918290030190a3505050565b60008184841115611d765760405162461bcd60e51b81526004018080602001828103825283818151815260200191508051906020019080838360005b83811015611d3b578181015183820152602001611d23565b50505050905090810190601f168015611d685780820380516001836020036101000a031916815260200191505b509250505060405180910390fd5b505050900390565b600082820183811015611dd8576040805162461bcd60e51b815260206004820152601b60248201527f536166654d6174683a206164646974696f6e206f766572666c6f770000000000604482015290519081900360640190fd5b9392505050565b6001600160a01b038216611e245760405162461bcd60e51b815260040180806020018281038252602181526020018061246d6021913960400191505060405180910390fd5b611e30826000836122b1565b611e73816040518060600160405280602281526020016123b4602291396001600160a01b038516600090815260066020526040902054919063ffffffff611ce716565b6001600160a01b038316600090815260066020526040902055600854611e9f908263ffffffff6122b616565b6008556040805182815290516000916001600160a01b038516917fddf252ad1be2c89b69c2b068fc378daa952ba7f163c4a11628f55a4df523b3ef9181900360200190a35050565b600b546040516303d0a60f60e41b815260206004820181815288516024840152885160009461010090046001600160a01b031693633d0a60f0938b93928392604401918501908083838b5b83811015611f4a578181015183820152602001611f32565b50505050905090810190601f168015611f775780820380516001836020036101000a031916815260200191505b509250505060206040518083038186803b158015611f9457600080fd5b505afa158015611fa8573d6000803e3d6000fd5b505050506040513d6020811015611fbe57600080fd5b505190506001600160a01b03811661200f576040805162461bcd60e51b815260206004820152600f60248201526e105cdcd95d081b9bdd08199bdd5b99608a1b604482015290519081900360640190fd5b6040805163a9059cbb60e01b81526001600160a01b038581166004830152602482018790529151839283169163a9059cbb9160448083019260209291908290030181600087803b15801561206257600080fd5b505af1158015612076573d6000803e3d6000fd5b505050506040513d602081101561208c57600080fd5b50859050866001600160a01b0386167f1cb15b176c7291413c4888d61e9de37b9124b53f7b266b56469fac20424253346120c46113bb565b8b88604051808060200180602001848152602001838103835286818151815260200191508051906020019080838360005b8381101561210d5781810151838201526020016120f5565b50505050905090810190601f16801561213a5780820380516001836020036101000a031916815260200191505b50838103825285518152855160209182019187019080838360005b8381101561216d578181015183820152602001612155565b50505050905090810190601f16801561219a5780820380516001836020036101000a031916815260200191505b509550505050505060405180910390a450505050505050565b6001600160a01b03821661220e576040805162461bcd60e51b815260206004820152601f60248201527f45524332303a206d696e7420746f20746865207a65726f206164647265737300604482015290519081900360640190fd5b61221a600083836122b1565b60085461222d908263ffffffff611d7e16565b6008556001600160a01b038216600090815260066020526040902054612259908263ffffffff611d7e16565b6001600160a01b03831660008181526006602090815260408083209490945583518581529351929391927fddf252ad1be2c89b69c2b068fc378daa952ba7f163c4a11628f55a4df523b3ef9281900390910190a35050565b505050565b6000611dd883836040518060400160405280601e81526020017f536166654d6174683a207375627472616374696f6e206f766572666c6f770000815250611ce7565b828054600181600116156101000203166002900490600052602060002090601f016020900481019282601f1061233957805160ff1916838001178555612366565b82800160010185558215612366579182015b8281111561236657825182559160200191906001019061234b565b50612372929150612376565b5090565b61090891905b80821115612372576000815560010161237c56fe45524332303a207472616e7366657220746f20746865207a65726f206164647265737345524332303a206275726e20616d6f756e7420657863656564732062616c616e636545524332303a20617070726f766520746f20746865207a65726f20616464726573734f776e61626c653a2063616c6c6572206973206e6f74206f6e65206f6620746865206f776e657245524332303a207472616e7366657220616d6f756e7420657863656564732062616c616e636545524332303a207472616e7366657220616d6f756e74206578636565647320616c6c6f77616e636545524332303a206275726e2066726f6d20746865207a65726f206164647265737345524332303a207472616e736665722066726f6d20746865207a65726f206164647265737345524332303a20617070726f76652066726f6d20746865207a65726f206164647265737345524332303a2064656372656173656420616c6c6f77616e63652062656c6f77207a65726fa26469706673582212203363884b35a54f769ed4506eb16116e98d8793ae0e93d64eb10de8b5ba33ad6664736f6c63430006020033",
  "source": "pragma solidity >=0.6.0 <0.8.0;\n\nimport \"./DAppBase.sol\";\n\n\ncontract DAppSample is DAppBase {\n\n   function mintCustomToken(string memory receivedTokenSymbol, uint256 amount, address dest, bytes32 extraData) public override onlyOwnerOrWriter{\n       _mint(dest, amount);\n    }\n\n    function refund(string memory targetAssetName, uint256 srcAmount, address dest, bytes32 extraData) public override onlyOwner{\n        _burn(dest, srcAmount);\n        safeRefund(targetAssetName, srcAmount, srcAmount, dest, extraData);\n\n    }\n\n}\n",
  "sourcePath": "/Users/vince/Documents/GitHub/src/eurus-backend/smartcontract/contracts/dapp/DAppSample.sol",
  "compiler": {
    "name": "solc",
    "version": "0.6.2+commit.bacdbe57.Emscripten.clang"
  },
  "schemaVersion": "3.4.1",
  "updatedAt": "2021-09-07T08:28:03.975Z",
  "devdoc": {
    "methods": {
      "allowance(address,address)": {
        "details": "See {IERC20-allowance}."
      },
      "approve(address,uint256)": {
        "details": "See {IERC20-approve}.     * Requirements:     * - `spender` cannot be the zero address."
      },
      "balanceOf(address)": {
        "details": "See {IERC20-balanceOf}."
      },
      "decimals()": {
        "details": "Returns the number of decimals used to get its user representation. For example, if `decimals` equals `2`, a balance of `505` tokens should be displayed to a user as `5,05` (`505 / 10 ** 2`).     * Tokens usually opt for a value of 18, imitating the relationship between Ether and Wei. This is the value {ERC20} uses, unless {_setupDecimals} is called.     * NOTE: This information is only used for _display_ purposes: it in no way affects any of the arithmetic of the contract, including {IERC20-balanceOf} and {IERC20-transfer}."
      },
      "decreaseAllowance(address,uint256)": {
        "details": "Atomically decreases the allowance granted to `spender` by the caller.     * This is an alternative to {approve} that can be used as a mitigation for problems described in {IERC20-approve}.     * Emits an {Approval} event indicating the updated allowance.     * Requirements:     * - `spender` cannot be the zero address. - `spender` must have allowance for the caller of at least `subtractedValue`."
      },
      "increaseAllowance(address,uint256)": {
        "details": "Atomically increases the allowance granted to `spender` by the caller.     * This is an alternative to {approve} that can be used as a mitigation for problems described in {IERC20-approve}.     * Emits an {Approval} event indicating the updated allowance.     * Requirements:     * - `spender` cannot be the zero address."
      },
      "name()": {
        "details": "Returns the name of the token."
      },
      "renounceOwnership()": {
        "details": "Leaves the contract without owner. It will not be possible to call `onlyOwner` functions anymore. Can only be called by the current owner.     * NOTE: Renouncing ownership will leave the contract without an owner, thereby removing any functionality that is only available to the owner."
      },
      "symbol()": {
        "details": "Returns the symbol of the token, usually a shorter version of the name."
      },
      "totalSupply()": {
        "details": "See {IERC20-totalSupply}."
      },
      "transfer(address,uint256)": {
        "details": "See {IERC20-transfer}.     * Requirements:     * - `recipient` cannot be the zero address. - the caller must have a balance of at least `amount`."
      },
      "transferFrom(address,address,uint256)": {
        "details": "See {IERC20-transferFrom}.     * Emits an {Approval} event indicating the updated allowance. This is not required by the EIP. See the note at the beginning of {ERC20}.     * Requirements:     * - `sender` and `recipient` cannot be the zero address. - `sender` must have a balance of at least `amount`. - the caller must have allowance for ``sender``'s tokens of at least `amount`."
      }
    }
  },
  "userdoc": {
    "methods": {}
  }
}