{
  "contractName": "EurusERC20",
  "abi": [
    {
      "anonymous": false,
      "inputs": [
        {
          "indexed": true,
          "internalType": "address",
          "name": "owner",
          "type": "address"
        },
        {
          "indexed": true,
          "internalType": "address",
          "name": "spender",
          "type": "address"
        },
        {
          "indexed": false,
          "internalType": "uint256",
          "name": "value",
          "type": "uint256"
        }
      ],
      "name": "Approval",
      "type": "event"
    },
    {
      "anonymous": false,
      "inputs": [
        {
          "indexed": true,
          "internalType": "address",
          "name": "buyer",
          "type": "address"
        },
        {
          "indexed": true,
          "internalType": "address",
          "name": "dappAddress",
          "type": "address"
        },
        {
          "indexed": true,
          "internalType": "uint256",
          "name": "amount",
          "type": "uint256"
        },
        {
          "indexed": false,
          "internalType": "string",
          "name": "symbol",
          "type": "string"
        },
        {
          "indexed": false,
          "internalType": "bytes32",
          "name": "extraData",
          "type": "bytes32"
        }
      ],
      "name": "DepositedToDApp",
      "type": "event"
    },
    {
      "anonymous": false,
      "inputs": [
        {
          "indexed": false,
          "internalType": "string",
          "name": "",
          "type": "string"
        }
      ],
      "name": "Event",
      "type": "event"
    },
    {
      "anonymous": false,
      "inputs": [
        {
          "indexed": true,
          "internalType": "address",
          "name": "owner",
          "type": "address"
        }
      ],
      "name": "OwnerAdded",
      "type": "event"
    },
    {
      "anonymous": false,
      "inputs": [
        {
          "indexed": true,
          "internalType": "address",
          "name": "owner",
          "type": "address"
        }
      ],
      "name": "OwnerRemoved",
      "type": "event"
    },
    {
      "anonymous": false,
      "inputs": [
        {
          "indexed": true,
          "internalType": "address",
          "name": "previousOwner",
          "type": "address"
        },
        {
          "indexed": true,
          "internalType": "address",
          "name": "newOwner",
          "type": "address"
        }
      ],
      "name": "OwnershipTransferred",
      "type": "event"
    },
    {
      "anonymous": false,
      "inputs": [
        {
          "indexed": true,
          "internalType": "address",
          "name": "reader",
          "type": "address"
        }
      ],
      "name": "ReaderAdded",
      "type": "event"
    },
    {
      "anonymous": false,
      "inputs": [
        {
          "indexed": true,
          "internalType": "address",
          "name": "reader",
          "type": "address"
        }
      ],
      "name": "ReaderRemoved",
      "type": "event"
    },
    {
      "anonymous": false,
      "inputs": [
        {
          "indexed": true,
          "internalType": "address",
          "name": "from",
          "type": "address"
        },
        {
          "indexed": true,
          "internalType": "address",
          "name": "to",
          "type": "address"
        },
        {
          "indexed": false,
          "internalType": "uint256",
          "name": "value",
          "type": "uint256"
        }
      ],
      "name": "Transfer",
      "type": "event"
    },
    {
      "anonymous": false,
      "inputs": [
        {
          "indexed": true,
          "internalType": "address",
          "name": "writer",
          "type": "address"
        }
      ],
      "name": "WriterAdded",
      "type": "event"
    },
    {
      "anonymous": false,
      "inputs": [
        {
          "indexed": true,
          "internalType": "address",
          "name": "writer",
          "type": "address"
        }
      ],
      "name": "WriterRemoved",
      "type": "event"
    },
    {
      "inputs": [
        {
          "internalType": "address",
          "name": "newOwner",
          "type": "address"
        }
      ],
      "name": "addOwner",
      "outputs": [],
      "stateMutability": "nonpayable",
      "type": "function"
    },
    {
      "inputs": [
        {
          "internalType": "address",
          "name": "newReader",
          "type": "address"
        }
      ],
      "name": "addReader",
      "outputs": [],
      "stateMutability": "nonpayable",
      "type": "function"
    },
    {
      "inputs": [
        {
          "internalType": "address",
          "name": "newWriter",
          "type": "address"
        }
      ],
      "name": "addWriter",
      "outputs": [],
      "stateMutability": "nonpayable",
      "type": "function"
    },
    {
      "inputs": [
        {
          "internalType": "address",
          "name": "owner",
          "type": "address"
        },
        {
          "internalType": "address",
          "name": "spender",
          "type": "address"
        }
      ],
      "name": "allowance",
      "outputs": [
        {
          "internalType": "uint256",
          "name": "",
          "type": "uint256"
        }
      ],
      "stateMutability": "view",
      "type": "function"
    },
    {
      "inputs": [
        {
          "internalType": "address",
          "name": "spender",
          "type": "address"
        },
        {
          "internalType": "uint256",
          "name": "amount",
          "type": "uint256"
        }
      ],
      "name": "approve",
      "outputs": [
        {
          "internalType": "bool",
          "name": "",
          "type": "bool"
        }
      ],
      "stateMutability": "nonpayable",
      "type": "function"
    },
    {
      "inputs": [
        {
          "internalType": "address",
          "name": "account",
          "type": "address"
        }
      ],
      "name": "balanceOf",
      "outputs": [
        {
          "internalType": "uint256",
          "name": "",
          "type": "uint256"
        }
      ],
      "stateMutability": "view",
      "type": "function"
    },
    {
      "inputs": [
        {
          "internalType": "uint256",
          "name": "",
          "type": "uint256"
        }
      ],
      "name": "blackListDestAddress",
      "outputs": [
        {
          "internalType": "address",
          "name": "",
          "type": "address"
        }
      ],
      "stateMutability": "view",
      "type": "function"
    },
    {
      "inputs": [
        {
          "internalType": "address",
          "name": "",
          "type": "address"
        }
      ],
      "name": "blackListDestAddressMap",
      "outputs": [
        {
          "internalType": "bool",
          "name": "",
          "type": "bool"
        }
      ],
      "stateMutability": "view",
      "type": "function"
    },
    {
      "inputs": [
        {
          "internalType": "address",
          "name": "",
          "type": "address"
        }
      ],
      "name": "dailyWithdrewAmount",
      "outputs": [
        {
          "internalType": "uint256",
          "name": "",
          "type": "uint256"
        }
      ],
      "stateMutability": "view",
      "type": "function"
    },
    {
      "inputs": [],
      "name": "decimals",
      "outputs": [
        {
          "internalType": "uint8",
          "name": "",
          "type": "uint8"
        }
      ],
      "stateMutability": "view",
      "type": "function"
    },
    {
      "inputs": [
        {
          "internalType": "address",
          "name": "spender",
          "type": "address"
        },
        {
          "internalType": "uint256",
          "name": "subtractedValue",
          "type": "uint256"
        }
      ],
      "name": "decreaseAllowance",
      "outputs": [
        {
          "internalType": "bool",
          "name": "",
          "type": "bool"
        }
      ],
      "stateMutability": "nonpayable",
      "type": "function"
    },
    {
      "inputs": [],
      "name": "getOwnerCount",
      "outputs": [
        {
          "internalType": "uint256",
          "name": "",
          "type": "uint256"
        }
      ],
      "stateMutability": "view",
      "type": "function"
    },
    {
      "inputs": [],
      "name": "getOwners",
      "outputs": [
        {
          "internalType": "address[]",
          "name": "",
          "type": "address[]"
        }
      ],
      "stateMutability": "view",
      "type": "function"
    },
    {
      "inputs": [],
      "name": "getReaderList",
      "outputs": [
        {
          "internalType": "address[]",
          "name": "",
          "type": "address[]"
        }
      ],
      "stateMutability": "view",
      "type": "function"
    },
    {
      "inputs": [],
      "name": "getWriterList",
      "outputs": [
        {
          "internalType": "address[]",
          "name": "",
          "type": "address[]"
        }
      ],
      "stateMutability": "view",
      "type": "function"
    },
    {
      "inputs": [
        {
          "internalType": "address",
          "name": "spender",
          "type": "address"
        },
        {
          "internalType": "uint256",
          "name": "addedValue",
          "type": "uint256"
        }
      ],
      "name": "increaseAllowance",
      "outputs": [
        {
          "internalType": "bool",
          "name": "",
          "type": "bool"
        }
      ],
      "stateMutability": "nonpayable",
      "type": "function"
    },
    {
      "inputs": [
        {
          "internalType": "address",
          "name": "addr",
          "type": "address"
        }
      ],
      "name": "isOwner",
      "outputs": [
        {
          "internalType": "bool",
          "name": "",
          "type": "bool"
        }
      ],
      "stateMutability": "view",
      "type": "function"
    },
    {
      "inputs": [
        {
          "internalType": "address",
          "name": "addr",
          "type": "address"
        }
      ],
      "name": "isWriter",
      "outputs": [
        {
          "internalType": "bool",
          "name": "",
          "type": "bool"
        }
      ],
      "stateMutability": "view",
      "type": "function"
    },
    {
      "inputs": [],
      "name": "name",
      "outputs": [
        {
          "internalType": "string",
          "name": "",
          "type": "string"
        }
      ],
      "stateMutability": "view",
      "type": "function"
    },
    {
      "inputs": [
        {
          "internalType": "address",
          "name": "owner",
          "type": "address"
        }
      ],
      "name": "removeOwner",
      "outputs": [],
      "stateMutability": "nonpayable",
      "type": "function"
    },
    {
      "inputs": [
        {
          "internalType": "address",
          "name": "existingReader",
          "type": "address"
        }
      ],
      "name": "removerReader",
      "outputs": [],
      "stateMutability": "nonpayable",
      "type": "function"
    },
    {
      "inputs": [
        {
          "internalType": "address",
          "name": "existingWriter",
          "type": "address"
        }
      ],
      "name": "removerWriter",
      "outputs": [],
      "stateMutability": "nonpayable",
      "type": "function"
    },
    {
      "inputs": [],
      "name": "renounceOwnership",
      "outputs": [],
      "stateMutability": "nonpayable",
      "type": "function"
    },
    {
      "inputs": [],
      "name": "symbol",
      "outputs": [
        {
          "internalType": "string",
          "name": "",
          "type": "string"
        }
      ],
      "stateMutability": "view",
      "type": "function"
    },
    {
      "inputs": [],
      "name": "totalSupply",
      "outputs": [
        {
          "internalType": "uint256",
          "name": "",
          "type": "uint256"
        }
      ],
      "stateMutability": "view",
      "type": "function"
    },
    {
      "inputs": [
        {
          "internalType": "address",
          "name": "recipient",
          "type": "address"
        },
        {
          "internalType": "uint256",
          "name": "amount",
          "type": "uint256"
        }
      ],
      "name": "transfer",
      "outputs": [
        {
          "internalType": "bool",
          "name": "",
          "type": "bool"
        }
      ],
      "stateMutability": "nonpayable",
      "type": "function"
    },
    {
      "inputs": [
        {
          "internalType": "address",
          "name": "sender",
          "type": "address"
        },
        {
          "internalType": "address",
          "name": "recipient",
          "type": "address"
        },
        {
          "internalType": "uint256",
          "name": "amount",
          "type": "uint256"
        }
      ],
      "name": "transferFrom",
      "outputs": [
        {
          "internalType": "bool",
          "name": "",
          "type": "bool"
        }
      ],
      "stateMutability": "nonpayable",
      "type": "function"
    },
    {
      "inputs": [
        {
          "internalType": "address",
          "name": "internalSCAddr",
          "type": "address"
        },
        {
          "internalType": "string",
          "name": "name_",
          "type": "string"
        },
        {
          "internalType": "string",
          "name": "symbol_",
          "type": "string"
        },
        {
          "internalType": "uint256",
          "name": "totalSupply_",
          "type": "uint256"
        },
        {
          "internalType": "uint8",
          "name": "decimals_",
          "type": "uint8"
        },
        {
          "internalType": "address",
          "name": "externalSCAddr",
          "type": "address"
        }
      ],
      "name": "init",
      "outputs": [],
      "stateMutability": "nonpayable",
      "type": "function"
    },
    {
      "inputs": [
        {
          "internalType": "string",
          "name": "name_",
          "type": "string"
        },
        {
          "internalType": "string",
          "name": "symbol_",
          "type": "string"
        },
        {
          "internalType": "uint256",
          "name": "totalSupply_",
          "type": "uint256"
        },
        {
          "internalType": "uint8",
          "name": "decimals_",
          "type": "uint8"
        }
      ],
      "name": "init",
      "outputs": [],
      "stateMutability": "nonpayable",
      "type": "function"
    },
    {
      "inputs": [
        {
          "internalType": "address",
          "name": "account",
          "type": "address"
        },
        {
          "internalType": "uint256",
          "name": "amount",
          "type": "uint256"
        }
      ],
      "name": "mint",
      "outputs": [],
      "stateMutability": "nonpayable",
      "type": "function"
    },
    {
      "inputs": [
        {
          "internalType": "address",
          "name": "account",
          "type": "address"
        },
        {
          "internalType": "uint256",
          "name": "amount",
          "type": "uint256"
        }
      ],
      "name": "burn",
      "outputs": [],
      "stateMutability": "nonpayable",
      "type": "function"
    },
    {
      "inputs": [
        {
          "internalType": "address",
          "name": "dest",
          "type": "address"
        },
        {
          "internalType": "uint256",
          "name": "withdrawAmount",
          "type": "uint256"
        },
        {
          "internalType": "uint256",
          "name": "amountWithFee",
          "type": "uint256"
        }
      ],
      "name": "submitWithdraw",
      "outputs": [],
      "stateMutability": "nonpayable",
      "type": "function"
    },
    {
      "inputs": [
        {
          "internalType": "uint256",
          "name": "amount",
          "type": "uint256"
        },
        {
          "internalType": "address",
          "name": "dappAddress",
          "type": "address"
        },
        {
          "internalType": "bytes32",
          "name": "extraData",
          "type": "bytes32"
        }
      ],
      "name": "depositToDApp",
      "outputs": [],
      "stateMutability": "nonpayable",
      "type": "function"
    },
    {
      "inputs": [
        {
          "internalType": "uint256",
          "name": "productId",
          "type": "uint256"
        },
        {
          "internalType": "uint256",
          "name": "quantity",
          "type": "uint256"
        },
        {
          "internalType": "uint256",
          "name": "amount",
          "type": "uint256"
        },
        {
          "internalType": "address",
          "name": "dappAddress",
          "type": "address"
        },
        {
          "internalType": "bytes32",
          "name": "extraData",
          "type": "bytes32"
        }
      ],
      "name": "purchase",
      "outputs": [],
      "stateMutability": "nonpayable",
      "type": "function"
    },
    {
      "inputs": [
        {
          "internalType": "address",
          "name": "addr",
          "type": "address"
        }
      ],
      "name": "setInternalSCConfigAddress",
      "outputs": [],
      "stateMutability": "nonpayable",
      "type": "function"
    },
    {
      "inputs": [],
      "name": "getInternalSCConfigAddress",
      "outputs": [
        {
          "internalType": "address",
          "name": "",
          "type": "address"
        }
      ],
      "stateMutability": "view",
      "type": "function"
    },
    {
      "inputs": [
        {
          "internalType": "address",
          "name": "addr",
          "type": "address"
        }
      ],
      "name": "addBlackListDestAddress",
      "outputs": [],
      "stateMutability": "nonpayable",
      "type": "function"
    },
    {
      "inputs": [
        {
          "internalType": "address",
          "name": "addr",
          "type": "address"
        }
      ],
      "name": "removeBlackListDestAddress",
      "outputs": [],
      "stateMutability": "nonpayable",
      "type": "function"
    }
  ],
  "bytecode": "0x608060405260006100176001600160e01b036100ab16565b6001600160a01b0381166000818152600160208190526040808320805460ff191683179055825491820183558280527f290decd9548b62a8d60345a988386fc84ba6bc95484008f6362f93160ef3e56390910180546001600160a01b031916841790555192935090917f8be0079c531659141344cd1fd0a4f28419497f9722a3daafe3b4186f6b6457e0908290a3506100af565b3390565b61391580620000bf6000396000f3fe608060405234801561001057600080fd5b50600436106102315760003560e01c806370a0823111610130578063a9059cbb116100b8578063dd62ed3e1161007c578063dd62ed3e146109bd578063ddc067b9146109eb578063ddc6f5f614610a11578063ef18374a14610a37578063feb72b3014610a3f57610231565b8063a9059cbb146108f9578063a9304c5814610925578063afd8b1d11461094b578063b8b7aea514610971578063da2824a81461099757610231565b806385aaed4e116100ff57806385aaed4e1461088957806395d89b41146108915780639dc29fac14610899578063a0e67e2b146108c5578063a457c2d7146108cd57610231565b806370a08231146107f7578063715018a61461081d5780638145d12614610825578063855bfa4e1461084b57610231565b80632f54bf6e116101be57806340c10f191161018257806340c10f19146106315780634bbde3e11461065d5780634f5b9e851461067a57806364cb150a146107ab5780637065cb48146107d157610231565b80632f54bf6e14610537578063313ce5671461055d578063395093511461057b5780633a1abfe7146105a75780633a6de00f146105ff57610231565b8063173825d911610205578063173825d91461034b57806318160ddd146103715780631aac36531461038b57806323b872dd146104db5780632b29ba231461051157610231565b806280df751461023657806306fdde031461026a578063095ea7b3146102e7578063157277ea14610327575b600080fd5b6102686004803603606081101561024c57600080fd5b506001600160a01b038135169060208101359060400135610a65565b005b6102726117e5565b6040805160208082528351818301528351919283929083019185019080838360005b838110156102ac578181015183820152602001610294565b50505050905090810190601f1680156102d95780820380516001836020036101000a031916815260200191505b509250505060405180910390f35b610313600480360360408110156102fd57600080fd5b506001600160a01b03813516906020013561187c565b604080519115158252519081900360200190f35b61032f611899565b604080516001600160a01b039092168252519081900360200190f35b6102686004803603602081101561036157600080fd5b50356001600160a01b03166118ad565b610379611a75565b60408051918252519081900360200190f35b610268600480360360c08110156103a157600080fd5b6001600160a01b038235169190810190604081016020820135600160201b8111156103cb57600080fd5b8201836020820111156103dd57600080fd5b803590602001918460018302840111600160201b831117156103fe57600080fd5b91908080601f0160208091040260200160405190810160405280939291908181526020018383808284376000920191909152509295949360208101935035915050600160201b81111561045057600080fd5b82018360208201111561046257600080fd5b803590602001918460018302840111600160201b8311171561048357600080fd5b91908080601f01602080910402602001604051908101604052809392919081815260200183838082843760009201919091525092955050823593505050602081013560ff1690604001356001600160a01b0316611a7b565b610313600480360360608110156104f157600080fd5b506001600160a01b03813581169160208101359091169060400135611b31565b6103136004803603602081101561052757600080fd5b50356001600160a01b0316611bbe565b6103136004803603602081101561054d57600080fd5b50356001600160a01b0316611bdc565b610565611bfa565b6040805160ff9092168252519081900360200190f35b6103136004803603604081101561059157600080fd5b506001600160a01b038135169060200135611c03565b6105af611c57565b60408051602080825283518183015283519192839290830191858101910280838360005b838110156105eb5781810151838201526020016105d3565b505050509050019250505060405180910390f35b6102686004803603606081101561061557600080fd5b508035906001600160a01b036020820135169060400135611cb8565b6102686004803603604081101561064757600080fd5b506001600160a01b038135169060200135611e86565b61032f6004803603602081101561067357600080fd5b5035611f03565b6102686004803603608081101561069057600080fd5b810190602081018135600160201b8111156106aa57600080fd5b8201836020820111156106bc57600080fd5b803590602001918460018302840111600160201b831117156106dd57600080fd5b91908080601f0160208091040260200160405190810160405280939291908181526020018383808284376000920191909152509295949360208101935035915050600160201b81111561072f57600080fd5b82018360208201111561074157600080fd5b803590602001918460018302840111600160201b8311171561076257600080fd5b91908080601f016020809104026020016040519081016040528093929190818152602001838380828437600092019190915250929550508235935050506020013560ff16611f2a565b610313600480360360208110156107c157600080fd5b50356001600160a01b0316611fdc565b610268600480360360208110156107e757600080fd5b50356001600160a01b0316611ff1565b6103796004803603602081101561080d57600080fd5b50356001600160a01b0316612162565b61026861217d565b6102686004803603602081101561083b57600080fd5b50356001600160a01b03166122fa565b610268600480360360a081101561086157600080fd5b508035906020810135906040810135906001600160a01b036060820135169060800135612500565b6105af61261c565b61027261267c565b610268600480360360408110156108af57600080fd5b506001600160a01b0381351690602001356126dd565b6105af612756565b610313600480360360408110156108e357600080fd5b506001600160a01b0381351690602001356127b6565b6103136004803603604081101561090f57600080fd5b506001600160a01b038135169060200135612824565b6103796004803603602081101561093b57600080fd5b50356001600160a01b0316612838565b6102686004803603602081101561096157600080fd5b50356001600160a01b031661284a565b6102686004803603602081101561098757600080fd5b50356001600160a01b03166129ac565b610268600480360360208110156109ad57600080fd5b50356001600160a01b0316612b8f565b610379600480360360408110156109d357600080fd5b506001600160a01b0381358116916020013516612cf1565b61026860048036036020811015610a0157600080fd5b50356001600160a01b0316612d1c565b61026860048036036020811015610a2757600080fd5b50356001600160a01b0316612e59565b61037961305f565b61026860048036036020811015610a5557600080fd5b50356001600160a01b0316613065565b6001600160a01b0383166000908152600e6020526040902054839060ff1615610ace576040805162461bcd60e51b8152602060048201526016602482015275426c61636b6c6973742064657374206164647265737360501b604482015290519081900360640190fd5b828211610b22576040805162461bcd60e51b815260206004820181905260248201527f546f74616c20616d6f756e7420736d616c6c6572207468616e20616d6f756e74604482015290519081900360640190fd5b600083830390506000600b60019054906101000a90046001600160a01b03166001600160a01b031663a0d5de426040518163ffffffff1660e01b815260040160206040518083038186803b158015610b7957600080fd5b505afa158015610b8d573d6000803e3d6000fd5b505050506040513d6020811015610ba357600080fd5b505190506001600160a01b038116610c02576040805162461bcd60e51b815260206004820152601860248201527f57616c6c6574416464726573734d6170206973206e756c6c0000000000000000604482015290519081900360640190fd5b6000600b60019054906101000a90046001600160a01b03166001600160a01b031663a0d5de426040518163ffffffff1660e01b815260040160206040518083038186803b158015610c5257600080fd5b505afa158015610c66573d6000803e3d6000fd5b505050506040513d6020811015610c7c57600080fd5b5051905060006001600160a01b0382166311736df5610c996130fa565b6040518263ffffffff1660e01b815260040180826001600160a01b03166001600160a01b0316815260200191505060206040518083038186803b158015610cdf57600080fd5b505afa158015610cf3573d6000803e3d6000fd5b505050506040513d6020811015610d0957600080fd5b5051905080610d5f576040805162461bcd60e51b815260206004820152601860248201527f57616c6c6574206973206e6f7420726567697374657265640000000000000000604482015290519081900360640190fd5b6201518080836001600160a01b0316636e8c271b610d7b6130fa565b6040518263ffffffff1660e01b815260040180826001600160a01b03166001600160a01b0316815260200191505060206040518083038186803b158015610dc157600080fd5b505afa158015610dd5573d6000803e3d6000fd5b505050506040513d6020811015610deb57600080fd5b505181610df457fe5b05026201518080420502141561117c5786600f6000610e116130fa565b6001600160a01b039081168252602082019290925260400160002054600c549201911663c4a5fbf4610e4161267c565b856001600160a01b0316638a91fcde610e586130fa565b604080516001600160e01b031960e085901b1681526001600160a01b0390921660048301526024820181905260086044830152671ade58d3195d995b60c21b6064830152516084808301926000929190829003018186803b158015610ebc57600080fd5b505afa158015610ed0573d6000803e3d6000fd5b505050506040513d6000823e601f3d908101601f191682016040526020811015610ef957600080fd5b8101908080516040519392919084600160201b821115610f1857600080fd5b908301906020820185811115610f2d57600080fd5b8251600160201b811182820188101715610f4657600080fd5b82525081516020918201929091019080838360005b83811015610f73578181015183820152602001610f5b565b50505050905090810190601f168015610fa05780820380516001836020036101000a031916815260200191505b506040525050506040518363ffffffff1660e01b8152600401808060200180602001838103835285818151815260200191508051906020019080838360005b83811015610ff7578181015183820152602001610fdf565b50505050905090810190601f1680156110245780820380516001836020036101000a031916815260200191505b50838103825284518152845160209182019186019080838360005b8381101561105757818101518382015260200161103f565b50505050905090810190601f1680156110845780820380516001836020036101000a031916815260200191505b5094505050505060206040518083038186803b1580156110a357600080fd5b505afa1580156110b7573d6000803e3d6000fd5b505050506040513d60208110156110cd57600080fd5b50511015611122576040805162461bcd60e51b815260206004820152601c60248201527f657863656564206461696c7920776974686472617720616d6f756e7400000000604482015290519081900360640190fd5b86600f600061112f6130fa565b6001600160a01b03166001600160a01b031681526020019081526020016000205401600f600061115d6130fa565b6001600160a01b031681526020810191909152604001600020556114a0565b600c5487906001600160a01b031663c4a5fbf461119761267c565b856001600160a01b0316638a91fcde6111ae6130fa565b604080516001600160e01b031960e085901b1681526001600160a01b0390921660048301526024820181905260086044830152671ade58d3195d995b60c21b6064830152516084808301926000929190829003018186803b15801561121257600080fd5b505afa158015611226573d6000803e3d6000fd5b505050506040513d6000823e601f3d908101601f19168201604052602081101561124f57600080fd5b8101908080516040519392919084600160201b82111561126e57600080fd5b90830190602082018581111561128357600080fd5b8251600160201b81118282018810171561129c57600080fd5b82525081516020918201929091019080838360005b838110156112c95781810151838201526020016112b1565b50505050905090810190601f1680156112f65780820380516001836020036101000a031916815260200191505b506040525050506040518363ffffffff1660e01b8152600401808060200180602001838103835285818151815260200191508051906020019080838360005b8381101561134d578181015183820152602001611335565b50505050905090810190601f16801561137a5780820380516001836020036101000a031916815260200191505b50838103825284518152845160209182019186019080838360005b838110156113ad578181015183820152602001611395565b50505050905090810190601f1680156113da5780820380516001836020036101000a031916815260200191505b5094505050505060206040518083038186803b1580156113f957600080fd5b505afa15801561140d573d6000803e3d6000fd5b505050506040513d602081101561142357600080fd5b50511015611478576040805162461bcd60e51b815260206004820152601c60248201527f657863656564206461696c7920776974686472617720616d6f756e7400000000604482015290519081900360640190fd5b86600f60006114856130fa565b6001600160a01b031681526020810191909152604001600020555b816001600160a01b0316636939291c6114b76130fa565b426040518363ffffffff1660e01b815260040180836001600160a01b03166001600160a01b0316815260200182815260200192505050600060405180830381600087803b15801561150757600080fd5b505af115801561151b573d6000803e3d6000fd5b505050506000600b60019054906101000a90046001600160a01b03166001600160a01b031663419834ac6040518163ffffffff1660e01b815260040160206040518083038186803b15801561156f57600080fd5b505afa158015611583573d6000803e3d6000fd5b505050506040513d602081101561159957600080fd5b5051905060006115a98287612824565b9050806115e75760405162461bcd60e51b81526004018080602001828103825260228152602001806138076022913960400191505060405180910390fd5b6000600b60019054906101000a90046001600160a01b03166001600160a01b031663cbf1a9ab6040518163ffffffff1660e01b815260040160206040518083038186803b15801561163757600080fd5b505afa15801561164b573d6000803e3d6000fd5b505050506040513d602081101561166157600080fd5b505190506000611671828c612824565b9050806116af5760405162461bcd60e51b81526004018080602001828103825260228152602001806137e56022913960400191505060405180910390fd5b816001600160a01b03811663ed0736cc6116c76130fa565b8f8f6116d161267c565b8e6040518663ffffffff1660e01b815260040180866001600160a01b03166001600160a01b03168152602001856001600160a01b03166001600160a01b0316815260200184815260200180602001838152602001828103825284818151815260200191508051906020019080838360005b8381101561175a578181015183820152602001611742565b50505050905090810190601f1680156117875780820380516001836020036101000a031916815260200191505b509650505050505050602060405180830381600087803b1580156117aa57600080fd5b505af11580156117be573d6000803e3d6000fd5b505050506040513d60208110156117d457600080fd5b505050505050505050505050505050565b60098054604080516020601f60026000196101006001881615020190951694909404938401819004810282018101909252828152606093909290918301828280156118715780601f1061184657610100808354040283529160200191611871565b820191906000526020600020905b81548152906001019060200180831161185457829003601f168201915b505050505090505b90565b60006118906118896130fa565b84846130fe565b50600192915050565b600b5461010090046001600160a01b031690565b60006118b76130fa565b6001600160a01b03811660009081526001602081905260409091205491925060ff9091161515146119195760405162461bcd60e51b81526004018080602001828103825260278152602001806137986027913960400191505060405180910390fd5b6001600160a01b038216600090815260016020526040902054829060ff1661194057600080fd5b6001600160a01b0383166000908152600160205260408120805460ff191690558054905b81811015611a0d57846001600160a01b03166000828154811061198357fe5b6000918252602090912001546001600160a01b03161415611a0557600060018303815481106119ae57fe5b600091825260208220015481546001600160a01b039091169190839081106119d257fe5b9060005260206000200160006101000a8154816001600160a01b0302191690836001600160a01b03160217905550611a0d565b600101611964565b506000805480611a1957fe5b600082815260208120820160001990810180546001600160a01b03191690559091019091556040516001600160a01b038616917f58619076adf5bb0943d100ef88d52d7c3fd691b19d3a9071b555b651fbf418da91a250505050565b60085490565b6000611a856130fa565b6001600160a01b03811660009081526001602081905260409091205491925060ff909116151514611ae75760405162461bcd60e51b81526004018080602001828103825260278152602001806137986027913960400191505060405180910390fd5b611af386868686611f2a565b50600b8054610100600160a81b0319166101006001600160a01b0398891602179055600c80546001600160a01b031916919096161790945550505050565b6000611b3e8484846131ea565b611bb484611b4a6130fa565b611baf85604051806060016040528060288152602001613829602891396001600160a01b038a16600090815260076020526040812090611b886130fa565b6001600160a01b03168152602081019190915260400160002054919063ffffffff61335316565b6130fe565b5060019392505050565b6001600160a01b031660009081526005602052604090205460ff1690565b6001600160a01b031660009081526001602052604090205460ff1690565b600b5460ff1690565b6000611890611c106130fa565b84611baf8560076000611c216130fa565b6001600160a01b03908116825260208083019390935260409182016000908120918c16815292529020549063ffffffff6133ea16565b6060600480548060200260200160405190810160405280929190818152602001828054801561187157602002820191906000526020600020905b81546001600160a01b03168152600190910190602001808311611c91575050505050905090565b611cc28284612824565b50816001600160a01b038116638f64690a611cdb61267c565b86611ce46130fa565b866040518563ffffffff1660e01b81526004018080602001858152602001846001600160a01b03166001600160a01b03168152602001838152602001828103825286818151815260200191508051906020019080838360005b83811015611d55578181015183820152602001611d3d565b50505050905090810190601f168015611d825780820380516001836020036101000a031916815260200191505b5095505050505050600060405180830381600087803b158015611da457600080fd5b505af1158015611db8573d6000803e3d6000fd5b5050505083836001600160a01b0316611dcf6130fa565b6001600160a01b03167fcc2a77507bd94aefd8bb451ee7924e1d3f377b2f7a7364edb50b8c0ab90eb5e6611e0161267c565b866040518080602001838152602001828103825284818151815260200191508051906020019080838360005b83811015611e45578181015183820152602001611e2d565b50505050905090810190601f168015611e725780820380516001836020036101000a031916815260200191505b50935050505060405180910390a450505050565b611e8f33611bdc565b158015611eac57503360009081526005602052604090205460ff16155b15611ef5576040805162461bcd60e51b81526020600482015260146024820152734f776e6572206f7220777269746572206f6e6c7960601b604482015290519081900360640190fd5b611eff828261344b565b5050565b600d8181548110611f1057fe5b6000918252602090912001546001600160a01b0316905081565b6000611f346130fa565b6001600160a01b03811660009081526001602081905260409091205491925060ff909116151514611f965760405162461bcd60e51b81526004018080602001828103825260278152602001806137986027913960400191505060405180910390fd5b8451611fa9906009906020880190613698565b508351611fbd90600a906020870190613698565b5050600891909155600b805460ff191660ff9092169190911790555050565b600e6020526000908152604090205460ff1681565b6000611ffb6130fa565b6001600160a01b03811660009081526001602081905260409091205491925060ff90911615151461205d5760405162461bcd60e51b81526004018080602001828103825260278152602001806137986027913960400191505060405180910390fd5b6001600160a01b038216600090815260016020819052604090912054839160ff909116151514156120d5576040805162461bcd60e51b815260206004820152601b60248201527f4164647265737320616c726561647920697320616e206f776e65720000000000604482015290519081900360640190fd5b6001600160a01b0383166000818152600160208190526040808320805460ff191683179055825491820183558280527f290decd9548b62a8d60345a988386fc84ba6bc95484008f6362f93160ef3e56390910180546001600160a01b03191684179055517f994a936646fe87ffe4f1e469d3d6aa417d6b855598397f323de5b449f765f0c39190a2505050565b6001600160a01b031660009081526006602052604090205490565b60006121876130fa565b6001600160a01b03811660009081526001602081905260409091205491925060ff9091161515146121e95760405162461bcd60e51b81526004018080602001828103825260278152602001806137986027913960400191505060405180910390fd5b60006121f36130fa565b6001600160a01b0381166000908152600160205260408120805460ff191690559091505b600054600019018110156122c857816001600160a01b03166000828154811061223c57fe5b6000918252602090912001546001600160a01b031614156122c05760008054600019810190811061226957fe5b600091825260208220015481546001600160a01b0390911691908390811061228d57fe5b9060005260206000200160006101000a8154816001600160a01b0302191690836001600160a01b031602179055506122c8565b600101612217565b5060008054806122d457fe5b600082815260209020810160001990810180546001600160a01b03191690550190555050565b60006123046130fa565b6001600160a01b03811660009081526001602081905260409091205491925060ff9091161515146123665760405162461bcd60e51b81526004018080602001828103825260278152602001806137986027913960400191505060405180910390fd5b6001600160a01b038216600090815260056020526040902054829060ff166123c8576040805162461bcd60e51b815260206004820152601060248201526f15dc9a5d195c881b9bdd08195e1a5cdd60821b604482015290519081900360640190fd5b6001600160a01b0383166000908152600560205260408120805460ff19169055600454905b8181101561249857846001600160a01b03166004828154811061240c57fe5b6000918252602090912001546001600160a01b03161415612490576004600183038154811061243757fe5b600091825260209091200154600480546001600160a01b03909216918390811061245d57fe5b9060005260206000200160006101000a8154816001600160a01b0302191690836001600160a01b03160217905550612498565b6001016123ed565b5060048054806124a457fe5b600082815260208120820160001990810180546001600160a01b03191690559091019091556040516001600160a01b038616917f86e5bbceda94081c32220d685f37cc4e3ea7bb0be2dfbf0cb703579505a5390e91a250505050565b61250a8284612824565b50816001600160a01b03811663d256122b6125236130fa565b888861252d61267c565b89886040518763ffffffff1660e01b815260040180876001600160a01b03166001600160a01b0316815260200186815260200185815260200180602001848152602001838152602001828103825285818151815260200191508051906020019080838360005b838110156125ab578181015183820152602001612593565b50505050905090810190601f1680156125d85780820380516001836020036101000a031916815260200191505b50975050505050505050600060405180830381600087803b1580156125fc57600080fd5b505af1158015612610573d6000803e3d6000fd5b50505050505050505050565b60606002805480602002602001604051908101604052809291908181526020018280548015611871576020028201919060005260206000209081546001600160a01b03168152600190910190602001808311611c91575050505050905090565b600a8054604080516020601f60026000196101006001881615020190951694909404938401819004810282018101909252828152606093909290918301828280156118715780601f1061184657610100808354040283529160200191611871565b6126e633611bdc565b15801561270357503360009081526005602052604090205460ff16155b1561274c576040805162461bcd60e51b81526020600482015260146024820152734f776e6572206f7220777269746572206f6e6c7960601b604482015290519081900360640190fd5b611eff8282613549565b60606000805480602002602001604051908101604052809291908181526020018280548015611871576020028201919060005260206000209081546001600160a01b03168152600190910190602001808311611c91575050505050905090565b60006118906127c36130fa565b84611baf856040518060600160405280602581526020016138bb60259139600760006127ed6130fa565b6001600160a01b03908116825260208083019390935260409182016000908120918d1681529252902054919063ffffffff61335316565b60006118906128316130fa565b84846131ea565b600f6020526000908152604090205481565b60006128546130fa565b6001600160a01b03811660009081526001602081905260409091205491925060ff9091161515146128b65760405162461bcd60e51b81526004018080602001828103825260278152602001806137986027913960400191505060405180910390fd5b6001600160a01b038216600090815260036020526040902054829060ff161561291e576040805162461bcd60e51b815260206004820152601560248201527452656164657220616c72656164792065786973747360581b604482015290519081900360640190fd5b6001600160a01b038316600081815260036020526040808220805460ff1916600190811790915560028054918201815583527f405787fa12a823e0f2b7631cc41b3ba8828b3321ca811111fa75cd3aa3bb5ace0180546001600160a01b03191684179055517fb7724d890d2888af5a3fc456edb667e2c82c4441449ebcac301c618759e4f86d9190a2505050565b60006129b66130fa565b6001600160a01b03811660009081526001602081905260409091205491925060ff909116151514612a185760405162461bcd60e51b81526004018080602001828103825260278152602001806137986027913960400191505060405180910390fd5b6001600160a01b0382166000908152600e6020526040902054829060ff16612a87576040805162461bcd60e51b815260206004820181905260248201527f426c61636b6c69737420646573742061646472657373206e6f7420666f756e64604482015290519081900360640190fd5b600d5460005b81811015612b3857846001600160a01b0316600d8281548110612aac57fe5b6000918252602090912001546001600160a01b03161415612b3057600d6001830381548110612ad757fe5b600091825260209091200154600d80546001600160a01b039092169183908110612afd57fe5b9060005260206000200160006101000a8154816001600160a01b0302191690836001600160a01b03160217905550612b38565b600101612a8d565b50600d805480612b4457fe5b60008281526020808220830160001990810180546001600160a01b03191690559092019092556001600160a01b03959095168152600e90945250506040909120805460ff1916905550565b6000612b996130fa565b6001600160a01b03811660009081526001602081905260409091205491925060ff909116151514612bfb5760405162461bcd60e51b81526004018080602001828103825260278152602001806137986027913960400191505060405180910390fd5b6001600160a01b038216600090815260056020526040902054829060ff1615612c63576040805162461bcd60e51b815260206004820152601560248201527457726974657220616c72656164792065786973747360581b604482015290519081900360640190fd5b6001600160a01b038316600081815260056020526040808220805460ff1916600190811790915560048054918201815583527f8a35acfbc15ff81a39ae7d344fd709f28e8600b4aa8c65c6b64bfe7fe36bd19b0180546001600160a01b03191684179055517f6ff3aa2ea7b53070f6d9d07a445d338d89e8edef44250ffa8be19f53910d4a2e9190a2505050565b6001600160a01b03918216600090815260076020908152604080832093909416825291909152205490565b6000612d266130fa565b6001600160a01b03811660009081526001602081905260409091205491925060ff909116151514612d885760405162461bcd60e51b81526004018080602001828103825260278152602001806137986027913960400191505060405180910390fd5b6001600160a01b0382166000908152600e6020526040902054829060ff1615612df1576040805162461bcd60e51b8152602060048201526016602482015275426c61636b6c6973742064657374206164647265737360501b604482015290519081900360640190fd5b50506001600160a01b03166000818152600e60205260408120805460ff19166001908117909155600d805491820181559091527fd7b6990105719101dabeb77144f2a3385c8033acd3af97e9423a695e81ad1eb50180546001600160a01b0319169091179055565b6000612e636130fa565b6001600160a01b03811660009081526001602081905260409091205491925060ff909116151514612ec55760405162461bcd60e51b81526004018080602001828103825260278152602001806137986027913960400191505060405180910390fd5b6001600160a01b038216600090815260036020526040902054829060ff16612f27576040805162461bcd60e51b815260206004820152601060248201526f14995859195c881b9bdd08195e1a5cdd60821b604482015290519081900360640190fd5b6001600160a01b0383166000908152600360205260408120805460ff19169055600254905b81811015612ff757846001600160a01b031660028281548110612f6b57fe5b6000918252602090912001546001600160a01b03161415612fef5760026001830381548110612f9657fe5b600091825260209091200154600280546001600160a01b039092169183908110612fbc57fe5b9060005260206000200160006101000a8154816001600160a01b0302191690836001600160a01b03160217905550612ff7565b600101612f4c565b50600280548061300357fe5b600082815260208120820160001990810180546001600160a01b03191690559091019091556040516001600160a01b038616917fe933431644458f1217f9e93d3e000e03c9bbbe55761046d0985c2e4d157bcbaa91a250505050565b60005490565b600061306f6130fa565b6001600160a01b03811660009081526001602081905260409091205491925060ff9091161515146130d15760405162461bcd60e51b81526004018080602001828103825260278152602001806137986027913960400191505060405180910390fd5b50600b80546001600160a01b0390921661010002610100600160a81b0319909216919091179055565b3390565b6001600160a01b0383166131435760405162461bcd60e51b81526004018080602001828103825260248152602001806138976024913960400191505060405180910390fd5b6001600160a01b0382166131885760405162461bcd60e51b81526004018080602001828103825260228152602001806137766022913960400191505060405180910390fd5b6001600160a01b03808416600081815260076020908152604080832094871680845294825291829020859055815185815291517f8c5be1e5ebec7d5bd14f71427d1e84f3dd0314c0f7b2291e5b200ac8c7c3b9259281900390910190a3505050565b6001600160a01b03831661322f5760405162461bcd60e51b81526004018080602001828103825260258152602001806138726025913960400191505060405180910390fd5b6001600160a01b0382166132745760405162461bcd60e51b81526004018080602001828103825260238152602001806137316023913960400191505060405180910390fd5b61327f838383613651565b6132c2816040518060600160405280602681526020016137bf602691396001600160a01b038616600090815260066020526040902054919063ffffffff61335316565b6001600160a01b0380851660009081526006602052604080822093909355908416815220546132f7908263ffffffff6133ea16565b6001600160a01b0380841660008181526006602090815260409182902094909455805185815290519193928716927fddf252ad1be2c89b69c2b068fc378daa952ba7f163c4a11628f55a4df523b3ef92918290030190a3505050565b600081848411156133e25760405162461bcd60e51b81526004018080602001828103825283818151815260200191508051906020019080838360005b838110156133a757818101518382015260200161338f565b50505050905090810190601f1680156133d45780820380516001836020036101000a031916815260200191505b509250505060405180910390fd5b505050900390565b600082820183811015613444576040805162461bcd60e51b815260206004820152601b60248201527f536166654d6174683a206164646974696f6e206f766572666c6f770000000000604482015290519081900360640190fd5b9392505050565b6001600160a01b0382166134a6576040805162461bcd60e51b815260206004820152601f60248201527f45524332303a206d696e7420746f20746865207a65726f206164647265737300604482015290519081900360640190fd5b6134b260008383613651565b6008546134c5908263ffffffff6133ea16565b6008556001600160a01b0382166000908152600660205260409020546134f1908263ffffffff6133ea16565b6001600160a01b03831660008181526006602090815260408083209490945583518581529351929391927fddf252ad1be2c89b69c2b068fc378daa952ba7f163c4a11628f55a4df523b3ef9281900390910190a35050565b6001600160a01b03821661358e5760405162461bcd60e51b81526004018080602001828103825260218152602001806138516021913960400191505060405180910390fd5b61359a82600083613651565b6135dd81604051806060016040528060228152602001613754602291396001600160a01b038516600090815260066020526040902054919063ffffffff61335316565b6001600160a01b038316600090815260066020526040902055600854613609908263ffffffff61365616565b6008556040805182815290516000916001600160a01b038516917fddf252ad1be2c89b69c2b068fc378daa952ba7f163c4a11628f55a4df523b3ef9181900360200190a35050565b505050565b600061344483836040518060400160405280601e81526020017f536166654d6174683a207375627472616374696f6e206f766572666c6f770000815250613353565b828054600181600116156101000203166002900490600052602060002090601f016020900481019282601f106136d957805160ff1916838001178555613706565b82800160010185558215613706579182015b828111156137065782518255916020019190600101906136eb565b50613712929150613716565b5090565b61187991905b80821115613712576000815560010161371c56fe45524332303a207472616e7366657220746f20746865207a65726f206164647265737345524332303a206275726e20616d6f756e7420657863656564732062616c616e636545524332303a20617070726f766520746f20746865207a65726f20616464726573734f776e61626c653a2063616c6c6572206973206e6f74206f6e65206f6620746865206f776e657245524332303a207472616e7366657220616d6f756e7420657863656564732062616c616e63655472616e7366657220746f20417070726f76616c2057616c6c6574206661696c65645472616e7366657220746f2041646d696e4665652057616c6c6574206661696c656445524332303a207472616e7366657220616d6f756e74206578636565647320616c6c6f77616e636545524332303a206275726e2066726f6d20746865207a65726f206164647265737345524332303a207472616e736665722066726f6d20746865207a65726f206164647265737345524332303a20617070726f76652066726f6d20746865207a65726f206164647265737345524332303a2064656372656173656420616c6c6f77616e63652062656c6f77207a65726fa264697066735822122026f150414f5e9a5613fcfc91b5d579f99f4d8e57c2ee82d67f7c78f79675c58064736f6c63430006020033",
  "source": "pragma solidity >=0.6.0 <0.8.0;\n\nimport \"../basic/ERC20.sol\";\nimport \"../../config/InternalSmartContractConfig.sol\";\nimport \"../../wallet/ApprovalWallet.sol\";\nimport \"../../wallet/WalletAddressMap.sol\";\nimport \"../../token/ITokenWithdrawable.sol\";\nimport \"../../token/ITokenMintable.sol\";\nimport \"../../config/ExternalSmartContractConfig.sol\";\nimport \"../../dapp/DAppBase.sol\";\nimport \"../../dapp/DAppStockBase.sol\";\n\n\ncontract EurusERC20 is ERC20, ITokenWithdrawable, ITokenMintable {\n\n    InternalSmartContractConfig internal internalSCConfig;\n    ExternalSmartContractConfig internal externalSCConfig;\n    \n    address[] public blackListDestAddress;\n    mapping(address => bool) public blackListDestAddressMap;\n\n    mapping(address=>uint256) public dailyWithdrewAmount;\n\n    event DepositedToDApp(address indexed buyer, address indexed dappAddress, uint256 indexed amount, string symbol, bytes32 extraData);\n\n    modifier onlyNonBlackListDestAddress(address destAddr){\n        require(!blackListDestAddressMap[destAddr], \"Blacklist dest address\");\n        _;\n    }\n\n        modifier onlyBlackListDestAddress(address destAddr){\n        require(blackListDestAddressMap[destAddr], \"Blacklist dest address not found\");\n        _;\n    }\n\n\n    function init(address internalSCAddr, string memory name_, string memory symbol_, uint256 totalSupply_, uint8 decimals_, address externalSCAddr) public onlyOwner {\n        super.init(name_, symbol_, totalSupply_, decimals_);\n        internalSCConfig = InternalSmartContractConfig(internalSCAddr);\n        externalSCConfig = ExternalSmartContractConfig(externalSCAddr);\n    }\n\n    function mint(address account, uint256 amount) public onlyOwnerOrWriter override{\n    _mint(account, amount);\n    }\n\n    function burn(address account, uint256 amount) public onlyOwnerOrWriter override {\n    _burn(account, amount);\n    }\n\n    function submitWithdraw(address dest, uint256 withdrawAmount, uint256 amountWithFee) public onlyNonBlackListDestAddress(dest) override {\n        require (amountWithFee > withdrawAmount, \"Total amount smaller than amount\");\n        uint256 feeAmount = amountWithFee - withdrawAmount;\n\n        address walletMapAddr = internalSCConfig.getWalletAddressMap();\n        require(walletMapAddr != address(0), \"WalletAddressMap is null\");\n        WalletAddressMap walletAddrMap = WalletAddressMap(internalSCConfig.getWalletAddressMap());\n        bool isExist = walletAddrMap.isWalletAddressExist(_msgSender());\n        require (isExist, \"Wallet is not registered\");\n\n\n        if (int(block.timestamp)/int(86400)*int(86400)==int(walletAddrMap.getLastUpdateTime(_msgSender()))/int(86400)*int(86400)){\n            require(externalSCConfig.getCurrencyKycLimit(symbol(),walletAddrMap.getWalletInfoValue(_msgSender(), \"kycLevel\"))>=dailyWithdrewAmount[_msgSender()]+withdrawAmount, \"exceed daily withdraw amount\");\n            dailyWithdrewAmount[_msgSender()] = dailyWithdrewAmount[_msgSender()]+withdrawAmount;\n        }else{\n            require(externalSCConfig.getCurrencyKycLimit(symbol(),walletAddrMap.getWalletInfoValue(_msgSender(), \"kycLevel\"))>=withdrawAmount, \"exceed daily withdraw amount\");\n            dailyWithdrewAmount[_msgSender()] = withdrawAmount;\n        }\n        walletAddrMap.setLastUpdateTime(_msgSender(), int256(block.timestamp));\n\n\n        address adminFeeWalletAddr =  internalSCConfig.getAdminFeeWalletAddress();\n        bool adminFeeIsSuccess = transfer(adminFeeWalletAddr, feeAmount);\n        require (adminFeeIsSuccess, \"Transfer to AdminFee Wallet failed\");\n\n        address approvalWalletAddr =  internalSCConfig.getApprovalWalletAddress();\n        bool isSuccess = transfer(approvalWalletAddr, withdrawAmount);\n        require (isSuccess, \"Transfer to Approval Wallet failed\");\n        ApprovalWallet approvalWallet = ApprovalWallet(payable(approvalWalletAddr));\n        approvalWallet.submitWithdrawRequest(_msgSender(), dest, withdrawAmount, symbol(),feeAmount);\n    }\n\n    function depositToDApp(uint256 amount, address dappAddress, bytes32 extraData) public{\n        transfer(dappAddress, amount);\n        DAppBase dapp = DAppBase(dappAddress);\n        dapp.mintCustomToken(symbol(), amount, _msgSender(), extraData);\n\n        emit DepositedToDApp(_msgSender(), dappAddress, amount, symbol(), extraData);\n    }\n\n    function purchase(uint256 productId, uint256 quantity, uint256 amount, address dappAddress, bytes32 extraData) public{\n        transfer(dappAddress, amount);\n        DAppStockBase stock =  DAppStockBase(dappAddress);\n        stock.purchase(_msgSender(), productId, quantity, symbol(), amount, extraData);\n    }\n\n    function setInternalSCConfigAddress(address addr) public \n        onlyOwner{\n            internalSCConfig = InternalSmartContractConfig(addr);\n            \n    }\n\n    function getInternalSCConfigAddress() public view returns(address){\n        return address(internalSCConfig);\n    }\n\n    function addBlackListDestAddress(address addr) public onlyOwner onlyNonBlackListDestAddress(addr) {\n        blackListDestAddressMap[addr] = true;\n        blackListDestAddress.push(addr);\n    }\n\n    function removeBlackListDestAddress(address addr) public onlyOwner onlyBlackListDestAddress(addr) {\n\n        uint256 len = blackListDestAddress.length;\n        for (uint256 i = 0 ; i < len; i++){\n            if (blackListDestAddress[i] == addr){\n                blackListDestAddress[i] = blackListDestAddress[len - 1] ;\n                break;\n            }\n        }\n        blackListDestAddress.pop();\n        blackListDestAddressMap[addr] = false;\n    }\n\n /**\n   * @notice Recover the signer of hash, assuming it's an EOA account\n   * @dev Only for EthSign signatures\n   * @param _hash       Hash of message that was signed\n   * @param _signature  Signature encoded as (bytes32 r, bytes32 s, uint8 v)\n   */\n  function recoverSigner(\n    bytes32 _hash,\n    bytes memory _signature\n  ) internal pure returns (address signer) {\n    require(_signature.length == 66, \"SignatureValidator#recoverSigner: invalid signature length\");\n\n    // Variables are not scoped in Solidity.\n    // uint8 v = uint8(_signature[64]);\n    // bytes32 r = _signature.readBytes32(0);\n    // bytes32 s = _signature.readBytes32(32);\n\n    uint8 v;\n    bytes32 r;\n    bytes32 s;\n    assembly{\n        r := mload(_signature)\n        s:= mload(add(_signature, 32))\n        v := byte(0, mload(add(_signature, 64)))\n    }\n\n\n    // EIP-2 still allows signature malleability for ecrecover(). Remove this possibility and make the signature\n    // unique. Appendix F in the Ethereum Yellow paper (https://ethereum.github.io/yellowpaper/paper.pdf), defines\n    // the valid range for s in (281): 0 < s < secp256k1n  2 + 1, and for v in (282): v  {27, 28}. Most\n    // signatures from current libraries generate a unique signature with an s-value in the lower half order.\n    //\n    // If your library generates malleable signatures, such as s-values in the upper range, calculate a new s-value\n    // with 0xFFFFFFFFFFFFFFFFFFFFFFFFFFFFFFFEBAAEDCE6AF48A03BBFD25E8CD0364141 - s1 and flip v from 27 to 28 or\n    // vice versa. If your library also generates signatures with 0/1 for v instead 27/28, add 27 to v to accept\n    // these malleable signatures as well.\n    //\n    // Source OpenZeppelin\n    // https://github.com/OpenZeppelin/openzeppelin-contracts/blob/master/contracts/cryptography/ECDSA.sol\n\n    if (uint256(s) > 0x7FFFFFFFFFFFFFFFFFFFFFFFFFFFFFFF5D576E7357A4501DDFE92F46681B20A0) {\n      revert(\"SignatureValidator#recoverSigner: invalid signature 's' value\");\n    }\n\n    if (v != 27 && v != 28) {\n      revert(\"SignatureValidator#recoverSigner: invalid signature 'v' value\");\n    }\n\n    // Recover ECDSA signer\n    signer = ecrecover(\n      keccak256(abi.encodePacked(\"\\x19Ethereum Signed Message:\\n32\", _hash)),\n      v,\n      r,\n      s\n    );\n    \n    // Prevent signer from being 0x0\n    require(\n      signer != address(0x0),\n      \"SignatureValidator#recoverSigner: INVALID_SIGNER\"\n    );\n\n    return signer;\n  }\n\n}",
  "sourcePath": "/Users/vince/Documents/GitHub/src/eurus-backend/smartcontract/contracts/erc20/extend/EurusERC20.sol",
  "compiler": {
    "name": "solc",
    "version": "0.6.2+commit.bacdbe57.Emscripten.clang"
  },
  "schemaVersion": "3.4.1",
  "updatedAt": "2021-09-03T01:50:35.302Z",
  "devdoc": {
    "methods": {
      "allowance(address,address)": {
        "details": "See {IERC20-allowance}."
      },
      "approve(address,uint256)": {
        "details": "See {IERC20-approve}.     * Requirements:     * - `spender` cannot be the zero address."
      },
      "balanceOf(address)": {
        "details": "See {IERC20-balanceOf}."
      },
      "decimals()": {
        "details": "Returns the number of decimals used to get its user representation. For example, if `decimals` equals `2`, a balance of `505` tokens should be displayed to a user as `5,05` (`505 / 10 ** 2`).     * Tokens usually opt for a value of 18, imitating the relationship between Ether and Wei. This is the value {ERC20} uses, unless {_setupDecimals} is called.     * NOTE: This information is only used for _display_ purposes: it in no way affects any of the arithmetic of the contract, including {IERC20-balanceOf} and {IERC20-transfer}."
      },
      "decreaseAllowance(address,uint256)": {
        "details": "Atomically decreases the allowance granted to `spender` by the caller.     * This is an alternative to {approve} that can be used as a mitigation for problems described in {IERC20-approve}.     * Emits an {Approval} event indicating the updated allowance.     * Requirements:     * - `spender` cannot be the zero address. - `spender` must have allowance for the caller of at least `subtractedValue`."
      },
      "increaseAllowance(address,uint256)": {
        "details": "Atomically increases the allowance granted to `spender` by the caller.     * This is an alternative to {approve} that can be used as a mitigation for problems described in {IERC20-approve}.     * Emits an {Approval} event indicating the updated allowance.     * Requirements:     * - `spender` cannot be the zero address."
      },
      "name()": {
        "details": "Returns the name of the token."
      },
      "renounceOwnership()": {
        "details": "Leaves the contract without owner. It will not be possible to call `onlyOwner` functions anymore. Can only be called by the current owner.     * NOTE: Renouncing ownership will leave the contract without an owner, thereby removing any functionality that is only available to the owner."
      },
      "symbol()": {
        "details": "Returns the symbol of the token, usually a shorter version of the name."
      },
      "totalSupply()": {
        "details": "See {IERC20-totalSupply}."
      },
      "transfer(address,uint256)": {
        "details": "See {IERC20-transfer}.     * Requirements:     * - `recipient` cannot be the zero address. - the caller must have a balance of at least `amount`."
      },
      "transferFrom(address,address,uint256)": {
        "details": "See {IERC20-transferFrom}.     * Emits an {Approval} event indicating the updated allowance. This is not required by the EIP. See the note at the beginning of {ERC20}.     * Requirements:     * - `sender` and `recipient` cannot be the zero address. - `sender` must have a balance of at least `amount`. - the caller must have allowance for ``sender``'s tokens of at least `amount`."
      }
    }
  },
  "userdoc": {
    "methods": {}
  }
}