{
  "contractName": "EurusERC20",
  "abi": [
    {
      "anonymous": false,
      "inputs": [
        {
          "indexed": true,
          "internalType": "address",
          "name": "owner",
          "type": "address"
        },
        {
          "indexed": true,
          "internalType": "address",
          "name": "spender",
          "type": "address"
        },
        {
          "indexed": false,
          "internalType": "uint256",
          "name": "value",
          "type": "uint256"
        }
      ],
      "name": "Approval",
      "type": "event"
    },
    {
      "anonymous": false,
      "inputs": [
        {
          "indexed": false,
          "internalType": "string",
          "name": "",
          "type": "string"
        }
      ],
      "name": "Event",
      "type": "event"
    },
    {
      "anonymous": false,
      "inputs": [
        {
          "indexed": true,
          "internalType": "address",
          "name": "owner",
          "type": "address"
        }
      ],
      "name": "OwnerAdded",
      "type": "event"
    },
    {
      "anonymous": false,
      "inputs": [
        {
          "indexed": true,
          "internalType": "address",
          "name": "owner",
          "type": "address"
        }
      ],
      "name": "OwnerRemoved",
      "type": "event"
    },
    {
      "anonymous": false,
      "inputs": [
        {
          "indexed": true,
          "internalType": "address",
          "name": "previousOwner",
          "type": "address"
        },
        {
          "indexed": true,
          "internalType": "address",
          "name": "newOwner",
          "type": "address"
        }
      ],
      "name": "OwnershipTransferred",
      "type": "event"
    },
    {
      "anonymous": false,
      "inputs": [
        {
          "indexed": true,
          "internalType": "address",
          "name": "reader",
          "type": "address"
        }
      ],
      "name": "ReaderAdded",
      "type": "event"
    },
    {
      "anonymous": false,
      "inputs": [
        {
          "indexed": true,
          "internalType": "address",
          "name": "reader",
          "type": "address"
        }
      ],
      "name": "ReaderRemoved",
      "type": "event"
    },
    {
      "anonymous": false,
      "inputs": [
        {
          "indexed": true,
          "internalType": "address",
          "name": "from",
          "type": "address"
        },
        {
          "indexed": true,
          "internalType": "address",
          "name": "to",
          "type": "address"
        },
        {
          "indexed": false,
          "internalType": "uint256",
          "name": "value",
          "type": "uint256"
        }
      ],
      "name": "Transfer",
      "type": "event"
    },
    {
      "anonymous": false,
      "inputs": [
        {
          "indexed": true,
          "internalType": "address",
          "name": "writer",
          "type": "address"
        }
      ],
      "name": "WriterAdded",
      "type": "event"
    },
    {
      "anonymous": false,
      "inputs": [
        {
          "indexed": true,
          "internalType": "address",
          "name": "writer",
          "type": "address"
        }
      ],
      "name": "WriterRemoved",
      "type": "event"
    },
    {
      "inputs": [
        {
          "internalType": "address",
          "name": "newOwner",
          "type": "address"
        }
      ],
      "name": "addOwner",
      "outputs": [],
      "stateMutability": "nonpayable",
      "type": "function"
    },
    {
      "inputs": [
        {
          "internalType": "address",
          "name": "newReader",
          "type": "address"
        }
      ],
      "name": "addReader",
      "outputs": [],
      "stateMutability": "nonpayable",
      "type": "function"
    },
    {
      "inputs": [
        {
          "internalType": "address",
          "name": "newWriter",
          "type": "address"
        }
      ],
      "name": "addWriter",
      "outputs": [],
      "stateMutability": "nonpayable",
      "type": "function"
    },
    {
      "inputs": [
        {
          "internalType": "address",
          "name": "owner",
          "type": "address"
        },
        {
          "internalType": "address",
          "name": "spender",
          "type": "address"
        }
      ],
      "name": "allowance",
      "outputs": [
        {
          "internalType": "uint256",
          "name": "",
          "type": "uint256"
        }
      ],
      "stateMutability": "view",
      "type": "function",
      "constant": true
    },
    {
      "inputs": [
        {
          "internalType": "address",
          "name": "spender",
          "type": "address"
        },
        {
          "internalType": "uint256",
          "name": "amount",
          "type": "uint256"
        }
      ],
      "name": "approve",
      "outputs": [
        {
          "internalType": "bool",
          "name": "",
          "type": "bool"
        }
      ],
      "stateMutability": "nonpayable",
      "type": "function"
    },
    {
      "inputs": [
        {
          "internalType": "address",
          "name": "account",
          "type": "address"
        }
      ],
      "name": "balanceOf",
      "outputs": [
        {
          "internalType": "uint256",
          "name": "",
          "type": "uint256"
        }
      ],
      "stateMutability": "view",
      "type": "function",
      "constant": true
    },
    {
      "inputs": [
        {
          "internalType": "uint256",
          "name": "",
          "type": "uint256"
        }
      ],
      "name": "blackListDestAddress",
      "outputs": [
        {
          "internalType": "address",
          "name": "",
          "type": "address"
        }
      ],
      "stateMutability": "view",
      "type": "function",
      "constant": true
    },
    {
      "inputs": [
        {
          "internalType": "address",
          "name": "",
          "type": "address"
        }
      ],
      "name": "blackListDestAddressMap",
      "outputs": [
        {
          "internalType": "bool",
          "name": "",
          "type": "bool"
        }
      ],
      "stateMutability": "view",
      "type": "function",
      "constant": true
    },
    {
      "inputs": [
        {
          "internalType": "address",
          "name": "",
          "type": "address"
        }
      ],
      "name": "dailyWithdrewAmount",
      "outputs": [
        {
          "internalType": "uint256",
          "name": "",
          "type": "uint256"
        }
      ],
      "stateMutability": "view",
      "type": "function",
      "constant": true
    },
    {
      "inputs": [],
      "name": "decimals",
      "outputs": [
        {
          "internalType": "uint8",
          "name": "",
          "type": "uint8"
        }
      ],
      "stateMutability": "view",
      "type": "function",
      "constant": true
    },
    {
      "inputs": [
        {
          "internalType": "address",
          "name": "spender",
          "type": "address"
        },
        {
          "internalType": "uint256",
          "name": "subtractedValue",
          "type": "uint256"
        }
      ],
      "name": "decreaseAllowance",
      "outputs": [
        {
          "internalType": "bool",
          "name": "",
          "type": "bool"
        }
      ],
      "stateMutability": "nonpayable",
      "type": "function"
    },
    {
      "inputs": [],
      "name": "getOwnerCount",
      "outputs": [
        {
          "internalType": "uint256",
          "name": "",
          "type": "uint256"
        }
      ],
      "stateMutability": "view",
      "type": "function",
      "constant": true
    },
    {
      "inputs": [],
      "name": "getOwners",
      "outputs": [
        {
          "internalType": "address[]",
          "name": "",
          "type": "address[]"
        }
      ],
      "stateMutability": "view",
      "type": "function",
      "constant": true
    },
    {
      "inputs": [],
      "name": "getReaderList",
      "outputs": [
        {
          "internalType": "address[]",
          "name": "",
          "type": "address[]"
        }
      ],
      "stateMutability": "view",
      "type": "function",
      "constant": true
    },
    {
      "inputs": [],
      "name": "getWriterList",
      "outputs": [
        {
          "internalType": "address[]",
          "name": "",
          "type": "address[]"
        }
      ],
      "stateMutability": "view",
      "type": "function",
      "constant": true
    },
    {
      "inputs": [
        {
          "internalType": "address",
          "name": "spender",
          "type": "address"
        },
        {
          "internalType": "uint256",
          "name": "addedValue",
          "type": "uint256"
        }
      ],
      "name": "increaseAllowance",
      "outputs": [
        {
          "internalType": "bool",
          "name": "",
          "type": "bool"
        }
      ],
      "stateMutability": "nonpayable",
      "type": "function"
    },
    {
      "inputs": [
        {
          "internalType": "address",
          "name": "addr",
          "type": "address"
        }
      ],
      "name": "isOwner",
      "outputs": [
        {
          "internalType": "bool",
          "name": "",
          "type": "bool"
        }
      ],
      "stateMutability": "view",
      "type": "function",
      "constant": true
    },
    {
      "inputs": [
        {
          "internalType": "address",
          "name": "addr",
          "type": "address"
        }
      ],
      "name": "isWriter",
      "outputs": [
        {
          "internalType": "bool",
          "name": "",
          "type": "bool"
        }
      ],
      "stateMutability": "view",
      "type": "function",
      "constant": true
    },
    {
      "inputs": [],
      "name": "name",
      "outputs": [
        {
          "internalType": "string",
          "name": "",
          "type": "string"
        }
      ],
      "stateMutability": "view",
      "type": "function",
      "constant": true
    },
    {
      "inputs": [
        {
          "internalType": "address",
          "name": "owner",
          "type": "address"
        }
      ],
      "name": "removeOwner",
      "outputs": [],
      "stateMutability": "nonpayable",
      "type": "function"
    },
    {
      "inputs": [
        {
          "internalType": "address",
          "name": "existingReader",
          "type": "address"
        }
      ],
      "name": "removerReader",
      "outputs": [],
      "stateMutability": "nonpayable",
      "type": "function"
    },
    {
      "inputs": [
        {
          "internalType": "address",
          "name": "existingWriter",
          "type": "address"
        }
      ],
      "name": "removerWriter",
      "outputs": [],
      "stateMutability": "nonpayable",
      "type": "function"
    },
    {
      "inputs": [],
      "name": "renounceOwnership",
      "outputs": [],
      "stateMutability": "nonpayable",
      "type": "function"
    },
    {
      "inputs": [],
      "name": "symbol",
      "outputs": [
        {
          "internalType": "string",
          "name": "",
          "type": "string"
        }
      ],
      "stateMutability": "view",
      "type": "function",
      "constant": true
    },
    {
      "inputs": [],
      "name": "totalSupply",
      "outputs": [
        {
          "internalType": "uint256",
          "name": "",
          "type": "uint256"
        }
      ],
      "stateMutability": "view",
      "type": "function",
      "constant": true
    },
    {
      "inputs": [
        {
          "internalType": "address",
          "name": "recipient",
          "type": "address"
        },
        {
          "internalType": "uint256",
          "name": "amount",
          "type": "uint256"
        }
      ],
      "name": "transfer",
      "outputs": [
        {
          "internalType": "bool",
          "name": "",
          "type": "bool"
        }
      ],
      "stateMutability": "nonpayable",
      "type": "function"
    },
    {
      "inputs": [
        {
          "internalType": "address",
          "name": "sender",
          "type": "address"
        },
        {
          "internalType": "address",
          "name": "recipient",
          "type": "address"
        },
        {
          "internalType": "uint256",
          "name": "amount",
          "type": "uint256"
        }
      ],
      "name": "transferFrom",
      "outputs": [
        {
          "internalType": "bool",
          "name": "",
          "type": "bool"
        }
      ],
      "stateMutability": "nonpayable",
      "type": "function"
    },
    {
      "inputs": [
        {
          "internalType": "address",
          "name": "internalSCAddr",
          "type": "address"
        },
        {
          "internalType": "string",
          "name": "name_",
          "type": "string"
        },
        {
          "internalType": "string",
          "name": "symbol_",
          "type": "string"
        },
        {
          "internalType": "uint256",
          "name": "totalSupply_",
          "type": "uint256"
        },
        {
          "internalType": "uint8",
          "name": "decimals_",
          "type": "uint8"
        },
        {
          "internalType": "address",
          "name": "externalSCAddr",
          "type": "address"
        }
      ],
      "name": "init",
      "outputs": [],
      "stateMutability": "nonpayable",
      "type": "function"
    },
    {
      "inputs": [
        {
          "internalType": "string",
          "name": "name_",
          "type": "string"
        },
        {
          "internalType": "string",
          "name": "symbol_",
          "type": "string"
        },
        {
          "internalType": "uint256",
          "name": "totalSupply_",
          "type": "uint256"
        },
        {
          "internalType": "uint8",
          "name": "decimals_",
          "type": "uint8"
        }
      ],
      "name": "init",
      "outputs": [],
      "stateMutability": "nonpayable",
      "type": "function"
    },
    {
      "inputs": [
        {
          "internalType": "address",
          "name": "account",
          "type": "address"
        },
        {
          "internalType": "uint256",
          "name": "amount",
          "type": "uint256"
        }
      ],
      "name": "mint",
      "outputs": [],
      "stateMutability": "nonpayable",
      "type": "function"
    },
    {
      "inputs": [
        {
          "internalType": "address",
          "name": "account",
          "type": "address"
        },
        {
          "internalType": "uint256",
          "name": "amount",
          "type": "uint256"
        }
      ],
      "name": "burn",
      "outputs": [],
      "stateMutability": "nonpayable",
      "type": "function"
    },
    {
      "inputs": [
        {
          "internalType": "address",
          "name": "dest",
          "type": "address"
        },
        {
          "internalType": "uint256",
          "name": "withdrawAmount",
          "type": "uint256"
        },
        {
          "internalType": "uint256",
          "name": "amountWithFee",
          "type": "uint256"
        }
      ],
      "name": "submitWithdraw",
      "outputs": [],
      "stateMutability": "nonpayable",
      "type": "function"
    },
    {
      "inputs": [
        {
          "internalType": "address",
          "name": "addr",
          "type": "address"
        }
      ],
      "name": "setInternalSCConfigAddress",
      "outputs": [],
      "stateMutability": "nonpayable",
      "type": "function"
    },
    {
      "inputs": [],
      "name": "getInternalSCConfigAddress",
      "outputs": [
        {
          "internalType": "address",
          "name": "",
          "type": "address"
        }
      ],
      "stateMutability": "view",
      "type": "function",
      "constant": true
    },
    {
      "inputs": [
        {
          "internalType": "address",
          "name": "addr",
          "type": "address"
        }
      ],
      "name": "addBlackListDestAddress",
      "outputs": [],
      "stateMutability": "nonpayable",
      "type": "function"
    },
    {
      "inputs": [
        {
          "internalType": "address",
          "name": "addr",
          "type": "address"
        }
      ],
      "name": "removeBlackListDestAddress",
      "outputs": [],
      "stateMutability": "nonpayable",
      "type": "function"
    }
  ],
  "bytecode": "0x608060405260006100176001600160e01b036100ab16565b6001600160a01b0381166000818152600160208190526040808320805460ff191683179055825491820183558280527f290decd9548b62a8d60345a988386fc84ba6bc95484008f6362f93160ef3e56390910180546001600160a01b031916841790555192935090917f8be0079c531659141344cd1fd0a4f28419497f9722a3daafe3b4186f6b6457e0908290a3506100af565b3390565b6135a580620000bf6000396000f3fe608060405234801561001057600080fd5b506004361061021b5760003560e01c806370a0823111610125578063a9304c58116100ad578063dd62ed3e1161007c578063dd62ed3e14610937578063ddc067b914610965578063ddc6f5f61461098b578063ef18374a146109b1578063feb72b30146109b95761021b565b8063a9304c581461089f578063afd8b1d1146108c5578063b8b7aea5146108eb578063da2824a8146109115761021b565b806395d89b41116100f457806395d89b411461080b5780639dc29fac14610813578063a0e67e2b1461083f578063a457c2d714610847578063a9059cbb146108735761021b565b806370a08231146107af578063715018a6146107d55780638145d126146107dd57806385aaed4e146108035761021b565b80632f54bf6e116101a857806340c10f191161017757806340c10f19146105e95780634bbde3e1146106155780634f5b9e851461063257806364cb150a146107635780637065cb48146107895761021b565b80632f54bf6e14610521578063313ce5671461054757806339509351146105655780633a1abfe7146105915761021b565b8063173825d9116101ef578063173825d91461033557806318160ddd1461035b5780631aac36531461037557806323b872dd146104c55780632b29ba23146104fb5761021b565b806280df751461022057806306fdde0314610254578063095ea7b3146102d1578063157277ea14610311575b600080fd5b6102526004803603606081101561023657600080fd5b506001600160a01b0381351690602081013590604001356109df565b005b61025c61175f565b6040805160208082528351818301528351919283929083019185019080838360005b8381101561029657818101518382015260200161027e565b50505050905090810190601f1680156102c35780820380516001836020036101000a031916815260200191505b509250505060405180910390f35b6102fd600480360360408110156102e757600080fd5b506001600160a01b0381351690602001356117f6565b604080519115158252519081900360200190f35b610319611813565b604080516001600160a01b039092168252519081900360200190f35b6102526004803603602081101561034b57600080fd5b50356001600160a01b0316611827565b6103636119ef565b60408051918252519081900360200190f35b610252600480360360c081101561038b57600080fd5b6001600160a01b038235169190810190604081016020820135600160201b8111156103b557600080fd5b8201836020820111156103c757600080fd5b803590602001918460018302840111600160201b831117156103e857600080fd5b91908080601f0160208091040260200160405190810160405280939291908181526020018383808284376000920191909152509295949360208101935035915050600160201b81111561043a57600080fd5b82018360208201111561044c57600080fd5b803590602001918460018302840111600160201b8311171561046d57600080fd5b91908080601f01602080910402602001604051908101604052809392919081815260200183838082843760009201919091525092955050823593505050602081013560ff1690604001356001600160a01b03166119f5565b6102fd600480360360608110156104db57600080fd5b506001600160a01b03813581169160208101359091169060400135611aab565b6102fd6004803603602081101561051157600080fd5b50356001600160a01b0316611b38565b6102fd6004803603602081101561053757600080fd5b50356001600160a01b0316611b56565b61054f611b74565b6040805160ff9092168252519081900360200190f35b6102fd6004803603604081101561057b57600080fd5b506001600160a01b038135169060200135611b7d565b610599611bd1565b60408051602080825283518183015283519192839290830191858101910280838360005b838110156105d55781810151838201526020016105bd565b505050509050019250505060405180910390f35b610252600480360360408110156105ff57600080fd5b506001600160a01b038135169060200135611c32565b6103196004803603602081101561062b57600080fd5b5035611caf565b6102526004803603608081101561064857600080fd5b810190602081018135600160201b81111561066257600080fd5b82018360208201111561067457600080fd5b803590602001918460018302840111600160201b8311171561069557600080fd5b91908080601f0160208091040260200160405190810160405280939291908181526020018383808284376000920191909152509295949360208101935035915050600160201b8111156106e757600080fd5b8201836020820111156106f957600080fd5b803590602001918460018302840111600160201b8311171561071a57600080fd5b91908080601f016020809104026020016040519081016040528093929190818152602001838380828437600092019190915250929550508235935050506020013560ff16611cd6565b6102fd6004803603602081101561077957600080fd5b50356001600160a01b0316611d88565b6102526004803603602081101561079f57600080fd5b50356001600160a01b0316611d9d565b610363600480360360208110156107c557600080fd5b50356001600160a01b0316611f0e565b610252611f29565b610252600480360360208110156107f357600080fd5b50356001600160a01b03166120a6565b6105996122ac565b61025c61230c565b6102526004803603604081101561082957600080fd5b506001600160a01b03813516906020013561236d565b6105996123e6565b6102fd6004803603604081101561085d57600080fd5b506001600160a01b038135169060200135612446565b6102fd6004803603604081101561088957600080fd5b506001600160a01b0381351690602001356124b4565b610363600480360360208110156108b557600080fd5b50356001600160a01b03166124c8565b610252600480360360208110156108db57600080fd5b50356001600160a01b03166124da565b6102526004803603602081101561090157600080fd5b50356001600160a01b031661263c565b6102526004803603602081101561092757600080fd5b50356001600160a01b031661281f565b6103636004803603604081101561094d57600080fd5b506001600160a01b0381358116916020013516612981565b6102526004803603602081101561097b57600080fd5b50356001600160a01b03166129ac565b610252600480360360208110156109a157600080fd5b50356001600160a01b0316612ae9565b610363612cef565b610252600480360360208110156109cf57600080fd5b50356001600160a01b0316612cf5565b6001600160a01b0383166000908152600e6020526040902054839060ff1615610a48576040805162461bcd60e51b8152602060048201526016602482015275426c61636b6c6973742064657374206164647265737360501b604482015290519081900360640190fd5b828211610a9c576040805162461bcd60e51b815260206004820181905260248201527f546f74616c20616d6f756e7420736d616c6c6572207468616e20616d6f756e74604482015290519081900360640190fd5b600083830390506000600b60019054906101000a90046001600160a01b03166001600160a01b031663a0d5de426040518163ffffffff1660e01b815260040160206040518083038186803b158015610af357600080fd5b505afa158015610b07573d6000803e3d6000fd5b505050506040513d6020811015610b1d57600080fd5b505190506001600160a01b038116610b7c576040805162461bcd60e51b815260206004820152601860248201527f57616c6c6574416464726573734d6170206973206e756c6c0000000000000000604482015290519081900360640190fd5b6000600b60019054906101000a90046001600160a01b03166001600160a01b031663a0d5de426040518163ffffffff1660e01b815260040160206040518083038186803b158015610bcc57600080fd5b505afa158015610be0573d6000803e3d6000fd5b505050506040513d6020811015610bf657600080fd5b5051905060006001600160a01b0382166311736df5610c13612d8a565b6040518263ffffffff1660e01b815260040180826001600160a01b03166001600160a01b0316815260200191505060206040518083038186803b158015610c5957600080fd5b505afa158015610c6d573d6000803e3d6000fd5b505050506040513d6020811015610c8357600080fd5b5051905080610cd9576040805162461bcd60e51b815260206004820152601860248201527f57616c6c6574206973206e6f7420726567697374657265640000000000000000604482015290519081900360640190fd5b6201518080836001600160a01b0316636e8c271b610cf5612d8a565b6040518263ffffffff1660e01b815260040180826001600160a01b03166001600160a01b0316815260200191505060206040518083038186803b158015610d3b57600080fd5b505afa158015610d4f573d6000803e3d6000fd5b505050506040513d6020811015610d6557600080fd5b505181610d6e57fe5b0502620151808042050214156110f65786600f6000610d8b612d8a565b6001600160a01b039081168252602082019290925260400160002054600c549201911663c4a5fbf4610dbb61230c565b856001600160a01b0316638a91fcde610dd2612d8a565b604080516001600160e01b031960e085901b1681526001600160a01b0390921660048301526024820181905260086044830152671ade58d3195d995b60c21b6064830152516084808301926000929190829003018186803b158015610e3657600080fd5b505afa158015610e4a573d6000803e3d6000fd5b505050506040513d6000823e601f3d908101601f191682016040526020811015610e7357600080fd5b8101908080516040519392919084600160201b821115610e9257600080fd5b908301906020820185811115610ea757600080fd5b8251600160201b811182820188101715610ec057600080fd5b82525081516020918201929091019080838360005b83811015610eed578181015183820152602001610ed5565b50505050905090810190601f168015610f1a5780820380516001836020036101000a031916815260200191505b506040525050506040518363ffffffff1660e01b8152600401808060200180602001838103835285818151815260200191508051906020019080838360005b83811015610f71578181015183820152602001610f59565b50505050905090810190601f168015610f9e5780820380516001836020036101000a031916815260200191505b50838103825284518152845160209182019186019080838360005b83811015610fd1578181015183820152602001610fb9565b50505050905090810190601f168015610ffe5780820380516001836020036101000a031916815260200191505b5094505050505060206040518083038186803b15801561101d57600080fd5b505afa158015611031573d6000803e3d6000fd5b505050506040513d602081101561104757600080fd5b5051101561109c576040805162461bcd60e51b815260206004820152601c60248201527f657863656564206461696c7920776974686472617720616d6f756e7400000000604482015290519081900360640190fd5b86600f60006110a9612d8a565b6001600160a01b03166001600160a01b031681526020019081526020016000205401600f60006110d7612d8a565b6001600160a01b0316815260208101919091526040016000205561141a565b600c5487906001600160a01b031663c4a5fbf461111161230c565b856001600160a01b0316638a91fcde611128612d8a565b604080516001600160e01b031960e085901b1681526001600160a01b0390921660048301526024820181905260086044830152671ade58d3195d995b60c21b6064830152516084808301926000929190829003018186803b15801561118c57600080fd5b505afa1580156111a0573d6000803e3d6000fd5b505050506040513d6000823e601f3d908101601f1916820160405260208110156111c957600080fd5b8101908080516040519392919084600160201b8211156111e857600080fd5b9083019060208201858111156111fd57600080fd5b8251600160201b81118282018810171561121657600080fd5b82525081516020918201929091019080838360005b8381101561124357818101518382015260200161122b565b50505050905090810190601f1680156112705780820380516001836020036101000a031916815260200191505b506040525050506040518363ffffffff1660e01b8152600401808060200180602001838103835285818151815260200191508051906020019080838360005b838110156112c75781810151838201526020016112af565b50505050905090810190601f1680156112f45780820380516001836020036101000a031916815260200191505b50838103825284518152845160209182019186019080838360005b8381101561132757818101518382015260200161130f565b50505050905090810190601f1680156113545780820380516001836020036101000a031916815260200191505b5094505050505060206040518083038186803b15801561137357600080fd5b505afa158015611387573d6000803e3d6000fd5b505050506040513d602081101561139d57600080fd5b505110156113f2576040805162461bcd60e51b815260206004820152601c60248201527f657863656564206461696c7920776974686472617720616d6f756e7400000000604482015290519081900360640190fd5b86600f60006113ff612d8a565b6001600160a01b031681526020810191909152604001600020555b816001600160a01b0316636939291c611431612d8a565b426040518363ffffffff1660e01b815260040180836001600160a01b03166001600160a01b0316815260200182815260200192505050600060405180830381600087803b15801561148157600080fd5b505af1158015611495573d6000803e3d6000fd5b505050506000600b60019054906101000a90046001600160a01b03166001600160a01b031663419834ac6040518163ffffffff1660e01b815260040160206040518083038186803b1580156114e957600080fd5b505afa1580156114fd573d6000803e3d6000fd5b505050506040513d602081101561151357600080fd5b50519050600061152382876124b4565b9050806115615760405162461bcd60e51b81526004018080602001828103825260228152602001806134976022913960400191505060405180910390fd5b6000600b60019054906101000a90046001600160a01b03166001600160a01b031663cbf1a9ab6040518163ffffffff1660e01b815260040160206040518083038186803b1580156115b157600080fd5b505afa1580156115c5573d6000803e3d6000fd5b505050506040513d60208110156115db57600080fd5b5051905060006115eb828c6124b4565b9050806116295760405162461bcd60e51b81526004018080602001828103825260228152602001806134756022913960400191505060405180910390fd5b816001600160a01b03811663ed0736cc611641612d8a565b8f8f61164b61230c565b8e6040518663ffffffff1660e01b815260040180866001600160a01b03166001600160a01b03168152602001856001600160a01b03166001600160a01b0316815260200184815260200180602001838152602001828103825284818151815260200191508051906020019080838360005b838110156116d45781810151838201526020016116bc565b50505050905090810190601f1680156117015780820380516001836020036101000a031916815260200191505b509650505050505050602060405180830381600087803b15801561172457600080fd5b505af1158015611738573d6000803e3d6000fd5b505050506040513d602081101561174e57600080fd5b505050505050505050505050505050565b60098054604080516020601f60026000196101006001881615020190951694909404938401819004810282018101909252828152606093909290918301828280156117eb5780601f106117c0576101008083540402835291602001916117eb565b820191906000526020600020905b8154815290600101906020018083116117ce57829003601f168201915b505050505090505b90565b600061180a611803612d8a565b8484612d8e565b50600192915050565b600b5461010090046001600160a01b031690565b6000611831612d8a565b6001600160a01b03811660009081526001602081905260409091205491925060ff9091161515146118935760405162461bcd60e51b81526004018080602001828103825260278152602001806134286027913960400191505060405180910390fd5b6001600160a01b038216600090815260016020526040902054829060ff166118ba57600080fd5b6001600160a01b0383166000908152600160205260408120805460ff191690558054905b8181101561198757846001600160a01b0316600082815481106118fd57fe5b6000918252602090912001546001600160a01b0316141561197f576000600183038154811061192857fe5b600091825260208220015481546001600160a01b0390911691908390811061194c57fe5b9060005260206000200160006101000a8154816001600160a01b0302191690836001600160a01b03160217905550611987565b6001016118de565b50600080548061199357fe5b600082815260208120820160001990810180546001600160a01b03191690559091019091556040516001600160a01b038616917f58619076adf5bb0943d100ef88d52d7c3fd691b19d3a9071b555b651fbf418da91a250505050565b60085490565b60006119ff612d8a565b6001600160a01b03811660009081526001602081905260409091205491925060ff909116151514611a615760405162461bcd60e51b81526004018080602001828103825260278152602001806134286027913960400191505060405180910390fd5b611a6d86868686611cd6565b50600b8054610100600160a81b0319166101006001600160a01b0398891602179055600c80546001600160a01b031916919096161790945550505050565b6000611ab8848484612e7a565b611b2e84611ac4612d8a565b611b29856040518060600160405280602881526020016134b9602891396001600160a01b038a16600090815260076020526040812090611b02612d8a565b6001600160a01b03168152602081019190915260400160002054919063ffffffff612fe316565b612d8e565b5060019392505050565b6001600160a01b031660009081526005602052604090205460ff1690565b6001600160a01b031660009081526001602052604090205460ff1690565b600b5460ff1690565b600061180a611b8a612d8a565b84611b298560076000611b9b612d8a565b6001600160a01b03908116825260208083019390935260409182016000908120918c16815292529020549063ffffffff61307a16565b606060048054806020026020016040519081016040528092919081815260200182805480156117eb57602002820191906000526020600020905b81546001600160a01b03168152600190910190602001808311611c0b575050505050905090565b611c3b33611b56565b158015611c5857503360009081526005602052604090205460ff16155b15611ca1576040805162461bcd60e51b81526020600482015260146024820152734f776e6572206f7220777269746572206f6e6c7960601b604482015290519081900360640190fd5b611cab82826130db565b5050565b600d8181548110611cbc57fe5b6000918252602090912001546001600160a01b0316905081565b6000611ce0612d8a565b6001600160a01b03811660009081526001602081905260409091205491925060ff909116151514611d425760405162461bcd60e51b81526004018080602001828103825260278152602001806134286027913960400191505060405180910390fd5b8451611d55906009906020880190613328565b508351611d6990600a906020870190613328565b5050600891909155600b805460ff191660ff9092169190911790555050565b600e6020526000908152604090205460ff1681565b6000611da7612d8a565b6001600160a01b03811660009081526001602081905260409091205491925060ff909116151514611e095760405162461bcd60e51b81526004018080602001828103825260278152602001806134286027913960400191505060405180910390fd5b6001600160a01b038216600090815260016020819052604090912054839160ff90911615151415611e81576040805162461bcd60e51b815260206004820152601b60248201527f4164647265737320616c726561647920697320616e206f776e65720000000000604482015290519081900360640190fd5b6001600160a01b0383166000818152600160208190526040808320805460ff191683179055825491820183558280527f290decd9548b62a8d60345a988386fc84ba6bc95484008f6362f93160ef3e56390910180546001600160a01b03191684179055517f994a936646fe87ffe4f1e469d3d6aa417d6b855598397f323de5b449f765f0c39190a2505050565b6001600160a01b031660009081526006602052604090205490565b6000611f33612d8a565b6001600160a01b03811660009081526001602081905260409091205491925060ff909116151514611f955760405162461bcd60e51b81526004018080602001828103825260278152602001806134286027913960400191505060405180910390fd5b6000611f9f612d8a565b6001600160a01b0381166000908152600160205260408120805460ff191690559091505b6000546000190181101561207457816001600160a01b031660008281548110611fe857fe5b6000918252602090912001546001600160a01b0316141561206c5760008054600019810190811061201557fe5b600091825260208220015481546001600160a01b0390911691908390811061203957fe5b9060005260206000200160006101000a8154816001600160a01b0302191690836001600160a01b03160217905550612074565b600101611fc3565b50600080548061208057fe5b600082815260209020810160001990810180546001600160a01b03191690550190555050565b60006120b0612d8a565b6001600160a01b03811660009081526001602081905260409091205491925060ff9091161515146121125760405162461bcd60e51b81526004018080602001828103825260278152602001806134286027913960400191505060405180910390fd5b6001600160a01b038216600090815260056020526040902054829060ff16612174576040805162461bcd60e51b815260206004820152601060248201526f15dc9a5d195c881b9bdd08195e1a5cdd60821b604482015290519081900360640190fd5b6001600160a01b0383166000908152600560205260408120805460ff19169055600454905b8181101561224457846001600160a01b0316600482815481106121b857fe5b6000918252602090912001546001600160a01b0316141561223c57600460018303815481106121e357fe5b600091825260209091200154600480546001600160a01b03909216918390811061220957fe5b9060005260206000200160006101000a8154816001600160a01b0302191690836001600160a01b03160217905550612244565b600101612199565b50600480548061225057fe5b600082815260208120820160001990810180546001600160a01b03191690559091019091556040516001600160a01b038616917f86e5bbceda94081c32220d685f37cc4e3ea7bb0be2dfbf0cb703579505a5390e91a250505050565b606060028054806020026020016040519081016040528092919081815260200182805480156117eb576020028201919060005260206000209081546001600160a01b03168152600190910190602001808311611c0b575050505050905090565b600a8054604080516020601f60026000196101006001881615020190951694909404938401819004810282018101909252828152606093909290918301828280156117eb5780601f106117c0576101008083540402835291602001916117eb565b61237633611b56565b15801561239357503360009081526005602052604090205460ff16155b156123dc576040805162461bcd60e51b81526020600482015260146024820152734f776e6572206f7220777269746572206f6e6c7960601b604482015290519081900360640190fd5b611cab82826131d9565b606060008054806020026020016040519081016040528092919081815260200182805480156117eb576020028201919060005260206000209081546001600160a01b03168152600190910190602001808311611c0b575050505050905090565b600061180a612453612d8a565b84611b298560405180606001604052806025815260200161354b602591396007600061247d612d8a565b6001600160a01b03908116825260208083019390935260409182016000908120918d1681529252902054919063ffffffff612fe316565b600061180a6124c1612d8a565b8484612e7a565b600f6020526000908152604090205481565b60006124e4612d8a565b6001600160a01b03811660009081526001602081905260409091205491925060ff9091161515146125465760405162461bcd60e51b81526004018080602001828103825260278152602001806134286027913960400191505060405180910390fd5b6001600160a01b038216600090815260036020526040902054829060ff16156125ae576040805162461bcd60e51b815260206004820152601560248201527452656164657220616c72656164792065786973747360581b604482015290519081900360640190fd5b6001600160a01b038316600081815260036020526040808220805460ff1916600190811790915560028054918201815583527f405787fa12a823e0f2b7631cc41b3ba8828b3321ca811111fa75cd3aa3bb5ace0180546001600160a01b03191684179055517fb7724d890d2888af5a3fc456edb667e2c82c4441449ebcac301c618759e4f86d9190a2505050565b6000612646612d8a565b6001600160a01b03811660009081526001602081905260409091205491925060ff9091161515146126a85760405162461bcd60e51b81526004018080602001828103825260278152602001806134286027913960400191505060405180910390fd5b6001600160a01b0382166000908152600e6020526040902054829060ff16612717576040805162461bcd60e51b815260206004820181905260248201527f426c61636b6c69737420646573742061646472657373206e6f7420666f756e64604482015290519081900360640190fd5b600d5460005b818110156127c857846001600160a01b0316600d828154811061273c57fe5b6000918252602090912001546001600160a01b031614156127c057600d600183038154811061276757fe5b600091825260209091200154600d80546001600160a01b03909216918390811061278d57fe5b9060005260206000200160006101000a8154816001600160a01b0302191690836001600160a01b031602179055506127c8565b60010161271d565b50600d8054806127d457fe5b60008281526020808220830160001990810180546001600160a01b03191690559092019092556001600160a01b03959095168152600e90945250506040909120805460ff1916905550565b6000612829612d8a565b6001600160a01b03811660009081526001602081905260409091205491925060ff90911615151461288b5760405162461bcd60e51b81526004018080602001828103825260278152602001806134286027913960400191505060405180910390fd5b6001600160a01b038216600090815260056020526040902054829060ff16156128f3576040805162461bcd60e51b815260206004820152601560248201527457726974657220616c72656164792065786973747360581b604482015290519081900360640190fd5b6001600160a01b038316600081815260056020526040808220805460ff1916600190811790915560048054918201815583527f8a35acfbc15ff81a39ae7d344fd709f28e8600b4aa8c65c6b64bfe7fe36bd19b0180546001600160a01b03191684179055517f6ff3aa2ea7b53070f6d9d07a445d338d89e8edef44250ffa8be19f53910d4a2e9190a2505050565b6001600160a01b03918216600090815260076020908152604080832093909416825291909152205490565b60006129b6612d8a565b6001600160a01b03811660009081526001602081905260409091205491925060ff909116151514612a185760405162461bcd60e51b81526004018080602001828103825260278152602001806134286027913960400191505060405180910390fd5b6001600160a01b0382166000908152600e6020526040902054829060ff1615612a81576040805162461bcd60e51b8152602060048201526016602482015275426c61636b6c6973742064657374206164647265737360501b604482015290519081900360640190fd5b50506001600160a01b03166000818152600e60205260408120805460ff19166001908117909155600d805491820181559091527fd7b6990105719101dabeb77144f2a3385c8033acd3af97e9423a695e81ad1eb50180546001600160a01b0319169091179055565b6000612af3612d8a565b6001600160a01b03811660009081526001602081905260409091205491925060ff909116151514612b555760405162461bcd60e51b81526004018080602001828103825260278152602001806134286027913960400191505060405180910390fd5b6001600160a01b038216600090815260036020526040902054829060ff16612bb7576040805162461bcd60e51b815260206004820152601060248201526f14995859195c881b9bdd08195e1a5cdd60821b604482015290519081900360640190fd5b6001600160a01b0383166000908152600360205260408120805460ff19169055600254905b81811015612c8757846001600160a01b031660028281548110612bfb57fe5b6000918252602090912001546001600160a01b03161415612c7f5760026001830381548110612c2657fe5b600091825260209091200154600280546001600160a01b039092169183908110612c4c57fe5b9060005260206000200160006101000a8154816001600160a01b0302191690836001600160a01b03160217905550612c87565b600101612bdc565b506002805480612c9357fe5b600082815260208120820160001990810180546001600160a01b03191690559091019091556040516001600160a01b038616917fe933431644458f1217f9e93d3e000e03c9bbbe55761046d0985c2e4d157bcbaa91a250505050565b60005490565b6000612cff612d8a565b6001600160a01b03811660009081526001602081905260409091205491925060ff909116151514612d615760405162461bcd60e51b81526004018080602001828103825260278152602001806134286027913960400191505060405180910390fd5b50600b80546001600160a01b0390921661010002610100600160a81b0319909216919091179055565b3390565b6001600160a01b038316612dd35760405162461bcd60e51b81526004018080602001828103825260248152602001806135276024913960400191505060405180910390fd5b6001600160a01b038216612e185760405162461bcd60e51b81526004018080602001828103825260228152602001806134066022913960400191505060405180910390fd5b6001600160a01b03808416600081815260076020908152604080832094871680845294825291829020859055815185815291517f8c5be1e5ebec7d5bd14f71427d1e84f3dd0314c0f7b2291e5b200ac8c7c3b9259281900390910190a3505050565b6001600160a01b038316612ebf5760405162461bcd60e51b81526004018080602001828103825260258152602001806135026025913960400191505060405180910390fd5b6001600160a01b038216612f045760405162461bcd60e51b81526004018080602001828103825260238152602001806133c16023913960400191505060405180910390fd5b612f0f8383836132e1565b612f528160405180606001604052806026815260200161344f602691396001600160a01b038616600090815260066020526040902054919063ffffffff612fe316565b6001600160a01b038085166000908152600660205260408082209390935590841681522054612f87908263ffffffff61307a16565b6001600160a01b0380841660008181526006602090815260409182902094909455805185815290519193928716927fddf252ad1be2c89b69c2b068fc378daa952ba7f163c4a11628f55a4df523b3ef92918290030190a3505050565b600081848411156130725760405162461bcd60e51b81526004018080602001828103825283818151815260200191508051906020019080838360005b8381101561303757818101518382015260200161301f565b50505050905090810190601f1680156130645780820380516001836020036101000a031916815260200191505b509250505060405180910390fd5b505050900390565b6000828201838110156130d4576040805162461bcd60e51b815260206004820152601b60248201527f536166654d6174683a206164646974696f6e206f766572666c6f770000000000604482015290519081900360640190fd5b9392505050565b6001600160a01b038216613136576040805162461bcd60e51b815260206004820152601f60248201527f45524332303a206d696e7420746f20746865207a65726f206164647265737300604482015290519081900360640190fd5b613142600083836132e1565b600854613155908263ffffffff61307a16565b6008556001600160a01b038216600090815260066020526040902054613181908263ffffffff61307a16565b6001600160a01b03831660008181526006602090815260408083209490945583518581529351929391927fddf252ad1be2c89b69c2b068fc378daa952ba7f163c4a11628f55a4df523b3ef9281900390910190a35050565b6001600160a01b03821661321e5760405162461bcd60e51b81526004018080602001828103825260218152602001806134e16021913960400191505060405180910390fd5b61322a826000836132e1565b61326d816040518060600160405280602281526020016133e4602291396001600160a01b038516600090815260066020526040902054919063ffffffff612fe316565b6001600160a01b038316600090815260066020526040902055600854613299908263ffffffff6132e616565b6008556040805182815290516000916001600160a01b038516917fddf252ad1be2c89b69c2b068fc378daa952ba7f163c4a11628f55a4df523b3ef9181900360200190a35050565b505050565b60006130d483836040518060400160405280601e81526020017f536166654d6174683a207375627472616374696f6e206f766572666c6f770000815250612fe3565b828054600181600116156101000203166002900490600052602060002090601f016020900481019282601f1061336957805160ff1916838001178555613396565b82800160010185558215613396579182015b8281111561339657825182559160200191906001019061337b565b506133a29291506133a6565b5090565b6117f391905b808211156133a257600081556001016133ac56fe45524332303a207472616e7366657220746f20746865207a65726f206164647265737345524332303a206275726e20616d6f756e7420657863656564732062616c616e636545524332303a20617070726f766520746f20746865207a65726f20616464726573734f776e61626c653a2063616c6c6572206973206e6f74206f6e65206f6620746865206f776e657245524332303a207472616e7366657220616d6f756e7420657863656564732062616c616e63655472616e7366657220746f20417070726f76616c2057616c6c6574206661696c65645472616e7366657220746f2041646d696e4665652057616c6c6574206661696c656445524332303a207472616e7366657220616d6f756e74206578636565647320616c6c6f77616e636545524332303a206275726e2066726f6d20746865207a65726f206164647265737345524332303a207472616e736665722066726f6d20746865207a65726f206164647265737345524332303a20617070726f76652066726f6d20746865207a65726f206164647265737345524332303a2064656372656173656420616c6c6f77616e63652062656c6f77207a65726fa2646970667358221220c8a2c149f242245202597bd970e4a224dd7d7683d0d0d3adf3c7142a1740b41e64736f6c63430006020033",
  "source": "pragma solidity >=0.6.0 <0.8.0;\n\nimport \"../basic/ERC20.sol\";\nimport \"../../config/InternalSmartContractConfig.sol\";\nimport \"../../wallet/ApprovalWallet.sol\";\nimport \"../../wallet/WalletAddressMap.sol\";\nimport \"../../token/ITokenWithdrawable.sol\";\nimport \"../../token/ITokenMintable.sol\";\nimport \"../../config/ExternalSmartContractConfig.sol\";\n\ncontract  EurusERC20 is ERC20, ITokenWithdrawable, ITokenMintable {\n\n    InternalSmartContractConfig internal internalSCConfig;\n    ExternalSmartContractConfig internal externalSCConfig;\n    \n    address[] public blackListDestAddress;\n    mapping(address => bool) public blackListDestAddressMap;\n\n    mapping(address=>uint256) public dailyWithdrewAmount;\n\n\n    modifier onlyNonBlackListDestAddress(address destAddr){\n        require(!blackListDestAddressMap[destAddr], \"Blacklist dest address\");\n        _;\n    }\n\n        modifier onlyBlackListDestAddress(address destAddr){\n        require(blackListDestAddressMap[destAddr], \"Blacklist dest address not found\");\n        _;\n    }\n\n\n    function init(address internalSCAddr, string memory name_, string memory symbol_, uint256 totalSupply_, uint8 decimals_, address externalSCAddr) public onlyOwner {\n        super.init(name_, symbol_, totalSupply_, decimals_);\n        internalSCConfig = InternalSmartContractConfig(internalSCAddr);\n        externalSCConfig = ExternalSmartContractConfig(externalSCAddr);\n    }\n\n    function mint(address account, uint256 amount) public onlyOwnerOrWriter override{\n    _mint(account, amount);\n    }\n\n    function burn(address account, uint256 amount) public onlyOwnerOrWriter override {\n    _burn(account, amount);\n    }\n\n    function submitWithdraw(address dest, uint256 withdrawAmount, uint256 amountWithFee) public onlyNonBlackListDestAddress(dest) override {\n        require (amountWithFee > withdrawAmount, \"Total amount smaller than amount\");\n        uint256 feeAmount = amountWithFee - withdrawAmount;\n\n        address walletMapAddr = internalSCConfig.getWalletAddressMap();\n        require(walletMapAddr != address(0), \"WalletAddressMap is null\");\n        WalletAddressMap walletAddrMap = WalletAddressMap(internalSCConfig.getWalletAddressMap());\n        bool isExist = walletAddrMap.isWalletAddressExist(_msgSender());\n        require (isExist, \"Wallet is not registered\");\n\n\n        if (int(block.timestamp)/int(86400)*int(86400)==int(walletAddrMap.getLastUpdateTime(_msgSender()))/int(86400)*int(86400)){\n            require(externalSCConfig.getCurrencyKycLimit(symbol(),walletAddrMap.getWalletInfoValue(_msgSender(), \"kycLevel\"))>=dailyWithdrewAmount[_msgSender()]+withdrawAmount, \"exceed daily withdraw amount\");\n            dailyWithdrewAmount[_msgSender()] = dailyWithdrewAmount[_msgSender()]+withdrawAmount;\n        }else{\n            require(externalSCConfig.getCurrencyKycLimit(symbol(),walletAddrMap.getWalletInfoValue(_msgSender(), \"kycLevel\"))>=withdrawAmount, \"exceed daily withdraw amount\");\n            dailyWithdrewAmount[_msgSender()] = withdrawAmount;\n        }\n        walletAddrMap.setLastUpdateTime(_msgSender(), int256(block.timestamp));\n\n\n        address adminFeeWalletAddr =  internalSCConfig.getAdminFeeWalletAddress();\n        bool adminFeeIsSuccess = transfer(adminFeeWalletAddr, feeAmount);\n        require (adminFeeIsSuccess, \"Transfer to AdminFee Wallet failed\");\n\n        address approvalWalletAddr =  internalSCConfig.getApprovalWalletAddress();\n        bool isSuccess = transfer(approvalWalletAddr, withdrawAmount);\n        require (isSuccess, \"Transfer to Approval Wallet failed\");\n        ApprovalWallet approvalWallet = ApprovalWallet(payable(approvalWalletAddr));\n        approvalWallet.submitWithdrawRequest(_msgSender(), dest, withdrawAmount, symbol(),feeAmount);\n    }\n\n    function setInternalSCConfigAddress(address addr) public \n        onlyOwner{\n            internalSCConfig = InternalSmartContractConfig(addr);\n            \n    }\n\n    function getInternalSCConfigAddress() public view returns(address){\n        return address(internalSCConfig);\n    }\n\n    function addBlackListDestAddress(address addr) public onlyOwner onlyNonBlackListDestAddress(addr) {\n        blackListDestAddressMap[addr] = true;\n        blackListDestAddress.push(addr);\n    }\n\n    function removeBlackListDestAddress(address addr) public onlyOwner onlyBlackListDestAddress(addr) {\n\n        uint256 len = blackListDestAddress.length;\n        for (uint256 i = 0 ; i < len; i++){\n            if (blackListDestAddress[i] == addr){\n                blackListDestAddress[i] = blackListDestAddress[len - 1] ;\n                break;\n            }\n        }\n        blackListDestAddress.pop();\n        blackListDestAddressMap[addr] = false;\n    }\n}",
  "sourcePath": "/Users/duncanto/Documents/WorkingSet2/src/eurus-backend/smartcontract/contracts/erc20/extend/EurusERC20.sol",
  "compiler": {
    "name": "solc",
    "version": "0.6.2+commit.bacdbe57.Emscripten.clang"
  },
  "schemaVersion": "3.4.1",
  "updatedAt": "2021-06-18T10:04:19.340Z",
  "networkType": "ethereum",
  "devdoc": {
    "methods": {
      "allowance(address,address)": {
        "details": "See {IERC20-allowance}."
      },
      "approve(address,uint256)": {
        "details": "See {IERC20-approve}.     * Requirements:     * - `spender` cannot be the zero address."
      },
      "balanceOf(address)": {
        "details": "See {IERC20-balanceOf}."
      },
      "decimals()": {
        "details": "Returns the number of decimals used to get its user representation. For example, if `decimals` equals `2`, a balance of `505` tokens should be displayed to a user as `5,05` (`505 / 10 ** 2`).     * Tokens usually opt for a value of 18, imitating the relationship between Ether and Wei. This is the value {ERC20} uses, unless {_setupDecimals} is called.     * NOTE: This information is only used for _display_ purposes: it in no way affects any of the arithmetic of the contract, including {IERC20-balanceOf} and {IERC20-transfer}."
      },
      "decreaseAllowance(address,uint256)": {
        "details": "Atomically decreases the allowance granted to `spender` by the caller.     * This is an alternative to {approve} that can be used as a mitigation for problems described in {IERC20-approve}.     * Emits an {Approval} event indicating the updated allowance.     * Requirements:     * - `spender` cannot be the zero address. - `spender` must have allowance for the caller of at least `subtractedValue`."
      },
      "increaseAllowance(address,uint256)": {
        "details": "Atomically increases the allowance granted to `spender` by the caller.     * This is an alternative to {approve} that can be used as a mitigation for problems described in {IERC20-approve}.     * Emits an {Approval} event indicating the updated allowance.     * Requirements:     * - `spender` cannot be the zero address."
      },
      "name()": {
        "details": "Returns the name of the token."
      },
      "renounceOwnership()": {
        "details": "Leaves the contract without owner. It will not be possible to call `onlyOwner` functions anymore. Can only be called by the current owner.     * NOTE: Renouncing ownership will leave the contract without an owner, thereby removing any functionality that is only available to the owner."
      },
      "symbol()": {
        "details": "Returns the symbol of the token, usually a shorter version of the name."
      },
      "totalSupply()": {
        "details": "See {IERC20-totalSupply}."
      },
      "transfer(address,uint256)": {
        "details": "See {IERC20-transfer}.     * Requirements:     * - `recipient` cannot be the zero address. - the caller must have a balance of at least `amount`."
      },
      "transferFrom(address,address,uint256)": {
        "details": "See {IERC20-transferFrom}.     * Emits an {Approval} event indicating the updated allowance. This is not required by the EIP. See the note at the beginning of {ERC20}.     * Requirements:     * - `sender` and `recipient` cannot be the zero address. - `sender` must have a balance of at least `amount`. - the caller must have allowance for ``sender``'s tokens of at least `amount`."
      }
    }
  },
  "userdoc": {
    "methods": {}
  }
}