{
  "contractName": "UserWallet",
  "abi": [
    {
      "inputs": [],
      "stateMutability": "nonpayable",
      "type": "constructor"
    },
    {
      "anonymous": false,
      "inputs": [
        {
          "indexed": true,
          "internalType": "address",
          "name": "sender",
          "type": "address"
        },
        {
          "indexed": true,
          "internalType": "uint256",
          "name": "transactionId",
          "type": "uint256"
        }
      ],
      "name": "Confirmation",
      "type": "event"
    },
    {
      "anonymous": false,
      "inputs": [
        {
          "indexed": true,
          "internalType": "address",
          "name": "sender",
          "type": "address"
        },
        {
          "indexed": false,
          "internalType": "uint256",
          "name": "value",
          "type": "uint256"
        }
      ],
      "name": "Deposit",
      "type": "event"
    },
    {
      "anonymous": false,
      "inputs": [
        {
          "indexed": false,
          "internalType": "string",
          "name": "",
          "type": "string"
        }
      ],
      "name": "Event",
      "type": "event"
    },
    {
      "anonymous": false,
      "inputs": [
        {
          "indexed": true,
          "internalType": "uint256",
          "name": "transactionId",
          "type": "uint256"
        }
      ],
      "name": "Execution",
      "type": "event"
    },
    {
      "anonymous": false,
      "inputs": [
        {
          "indexed": true,
          "internalType": "uint256",
          "name": "transactionId",
          "type": "uint256"
        }
      ],
      "name": "ExecutionFailure",
      "type": "event"
    },
    {
      "anonymous": false,
      "inputs": [
        {
          "indexed": true,
          "internalType": "address",
          "name": "owner",
          "type": "address"
        }
      ],
      "name": "OwnerAdded",
      "type": "event"
    },
    {
      "anonymous": false,
      "inputs": [
        {
          "indexed": true,
          "internalType": "address",
          "name": "owner",
          "type": "address"
        }
      ],
      "name": "OwnerRemoved",
      "type": "event"
    },
    {
      "anonymous": false,
      "inputs": [
        {
          "indexed": true,
          "internalType": "address",
          "name": "previousOwner",
          "type": "address"
        },
        {
          "indexed": true,
          "internalType": "address",
          "name": "newOwner",
          "type": "address"
        }
      ],
      "name": "OwnershipTransferred",
      "type": "event"
    },
    {
      "anonymous": false,
      "inputs": [
        {
          "indexed": true,
          "internalType": "address",
          "name": "reader",
          "type": "address"
        }
      ],
      "name": "ReaderAdded",
      "type": "event"
    },
    {
      "anonymous": false,
      "inputs": [
        {
          "indexed": true,
          "internalType": "address",
          "name": "reader",
          "type": "address"
        }
      ],
      "name": "ReaderRemoved",
      "type": "event"
    },
    {
      "anonymous": false,
      "inputs": [
        {
          "indexed": true,
          "internalType": "address",
          "name": "sender",
          "type": "address"
        },
        {
          "indexed": true,
          "internalType": "uint256",
          "name": "transactionId",
          "type": "uint256"
        }
      ],
      "name": "Rejection",
      "type": "event"
    },
    {
      "anonymous": false,
      "inputs": [
        {
          "indexed": false,
          "internalType": "uint256",
          "name": "required",
          "type": "uint256"
        }
      ],
      "name": "RequirementChange",
      "type": "event"
    },
    {
      "anonymous": false,
      "inputs": [
        {
          "indexed": true,
          "internalType": "address",
          "name": "sender",
          "type": "address"
        },
        {
          "indexed": true,
          "internalType": "uint256",
          "name": "transactionId",
          "type": "uint256"
        }
      ],
      "name": "Revocation",
      "type": "event"
    },
    {
      "anonymous": false,
      "inputs": [
        {
          "indexed": true,
          "internalType": "uint256",
          "name": "transactionId",
          "type": "uint256"
        }
      ],
      "name": "Submission",
      "type": "event"
    },
    {
      "anonymous": false,
      "inputs": [
        {
          "indexed": true,
          "internalType": "address",
          "name": "dest",
          "type": "address"
        },
        {
          "indexed": true,
          "internalType": "uint256",
          "name": "targetGasWei",
          "type": "uint256"
        },
        {
          "indexed": true,
          "internalType": "uint256",
          "name": "gasTransferred",
          "type": "uint256"
        }
      ],
      "name": "TopUpPaymentWalletEvent",
      "type": "event"
    },
    {
      "anonymous": false,
      "inputs": [
        {
          "indexed": true,
          "internalType": "uint256",
          "name": "transactionId",
          "type": "uint256"
        },
        {
          "indexed": true,
          "internalType": "address",
          "name": "dest",
          "type": "address"
        },
        {
          "indexed": false,
          "internalType": "string",
          "name": "assetName",
          "type": "string"
        },
        {
          "indexed": true,
          "internalType": "uint256",
          "name": "amount",
          "type": "uint256"
        }
      ],
      "name": "TransferEvent",
      "type": "event"
    },
    {
      "anonymous": false,
      "inputs": [
        {
          "indexed": true,
          "internalType": "uint256",
          "name": "transactionId",
          "type": "uint256"
        },
        {
          "indexed": true,
          "internalType": "address",
          "name": "dest",
          "type": "address"
        },
        {
          "indexed": false,
          "internalType": "string",
          "name": "assetName",
          "type": "string"
        },
        {
          "indexed": false,
          "internalType": "uint256",
          "name": "amount",
          "type": "uint256"
        }
      ],
      "name": "TransferRequestEvent",
      "type": "event"
    },
    {
      "anonymous": false,
      "inputs": [
        {
          "indexed": true,
          "internalType": "address",
          "name": "dest",
          "type": "address"
        },
        {
          "indexed": true,
          "internalType": "uint256",
          "name": "withdrawAmount",
          "type": "uint256"
        },
        {
          "indexed": false,
          "internalType": "string",
          "name": "assetName",
          "type": "string"
        },
        {
          "indexed": false,
          "internalType": "uint256",
          "name": "amountWithFee",
          "type": "uint256"
        }
      ],
      "name": "WithdrawRequestEvent",
      "type": "event"
    },
    {
      "anonymous": false,
      "inputs": [
        {
          "indexed": true,
          "internalType": "address",
          "name": "writer",
          "type": "address"
        }
      ],
      "name": "WriterAdded",
      "type": "event"
    },
    {
      "anonymous": false,
      "inputs": [
        {
          "indexed": true,
          "internalType": "address",
          "name": "writer",
          "type": "address"
        }
      ],
      "name": "WriterRemoved",
      "type": "event"
    },
    {
      "inputs": [],
      "name": "MAX_OWNER_COUNT",
      "outputs": [
        {
          "internalType": "uint256",
          "name": "",
          "type": "uint256"
        }
      ],
      "stateMutability": "view",
      "type": "function"
    },
    {
      "inputs": [
        {
          "internalType": "uint256",
          "name": "",
          "type": "uint256"
        }
      ],
      "name": "TranList",
      "outputs": [
        {
          "internalType": "uint256",
          "name": "",
          "type": "uint256"
        }
      ],
      "stateMutability": "view",
      "type": "function"
    },
    {
      "inputs": [
        {
          "internalType": "address",
          "name": "newOwner",
          "type": "address"
        }
      ],
      "name": "addOwner",
      "outputs": [],
      "stateMutability": "nonpayable",
      "type": "function"
    },
    {
      "inputs": [
        {
          "internalType": "address",
          "name": "newReader",
          "type": "address"
        }
      ],
      "name": "addReader",
      "outputs": [],
      "stateMutability": "nonpayable",
      "type": "function"
    },
    {
      "inputs": [
        {
          "internalType": "address",
          "name": "operatorAddr",
          "type": "address"
        }
      ],
      "name": "addWalletOperator",
      "outputs": [],
      "stateMutability": "nonpayable",
      "type": "function"
    },
    {
      "inputs": [
        {
          "internalType": "address",
          "name": "newWriter",
          "type": "address"
        }
      ],
      "name": "addWriter",
      "outputs": [],
      "stateMutability": "nonpayable",
      "type": "function"
    },
    {
      "inputs": [
        {
          "internalType": "uint256",
          "name": "_required",
          "type": "uint256"
        }
      ],
      "name": "changeRequirement",
      "outputs": [],
      "stateMutability": "nonpayable",
      "type": "function"
    },
    {
      "inputs": [
        {
          "internalType": "uint256",
          "name": "transactionId",
          "type": "uint256"
        }
      ],
      "name": "confirmTransaction",
      "outputs": [],
      "stateMutability": "nonpayable",
      "type": "function"
    },
    {
      "inputs": [
        {
          "internalType": "uint256",
          "name": "",
          "type": "uint256"
        },
        {
          "internalType": "address",
          "name": "",
          "type": "address"
        }
      ],
      "name": "confirmations",
      "outputs": [
        {
          "internalType": "bool",
          "name": "",
          "type": "bool"
        }
      ],
      "stateMutability": "view",
      "type": "function"
    },
    {
      "inputs": [
        {
          "internalType": "uint256",
          "name": "transactionId",
          "type": "uint256"
        }
      ],
      "name": "getConfirmationCount",
      "outputs": [
        {
          "internalType": "uint256",
          "name": "count",
          "type": "uint256"
        }
      ],
      "stateMutability": "view",
      "type": "function"
    },
    {
      "inputs": [
        {
          "internalType": "uint256",
          "name": "transactionId",
          "type": "uint256"
        }
      ],
      "name": "getConfirmations",
      "outputs": [
        {
          "internalType": "address[]",
          "name": "_confirmations",
          "type": "address[]"
        }
      ],
      "stateMutability": "view",
      "type": "function"
    },
    {
      "inputs": [],
      "name": "getOwnerCount",
      "outputs": [
        {
          "internalType": "uint256",
          "name": "",
          "type": "uint256"
        }
      ],
      "stateMutability": "view",
      "type": "function"
    },
    {
      "inputs": [],
      "name": "getOwners",
      "outputs": [
        {
          "internalType": "address[]",
          "name": "",
          "type": "address[]"
        }
      ],
      "stateMutability": "view",
      "type": "function"
    },
    {
      "inputs": [],
      "name": "getReaderList",
      "outputs": [
        {
          "internalType": "address[]",
          "name": "",
          "type": "address[]"
        }
      ],
      "stateMutability": "view",
      "type": "function"
    },
    {
      "inputs": [
        {
          "internalType": "bool",
          "name": "pending",
          "type": "bool"
        },
        {
          "internalType": "bool",
          "name": "executed",
          "type": "bool"
        }
      ],
      "name": "getTransactionCount",
      "outputs": [
        {
          "internalType": "uint256",
          "name": "count",
          "type": "uint256"
        }
      ],
      "stateMutability": "view",
      "type": "function"
    },
    {
      "inputs": [
        {
          "internalType": "uint256",
          "name": "from",
          "type": "uint256"
        },
        {
          "internalType": "uint256",
          "name": "to",
          "type": "uint256"
        },
        {
          "internalType": "bool",
          "name": "pending",
          "type": "bool"
        },
        {
          "internalType": "bool",
          "name": "executed",
          "type": "bool"
        }
      ],
      "name": "getTransactionIds",
      "outputs": [
        {
          "internalType": "uint256[]",
          "name": "_transactionIds",
          "type": "uint256[]"
        }
      ],
      "stateMutability": "view",
      "type": "function"
    },
    {
      "inputs": [],
      "name": "getWalletOperatorList",
      "outputs": [
        {
          "internalType": "address[]",
          "name": "",
          "type": "address[]"
        }
      ],
      "stateMutability": "view",
      "type": "function"
    },
    {
      "inputs": [],
      "name": "getWalletOwner",
      "outputs": [
        {
          "internalType": "address",
          "name": "",
          "type": "address"
        }
      ],
      "stateMutability": "view",
      "type": "function"
    },
    {
      "inputs": [],
      "name": "getWriterList",
      "outputs": [
        {
          "internalType": "address[]",
          "name": "",
          "type": "address[]"
        }
      ],
      "stateMutability": "view",
      "type": "function"
    },
    {
      "inputs": [
        {
          "internalType": "uint256",
          "name": "transactionId",
          "type": "uint256"
        }
      ],
      "name": "isConfirmed",
      "outputs": [
        {
          "internalType": "bool",
          "name": "",
          "type": "bool"
        }
      ],
      "stateMutability": "view",
      "type": "function"
    },
    {
      "inputs": [
        {
          "internalType": "address",
          "name": "addr",
          "type": "address"
        }
      ],
      "name": "isOwner",
      "outputs": [
        {
          "internalType": "bool",
          "name": "",
          "type": "bool"
        }
      ],
      "stateMutability": "view",
      "type": "function"
    },
    {
      "inputs": [
        {
          "internalType": "uint256",
          "name": "transId",
          "type": "uint256"
        }
      ],
      "name": "isRejected",
      "outputs": [
        {
          "internalType": "bool",
          "name": "",
          "type": "bool"
        }
      ],
      "stateMutability": "view",
      "type": "function"
    },
    {
      "inputs": [
        {
          "internalType": "address",
          "name": "addr",
          "type": "address"
        }
      ],
      "name": "isWriter",
      "outputs": [
        {
          "internalType": "bool",
          "name": "",
          "type": "bool"
        }
      ],
      "stateMutability": "view",
      "type": "function"
    },
    {
      "inputs": [
        {
          "internalType": "uint256",
          "name": "",
          "type": "uint256"
        },
        {
          "internalType": "string",
          "name": "",
          "type": "string"
        }
      ],
      "name": "miscellaneousData",
      "outputs": [
        {
          "internalType": "string",
          "name": "",
          "type": "string"
        }
      ],
      "stateMutability": "view",
      "type": "function"
    },
    {
      "inputs": [
        {
          "internalType": "uint256",
          "name": "transId",
          "type": "uint256"
        }
      ],
      "name": "rejectTransaction",
      "outputs": [],
      "stateMutability": "nonpayable",
      "type": "function"
    },
    {
      "inputs": [
        {
          "internalType": "address",
          "name": "owner",
          "type": "address"
        }
      ],
      "name": "removeOwner",
      "outputs": [],
      "stateMutability": "nonpayable",
      "type": "function"
    },
    {
      "inputs": [
        {
          "internalType": "address",
          "name": "operatorAddr",
          "type": "address"
        }
      ],
      "name": "removeWalletOperator",
      "outputs": [],
      "stateMutability": "nonpayable",
      "type": "function"
    },
    {
      "inputs": [
        {
          "internalType": "address",
          "name": "existingReader",
          "type": "address"
        }
      ],
      "name": "removerReader",
      "outputs": [],
      "stateMutability": "nonpayable",
      "type": "function"
    },
    {
      "inputs": [
        {
          "internalType": "address",
          "name": "existingWriter",
          "type": "address"
        }
      ],
      "name": "removerWriter",
      "outputs": [],
      "stateMutability": "nonpayable",
      "type": "function"
    },
    {
      "inputs": [],
      "name": "renounceOwnership",
      "outputs": [],
      "stateMutability": "nonpayable",
      "type": "function"
    },
    {
      "inputs": [],
      "name": "required",
      "outputs": [
        {
          "internalType": "uint256",
          "name": "",
          "type": "uint256"
        }
      ],
      "stateMutability": "view",
      "type": "function"
    },
    {
      "inputs": [
        {
          "internalType": "uint256",
          "name": "transactionId",
          "type": "uint256"
        }
      ],
      "name": "revokeConfirmation",
      "outputs": [],
      "stateMutability": "nonpayable",
      "type": "function"
    },
    {
      "inputs": [
        {
          "internalType": "address",
          "name": "addr",
          "type": "address"
        }
      ],
      "name": "setWalletOwner",
      "outputs": [],
      "stateMutability": "nonpayable",
      "type": "function"
    },
    {
      "inputs": [
        {
          "internalType": "address",
          "name": "a",
          "type": "address"
        }
      ],
      "name": "toBytes",
      "outputs": [
        {
          "internalType": "bytes",
          "name": "",
          "type": "bytes"
        }
      ],
      "stateMutability": "pure",
      "type": "function"
    },
    {
      "inputs": [],
      "name": "transactionCount",
      "outputs": [
        {
          "internalType": "uint256",
          "name": "",
          "type": "uint256"
        }
      ],
      "stateMutability": "view",
      "type": "function"
    },
    {
      "inputs": [
        {
          "internalType": "uint256",
          "name": "",
          "type": "uint256"
        }
      ],
      "name": "transactions",
      "outputs": [
        {
          "internalType": "uint256",
          "name": "transId",
          "type": "uint256"
        },
        {
          "internalType": "bool",
          "name": "isDirectInvokeData",
          "type": "bool"
        },
        {
          "internalType": "address",
          "name": "destination",
          "type": "address"
        },
        {
          "internalType": "uint256",
          "name": "value",
          "type": "uint256"
        },
        {
          "internalType": "bytes",
          "name": "data",
          "type": "bytes"
        },
        {
          "internalType": "uint256",
          "name": "timestamp",
          "type": "uint256"
        },
        {
          "internalType": "uint256",
          "name": "blockNumber",
          "type": "uint256"
        },
        {
          "internalType": "bool",
          "name": "executed",
          "type": "bool"
        },
        {
          "internalType": "bool",
          "name": "rejected",
          "type": "bool"
        }
      ],
      "stateMutability": "view",
      "type": "function"
    },
    {
      "inputs": [
        {
          "internalType": "uint256",
          "name": "",
          "type": "uint256"
        }
      ],
      "name": "walletOperatorList",
      "outputs": [
        {
          "internalType": "address",
          "name": "",
          "type": "address"
        }
      ],
      "stateMutability": "view",
      "type": "function"
    },
    {
      "inputs": [],
      "name": "walletOwner",
      "outputs": [
        {
          "internalType": "address",
          "name": "",
          "type": "address"
        }
      ],
      "stateMutability": "view",
      "type": "function"
    },
    {
      "stateMutability": "payable",
      "type": "receive"
    },
    {
      "inputs": [
        {
          "internalType": "address",
          "name": "addr",
          "type": "address"
        }
      ],
      "name": "setInternalSmartContractConfig",
      "outputs": [],
      "stateMutability": "nonpayable",
      "type": "function"
    },
    {
      "inputs": [
        {
          "internalType": "address",
          "name": "dest",
          "type": "address"
        },
        {
          "internalType": "string",
          "name": "assetName",
          "type": "string"
        },
        {
          "internalType": "uint256",
          "name": "amount",
          "type": "uint256"
        }
      ],
      "name": "requestTransfer",
      "outputs": [],
      "stateMutability": "nonpayable",
      "type": "function"
    },
    {
      "inputs": [],
      "name": "getGasFeeWalletAddress",
      "outputs": [
        {
          "internalType": "address",
          "name": "",
          "type": "address"
        }
      ],
      "stateMutability": "view",
      "type": "function"
    },
    {
      "inputs": [
        {
          "internalType": "bytes32",
          "name": "hash",
          "type": "bytes32"
        },
        {
          "internalType": "bytes",
          "name": "signature",
          "type": "bytes"
        }
      ],
      "name": "verifySignature",
      "outputs": [
        {
          "internalType": "address",
          "name": "",
          "type": "address"
        }
      ],
      "stateMutability": "pure",
      "type": "function"
    },
    {
      "inputs": [
        {
          "internalType": "address",
          "name": "dest",
          "type": "address"
        },
        {
          "internalType": "uint256",
          "name": "withdrawAmount",
          "type": "uint256"
        },
        {
          "internalType": "uint256",
          "name": "amountWithFee",
          "type": "uint256"
        },
        {
          "internalType": "string",
          "name": "assetName",
          "type": "string"
        }
      ],
      "name": "submitWithdraw",
      "outputs": [],
      "stateMutability": "nonpayable",
      "type": "function"
    },
    {
      "inputs": [
        {
          "internalType": "uint256",
          "name": "targetGasWei",
          "type": "uint256"
        },
        {
          "internalType": "uint256",
          "name": "gasLimit",
          "type": "uint256"
        }
      ],
      "name": "directTopUpPaymentWallet",
      "outputs": [],
      "stateMutability": "nonpayable",
      "type": "function"
    },
    {
      "inputs": [
        {
          "internalType": "address",
          "name": "paymentWalletAddr",
          "type": "address"
        },
        {
          "internalType": "uint256",
          "name": "targetGasWei",
          "type": "uint256"
        },
        {
          "internalType": "bytes",
          "name": "signature",
          "type": "bytes"
        }
      ],
      "name": "topUpPaymentWallet",
      "outputs": [],
      "stateMutability": "nonpayable",
      "type": "function"
    },
    {
      "inputs": [],
      "name": "getWalletOwnerBalance",
      "outputs": [
        {
          "internalType": "uint256",
          "name": "",
          "type": "uint256"
        }
      ],
      "stateMutability": "view",
      "type": "function"
    },
    {
      "inputs": [
        {
          "internalType": "address",
          "name": "scAddr",
          "type": "address"
        },
        {
          "internalType": "uint256",
          "name": "eun",
          "type": "uint256"
        },
        {
          "internalType": "bytes",
          "name": "inputArg",
          "type": "bytes"
        }
      ],
      "name": "invokeSmartContract",
      "outputs": [],
      "stateMutability": "nonpayable",
      "type": "function"
    }
  ],
  "bytecode": "0x60806040523480156200001157600080fd5b5060026000620000296001600160e01b03620000ce16565b6001600160a01b0381166000818152600160208190526040808320805460ff191683179055825491820183558280527f290decd9548b62a8d60345a988386fc84ba6bc95484008f6362f93160ef3e56390910180546001600160a01b031916841790555192935090917f8be0079c531659141344cd1fd0a4f28419497f9722a3daafe3b4186f6b6457e0908290a3508080620000c457600080fd5b50600955620000d2565b3390565b61445980620000e26000396000f3fe60806040526004361061028c5760003560e01c806385aaed4e1161015a578063bb7d9fa6116100c1578063daca6f781161007a578063daca6f78146107f3578063dc8452cd14610813578063ddc6f5f614610828578063e426d45c14610848578063ef18374a14610868578063fba8b1e31461087d576102db565b8063bb7d9fa61461073e578063c01a8c841461075e578063ca2760f41461077e578063d3daff241461079e578063d74f8edd146107be578063da2824a8146107d3576102db565b8063a0e67e2b11610113578063a0e67e2b14610687578063a8abe69a1461069c578063afd8b1d1146106c9578063b5dc40c3146106e9578063b77bf60014610709578063ba51a6df1461071e576102db565b806385aaed4e146105c85780638b51d13f146105dd5780639072168c146105fd5780639ace38c21461061d578063a01013f814610652578063a03f691814610667576102db565b80633411c81c116101fe578063702d5bd2116101b7578063702d5bd2146105295780637065cb481461053e578063715018a61461055e578063755765ab14610573578063784547a7146105885780638145d126146105a8576102db565b80633411c81c146104655780633a1abfe71461048557806354741525146104a7578063593b79fe146104d45780635ce4e93d146104f4578063685725f314610514576102db565b80631ae879e8116102505780631ae879e8146103965780631c95b98c146103b85780631e556d90146103e557806320ea8d86146104055780632b29ba23146104255780632f54bf6e14610445576102db565b806305bf37aa146102e057806308b8533714610300578063098f076e14610320578063173825d91461035657806318a5a6ce14610376576102db565b366102db5734156102d957336001600160a01b03167fe1fffcc4923d04b559f4d29a8bfc6cda04eb5b0d3c460751c2402c5c5cc9109c346040516102d09190614362565b60405180910390a25b005b600080fd5b3480156102ec57600080fd5b506102d96102fb3660046138c3565b61089d565b34801561030c57600080fd5b506102d961031b366004613772565b6109f6565b34801561032c57600080fd5b5061034061033b3660046138c3565b610add565b60405161034d9190613ac8565b60405180910390f35b34801561036257600080fd5b506102d96103713660046136e3565b610afe565b34801561038257600080fd5b506102d9610391366004613772565b610ca7565b3480156103a257600080fd5b506103ab610d0d565b60405161034d91906139f5565b3480156103c457600080fd5b506103d86103d336600461387e565b610d1c565b60405161034d9190613af1565b3480156103f157600080fd5b506102d96104003660046136e3565b610dce565b34801561041157600080fd5b506102d96104203660046138c3565b610f80565b34801561043157600080fd5b506103406104403660046136e3565b6110c4565b34801561045157600080fd5b506103406104603660046136e3565b6110e2565b34801561047157600080fd5b506103406104803660046138f3565b611100565b34801561049157600080fd5b5061049a611120565b60405161034d9190613a43565b3480156104b357600080fd5b506104c76104c2366004613846565b611183565b60405161034d9190614362565b3480156104e057600080fd5b506103d86104ef3660046136e3565b6111f1565b34801561050057600080fd5b506102d961050f3660046136e3565b61121a565b34801561052057600080fd5b506103ab61130f565b34801561053557600080fd5b506104c7611391565b34801561054a57600080fd5b506102d96105593660046136e3565b6113a1565b34801561056a57600080fd5b506102d96114be565b34801561057f57600080fd5b506103ab61161c565b34801561059457600080fd5b506103406105a33660046138c3565b61162b565b3480156105b457600080fd5b506102d96105c33660046136e3565b6116b4565b3480156105d457600080fd5b5061049a611873565b3480156105e957600080fd5b506104c76105f83660046138c3565b6118d3565b34801561060957600080fd5b506102d9610618366004613917565b611942565b34801561062957600080fd5b5061063d6106383660046138c3565b611986565b60405161034d9998979695949392919061436b565b34801561065e57600080fd5b5061049a611a6d565b34801561067357600080fd5b506102d96106823660046137c9565b611acd565b34801561069357600080fd5b5061049a611cc1565b3480156106a857600080fd5b506106bc6106b7366004613938565b611d21565b60405161034d9190613a90565b3480156106d557600080fd5b506102d96106e43660046136e3565b611e4e565b3480156106f557600080fd5b5061049a6107043660046138c3565b611f64565b34801561071557600080fd5b506104c76120db565b34801561072a57600080fd5b506102d96107393660046138c3565b6120e1565b34801561074a57600080fd5b506102d96107593660046136e3565b61217b565b34801561076a57600080fd5b506102d96107793660046138c3565b6121eb565b34801561078a57600080fd5b506102d96107993660046136e3565b612345565b3480156107aa57600080fd5b506104c76107b93660046138c3565b612442565b3480156107ca57600080fd5b506104c7612460565b3480156107df57600080fd5b506102d96107ee3660046136e3565b612465565b3480156107ff57600080fd5b506103ab61080e36600461387e565b61257b565b34801561081f57600080fd5b506104c7612590565b34801561083457600080fd5b506102d96108433660046136e3565b612596565b34801561085457600080fd5b506102d961086336600461371b565b612755565b34801561087457600080fd5b506104c7612aaa565b34801561088957600080fd5b506103ab6108983660046138c3565b612ab0565b336000908152600d602052604090205460ff161515600114806108ca5750600b546001600160a01b031633145b6108ef5760405162461bcd60e51b81526004016108e690613b55565b60405180910390fd5b600081815260066020526040902060010154819061010090046001600160a01b031661092d5760405162461bcd60e51b81526004016108e690613fc9565b60008281526007602090815260408083203380855292529091205483919060ff161561096b5760405162461bcd60e51b81526004016108e690613f79565b600084815260066020819052604090912001548490610100900460ff16156109a55760405162461bcd60e51b81526004016108e69061429c565b6000858152600660208190526040808320909101805461ff00191661010017905551869133917f310fda14a1b3763badba87b2ca73948d00cc14d8fa2d6ee19a67ac90fa9afa679190a35050505050565b6109fe612ad7565b6001600160a01b03811660009081526005602052604090205460ff16610a365760405162461bcd60e51b81526004016108e690614196565b600b546001600160a01b03858116911614610a635760405162461bcd60e51b81526004016108e690613bb2565b600084604051602001610a7691906139f5565b6040516020818303038152906040528051906020012090506000610a9a828561257b565b600b549091506001600160a01b03808316911614610aca5760405162461bcd60e51b81526004016108e69061400e565b610ad5856000612adb565b505050505050565b60008181526006602081905260409091200154610100900460ff165b919050565b6000610b08612ad7565b6001600160a01b03811660009081526001602081905260409091205491925060ff909116151514610b4b5760405162461bcd60e51b81526004016108e690613ce4565b6001600160a01b038216600090815260016020526040902054829060ff16610b7257600080fd5b6001600160a01b0383166000908152600160205260408120805460ff191690558054905b81811015610c3f57846001600160a01b031660008281548110610bb557fe5b6000918252602090912001546001600160a01b03161415610c375760006001830381548110610be057fe5b600091825260208220015481546001600160a01b03909116919083908110610c0457fe5b9060005260206000200160006101000a8154816001600160a01b0302191690836001600160a01b03160217905550610c3f565b600101610b96565b506000805480610c4b57fe5b600082815260208120820160001990810180546001600160a01b03191690559091019091556040516001600160a01b038616917f58619076adf5bb0943d100ef88d52d7c3fd691b19d3a9071b555b651fbf418da91a250505050565b610caf612ad7565b600b546001600160a01b03828116911614610cdc5760405162461bcd60e51b81526004016108e690613c3b565b6020820182516000808284888a5af13d92506040519150826000833e818301604052808015610d09578383f35b8383fd5b600b546001600160a01b031681565b60086020908152600092835260409283902082518084018301805192815290830193830193909320925281548351601f6002600019610100600186161502019093169290920491820183900483028101830190945280845290830182828015610dc65780601f10610d9b57610100808354040283529160200191610dc6565b820191906000526020600020905b815481529060010190602001808311610da957829003601f168201915b505050505081565b6000610dd8612ad7565b6001600160a01b03811660009081526001602081905260409091205491925060ff909116151514610e1b5760405162461bcd60e51b81526004016108e690613ce4565b600b5482906001600160a01b0380831691161415610e4b5760405162461bcd60e51b81526004016108e6906140b8565b600b546001600160a01b0384811691161415610e795760405162461bcd60e51b81526004016108e690613de5565b6001600160a01b0383166000908152600d60205260408120805460ff19169055600c54905b60018203811015610f4c57846001600160a01b0316600c8281548110610ec057fe5b6000918252602090912001546001600160a01b03161415610f4457600c6001830381548110610eeb57fe5b600091825260209091200154600c80546001600160a01b039092169183908110610f1157fe5b9060005260206000200160006101000a8154816001600160a01b0302191690836001600160a01b03160217905550610f4c565b600101610e9e565b50600c805480610f5857fe5b600082815260209020810160001990810180546001600160a01b031916905501905550505050565b336000908152600d602052604090205460ff16151560011480610fad5750600b546001600160a01b031633145b610fc95760405162461bcd60e51b81526004016108e690613b55565b60008181526007602090815260408083203380855292529091205482919060ff166110065760405162461bcd60e51b81526004016108e690613d2b565b60008381526006602081905260409091200154839060ff161561103b5760405162461bcd60e51b81526004016108e690613e53565b600084815260066020819052604090912001548490610100900460ff16156110755760405162461bcd60e51b81526004016108e69061429c565b6000858152600760209081526040808320338085529252808320805460ff191690555187927ff6a317157440607f36269043eb55f1287a5a19ba2216afeab88cd46cbcfb88e991a35050505050565b6001600160a01b031660009081526005602052604090205460ff1690565b6001600160a01b031660009081526001602052604090205460ff1690565b600760209081526000928352604080842090915290825290205460ff1681565b6060600480548060200260200160405190810160405280929190818152602001828054801561117857602002820191906000526020600020905b81546001600160a01b0316815260019091019060200180831161115a575b505050505090505b90565b6000805b600a548110156111ea578380156111b157506000818152600660208190526040909120015460ff16155b806111d657508280156111d657506000818152600660208190526040909120015460ff165b156111e2576001820191505b600101611187565b5092915050565b60608160405160200161120491906139ad565b6040516020818303038152906040529050919050565b6000611224612ad7565b6001600160a01b03811660009081526001602081905260409091205491925060ff9091161515146112675760405162461bcd60e51b81526004016108e690613ce4565b6001600160a01b0382166000908152600d6020526040902054829060ff161515600114156112a75760405162461bcd60e51b81526004016108e69061406d565b50506001600160a01b03166000818152600d60205260408120805460ff19166001908117909155600c805491820181559091527fdf6966c971051c3d54ec59162606531493a51404a002842f56009d7e5cf4a8c70180546001600160a01b0319169091179055565b600f546040805163685725f360e01b815290516000926001600160a01b03169163685725f3916004808301926020929190829003018186803b15801561135457600080fd5b505afa158015611368573d6000803e3d6000fd5b505050506040513d601f19601f8201168201806040525061138c91908101906136ff565b905090565b600b546001600160a01b03163190565b60006113ab612ad7565b6001600160a01b03811660009081526001602081905260409091205491925060ff9091161515146113ee5760405162461bcd60e51b81526004016108e690613ce4565b6001600160a01b038216600090815260016020819052604090912054839160ff909116151514156114315760405162461bcd60e51b81526004016108e6906140fe565b6001600160a01b0383166000818152600160208190526040808320805460ff191683179055825491820183558280527f290decd9548b62a8d60345a988386fc84ba6bc95484008f6362f93160ef3e56390910180546001600160a01b03191684179055517f994a936646fe87ffe4f1e469d3d6aa417d6b855598397f323de5b449f765f0c39190a2505050565b60006114c8612ad7565b6001600160a01b03811660009081526001602081905260409091205491925060ff90911615151461150b5760405162461bcd60e51b81526004016108e690613ce4565b6000611515612ad7565b6001600160a01b0381166000908152600160205260408120805460ff191690559091505b600054600019018110156115ea57816001600160a01b03166000828154811061155e57fe5b6000918252602090912001546001600160a01b031614156115e25760008054600019810190811061158b57fe5b600091825260208220015481546001600160a01b039091169190839081106115af57fe5b9060005260206000200160006101000a8154816001600160a01b0302191690836001600160a01b031602179055506115ea565b600101611539565b5060008054806115f657fe5b600082815260209020810160001990810180546001600160a01b03191690550190555050565b600b546001600160a01b031690565b600080805b600c548110156116aa576000848152600760205260408120600c80549192918490811061165957fe5b60009182526020808320909101546001600160a01b0316835282019290925260400190205460ff161561168d576001820191505b6009548214156116a257600192505050610af9565b600101611630565b5060009392505050565b60006116be612ad7565b6001600160a01b03811660009081526001602081905260409091205491925060ff9091161515146117015760405162461bcd60e51b81526004016108e690613ce4565b6001600160a01b038216600090815260056020526040902054829060ff1661173b5760405162461bcd60e51b81526004016108e69061416c565b6001600160a01b0383166000908152600560205260408120805460ff19169055600454905b8181101561180b57846001600160a01b03166004828154811061177f57fe5b6000918252602090912001546001600160a01b0316141561180357600460018303815481106117aa57fe5b600091825260209091200154600480546001600160a01b0390921691839081106117d057fe5b9060005260206000200160006101000a8154816001600160a01b0302191690836001600160a01b0316021790555061180b565b600101611760565b50600480548061181757fe5b600082815260208120820160001990810180546001600160a01b03191690559091019091556040516001600160a01b038616917f86e5bbceda94081c32220d685f37cc4e3ea7bb0be2dfbf0cb703579505a5390e91a250505050565b60606002805480602002602001604051908101604052809291908181526020018280548015611178576020028201919060005260206000209081546001600160a01b0316815260019091019060200180831161115a575050505050905090565b6000805b600c5481101561193c576000838152600760205260408120600c80549192918490811061190057fe5b60009182526020808320909101546001600160a01b0316835282019290925260400190205460ff1615611934576001820191505b6001016118d7565b50919050565b61194a612ad7565b600b546001600160a01b038281169116146119775760405162461bcd60e51b81526004016108e690613c3b565b6119818383612adb565b505050565b600660209081526000918252604091829020805460018083015460028085015460038601805489516101009682161587026000190190911693909304601f8101899004890284018901909952888352949760ff841697949093046001600160a01b0316959094909391929091830182828015611a435780601f10611a1857610100808354040283529160200191611a43565b820191906000526020600020905b815481529060010190602001808311611a2657829003601f168201915b50505050600483015460058401546006909401549293909290915060ff8082169161010090041689565b6060600c805480602002602001604051908101604052809291908181526020018280548015611178576020028201919060005260206000209081546001600160a01b0316815260019091019060200180831161115a575050505050905090565b611ad5612ad7565b600b546001600160a01b03828116911614611b025760405162461bcd60e51b81526004016108e690613c3b565b81604051602001611b1391906139ca565b60405160208183030381529060405280519060200120604051602001611b38906139e6565b604051602081830303815290604052805190602001201415611b6c5760405162461bcd60e51b81526004016108e690613c04565b600f546040516303d0a60f60e41b81526000916001600160a01b031690633d0a60f090611b9d908690600401613af1565b60206040518083038186803b158015611bb557600080fd5b505afa158015611bc9573d6000803e3d6000fd5b505050506040513d601f19601f82011682018060405250611bed91908101906136ff565b90506001600160a01b038116611c155760405162461bcd60e51b81526004016108e6906141f2565b6040516280df7560e01b81526001600160a01b038216906280df7590611c4390899089908990600401613a22565b600060405180830381600087803b158015611c5d57600080fd5b505af1158015611c71573d6000803e3d6000fd5b5050505084866001600160a01b03167fb2c4211e53e13dd3e4009d7b06c64f21eee67eab6c5fddf062ee97035e610f018587604051611cb1929190613b04565b60405180910390a3505050505050565b60606000805480602002602001604051908101604052809291908181526020018280548015611178576020028201919060005260206000209081546001600160a01b0316815260019091019060200180831161115a575050505050905090565b606080600a54604051908082528060200260200182016040528015611d50578160200160208202803883390190505b5090506000805b600a54811015611dd357858015611d8157506000818152600660208190526040909120015460ff16155b80611da65750848015611da657506000818152600660208190526040909120015460ff165b15611dcb5780838381518110611db857fe5b6020026020010181815250506001820191505b600101611d57565b878703604051908082528060200260200182016040528015611dff578160200160208202803883390190505b5093508790505b86811015611e4357828181518110611e1a57fe5b60200260200101518489830381518110611e3057fe5b6020908102919091010152600101611e06565b505050949350505050565b6000611e58612ad7565b6001600160a01b03811660009081526001602081905260409091205491925060ff909116151514611e9b5760405162461bcd60e51b81526004016108e690613ce4565b6001600160a01b038216600090815260036020526040902054829060ff1615611ed65760405162461bcd60e51b81526004016108e690613b26565b6001600160a01b038316600081815260036020526040808220805460ff1916600190811790915560028054918201815583527f405787fa12a823e0f2b7631cc41b3ba8828b3321ca811111fa75cd3aa3bb5ace0180546001600160a01b03191684179055517fb7724d890d2888af5a3fc456edb667e2c82c4441449ebcac301c618759e4f86d9190a2505050565b606080600c80549050604051908082528060200260200182016040528015611f96578160200160208202803883390190505b5090506000805b600c54811015612059576000858152600760205260408120600c805491929184908110611fc657fe5b60009182526020808320909101546001600160a01b0316835282019290925260400190205460ff161561205157600c818154811061200057fe5b9060005260206000200160009054906101000a90046001600160a01b031683838151811061202a57fe5b60200260200101906001600160a01b031690816001600160a01b0316815250506001820191505b600101611f9d565b81604051908082528060200260200182016040528015612083578160200160208202803883390190505b509350600090505b818110156120d35782818151811061209f57fe5b60200260200101518482815181106120b357fe5b6001600160a01b039092166020928302919091019091015260010161208b565b505050919050565b600a5481565b60006120eb612ad7565b6001600160a01b03811660009081526001602081905260409091205491925060ff90911615151461212e5760405162461bcd60e51b81526004016108e690613ce4565b818061213957600080fd5b60098390556040517fa3f1ee9126a074d9326c682f561767f710e927faa811f7a99829d49dc421797a9061216e908590614362565b60405180910390a1505050565b6000612185612ad7565b6001600160a01b03811660009081526001602081905260409091205491925060ff9091161515146121c85760405162461bcd60e51b81526004016108e690613ce4565b50600f80546001600160a01b0319166001600160a01b0392909216919091179055565b336000908152600d602052604090205460ff161515600114806122185750600b546001600160a01b031633145b6122345760405162461bcd60e51b81526004016108e690613b55565b600081815260066020526040902060010154819061010090046001600160a01b03166122725760405162461bcd60e51b81526004016108e690613fc9565b60008281526007602090815260408083203380855292529091205483919060ff16156122b05760405162461bcd60e51b81526004016108e690613f79565b600084815260066020819052604090912001548490610100900460ff16156122ea5760405162461bcd60e51b81526004016108e69061429c565b6000858152600760209081526040808320338085529252808320805460ff191660011790555187927f4a504a94899432a9846e1aa406dceb1bcfd538bb839071d49d1e5e23f5be30ef91a361233e85612d22565b5050505050565b600061234f612ad7565b6001600160a01b03811660009081526001602081905260409091205491925060ff9091161515146123925760405162461bcd60e51b81526004016108e690613ce4565b600b80546001600160a01b0319166001600160a01b038481169190911791829055166000908152600d602052604090205460ff1661243e57600b80546001600160a01b039081166000908152600d60205260408120805460ff191660019081179091559254600c805494850181559091527fdf6966c971051c3d54ec59162606531493a51404a002842f56009d7e5cf4a8c790920180546001600160a01b031916929091169190911790555b5050565b600e818154811061244f57fe5b600091825260209091200154905081565b603281565b600061246f612ad7565b6001600160a01b03811660009081526001602081905260409091205491925060ff9091161515146124b25760405162461bcd60e51b81526004016108e690613ce4565b6001600160a01b038216600090815260056020526040902054829060ff16156124ed5760405162461bcd60e51b81526004016108e690613c85565b6001600160a01b038316600081815260056020526040808220805460ff1916600190811790915560048054918201815583527f8a35acfbc15ff81a39ae7d344fd709f28e8600b4aa8c65c6b64bfe7fe36bd19b0180546001600160a01b03191684179055517f6ff3aa2ea7b53070f6d9d07a445d338d89e8edef44250ffa8be19f53910d4a2e9190a2505050565b6000806125888484612f8c565b949350505050565b60095481565b60006125a0612ad7565b6001600160a01b03811660009081526001602081905260409091205491925060ff9091161515146125e35760405162461bcd60e51b81526004016108e690613ce4565b6001600160a01b038216600090815260036020526040902054829060ff1661261d5760405162461bcd60e51b81526004016108e6906142e8565b6001600160a01b0383166000908152600360205260408120805460ff19169055600254905b818110156126ed57846001600160a01b03166002828154811061266157fe5b6000918252602090912001546001600160a01b031614156126e5576002600183038154811061268c57fe5b600091825260209091200154600280546001600160a01b0390921691839081106126b257fe5b9060005260206000200160006101000a8154816001600160a01b0302191690836001600160a01b031602179055506126ed565b600101612642565b5060028054806126f957fe5b600082815260208120820160001990810180546001600160a01b03191690559091019091556040516001600160a01b038616917fe933431644458f1217f9e93d3e000e03c9bbbe55761046d0985c2e4d157bcbaa91a250505050565b61275d612ad7565b600b546001600160a01b0382811691161461278a5760405162461bcd60e51b81526004016108e690613c3b565b60405160009081906127a09086906020016139ca565b604051602081830303815290604052805190602001206040516020016127c5906139e6565b6040516020818303038152906040528051906020012014156127e5575060015b8061286d57600f546040516303d0a60f60e41b81526001600160a01b0390911690633d0a60f09061281a908890600401613af1565b60206040518083038186803b15801561283257600080fd5b505afa158015612846573d6000803e3d6000fd5b505050506040513d601f19601f8201168201806040525061286a91908101906136ff565b91505b60006001600160a01b0383161515806128835750815b15612a45576128a2878660405180602001604052806000815250613015565b6000818152600660209081526040808320600101805460ff19169055600882529182902082518084018452600981526861737365744e616d6560b81b92810192909252915192935088926128f691906139ca565b908152602001604051809103902090805190602001906129179291906135cd565b508660405160200161292991906139f5565b60408051601f19818403018152600084815260086020908152908390208484018452600b85526a646573744164647265737360a81b9185019190915291519092612972916139ca565b908152602001604051809103902090805190602001906129939291906135cd565b506000818152600760209081526040808320600b80546001600160a01b03908116865291909352818420805460ff1916600117905591549051849391909216917f4a504a94899432a9846e1aa406dceb1bcfd538bb839071d49d1e5e23f5be30ef9190a360095460011415612a0b57612a0b81612d22565b600e80546001810182556000919091527fbb7b4a454dc3493923482f07822329ed19e8244eff582cc204f8554c3620c3fd01819055612a5d565b60405162461bcd60e51b81526004016108e690614045565b866001600160a01b0316817f7e9451d6674ec8d1cc76b5e994425b317976ae1fdd2bdfa79043fe0349eafc258888604051612a99929190613b04565b60405180910390a350505050505050565b60005490565b600c8181548110612abd57fe5b6000918252602090912001546001600160a01b0316905081565b3390565b600f5460408051636d35204b60e01b815290516000926001600160a01b031691636d35204b916004808301926020929190829003018186803b158015612b2057600080fd5b505afa158015612b34573d6000803e3d6000fd5b505050506040513d601f19601f82011682018060405250612b5891908101906136ff565b9050806001600160a01b031663afb29f346040518163ffffffff1660e01b815260040160206040518083038186803b158015612b9357600080fd5b505afa158015612ba7573d6000803e3d6000fd5b505050506040513d601f19601f82011682018060405250612bcb91908101906138db565b831115612bea5760405162461bcd60e51b81526004016108e6906141bb565b6000816001600160a01b031663cf3a20d16040518163ffffffff1660e01b815260040160206040518083038186803b158015612c2557600080fd5b505afa158015612c39573d6000803e3d6000fd5b505050506040513d601f19601f82011682018060405250612c5d91908101906138db565b90508381026000848302612c6f611391565b019050818110612c915760405162461bcd60e51b81526004016108e690614312565b808203308031821115612cb65760405162461bcd60e51b81526004016108e690614135565b600b54612cd2906001600160a01b03168363ffffffff61317016565b848281612cdb57fe5b600b5460405192909104918a916001600160a01b0316907fb07d3944ef0857b03bd10d699732f28f2b8aae12b80ce74cfd669ab04764b66e90600090a45050505050505050565b60008181526007602090815260408083203380855292529091205482919060ff16612d5f5760405162461bcd60e51b81526004016108e690613d2b565b60008381526006602081905260409091209081015460ff1615612d945760405162461bcd60e51b81526004016108e690613e1c565b612d9d8461162b565b15612f865760068101805460ff1916600117905560008481526008602090815260409182902082518084018452600981526861737365744e616d6560b81b92810192909252915160609291612df1916139ca565b9081526040805160209281900383018120805460026001821615610100026000190190911604601f81018590048502830185019093528282529092909190830182828015612e805780601f10612e5557610100808354040283529160200191612e80565b820191906000526020600020905b815481529060010190602001808311612e6357829003601f168201915b505050505090506000600860008781526020019081526020016000206040518060400160405280600b81526020016a646573744164647265737360a81b815250604051612ecd91906139ca565b9081526040805160209281900383018120805460026001821615610100026000190190911604601f81018590048502830185019093528282529092909190830182828015612f5c5780601f10612f3157610100808354040283529160200191612f5c565b820191906000526020600020905b815481529060010190602001808311612f3f57829003601f168201915b5050505050806020019051612f7491908101906136ff565b9050610ad5868284866002015461320d565b50505050565b60008151604114612faf5760405162461bcd60e51b81526004016108e690613cb4565b60208201516040830151606084015160001a601b811015612fce57601b015b8060ff16601b1480612fe357508060ff16601c145b612fff5760405162461bcd60e51b81526004016108e690613d77565b61300b86828585613376565b9695505050505050565b6000836001600160a01b03811661303e5760405162461bcd60e51b81526004016108e690613dae565b600a546040805161012081018252828152600160208083018281526001600160a01b038b8116858701908152606086018c8152608087018c81524260a08901524360c0890152600060e08901819052610100808a018290528b8252600688529990208851815594519685018054935160ff199490941697151597909717610100600160a81b0319169290931690970217909355935160028501559051805194965091936130f192600385019201906135cd565b5060a0820151600482015560c0820151600582015560e0820151600690910180546101009384015160ff199091169215159290921761ff001916911515909202179055600a8054600101905560405182907fc0ba8fe4b176c1714197d43b9cc6bcf797a4a7461c5fe8d0ef6e184ae7601e5190600090a2509392505050565b30318111156131915760405162461bcd60e51b81526004016108e690613efc565b6000826001600160a01b0316826040516131aa90611180565b60006040518083038185875af1925050503d80600081146131e7576040519150601f19603f3d011682016040523d82523d6000602084013e6131ec565b606091505b50509050806119815760405162461bcd60e51b81526004016108e690613e9f565b8160405160200161321e91906139ca565b60405160208183030381529060405280519060200120604051602001613243906139e6565b60405160208183030381529060405280519060200120141561327d576132786001600160a01b0384168263ffffffff61317016565b61332d565b600f546040516303d0a60f60e41b81526000916001600160a01b031690633d0a60f0906132ae908690600401613af1565b60206040518083038186803b1580156132c657600080fd5b505afa1580156132da573d6000803e3d6000fd5b505050506040513d601f19601f820116820180604052506132fe91908101906136ff565b90506001600160a01b03811615612a45578061332a6001600160a01b038216868563ffffffff6133d316565b50505b80836001600160a01b0316857fa61543263dcff15bea504d1fb6366924a1f7bbbc3aa506602578e84cb3b5cbc3856040516133689190613af1565b60405180910390a450505050565b6000806001868686866040516000815260200160405260405161339c9493929190613ad3565b6020604051602081039080840390855afa1580156133be573d6000803e3d6000fd5b5050604051601f190151979650505050505050565b6119818363a9059cbb60e01b84846040516024016133f2929190613a09565b60408051601f198184030181529190526020810180516001600160e01b03166001600160e01b0319909316929092179091526060613479826040518060400160405280602081526020017f5361666545524332303a206c6f772d6c6576656c2063616c6c206661696c6564815250856001600160a01b03166134b39092919063ffffffff16565b8051909150156119815780806020019051613497919081019061382a565b6119815760405162461bcd60e51b81526004016108e690614252565b60606134c284846000856134cc565b90505b9392505050565b606030318311156134ef5760405162461bcd60e51b81526004016108e690613f33565b6134f88561358e565b6135145760405162461bcd60e51b81526004016108e69061421b565b60006060866001600160a01b0316858760405161353191906139ca565b60006040518083038185875af1925050503d806000811461356e576040519150601f19603f3d011682016040523d82523d6000602084013e613573565b606091505b5091509150613583828286613594565b979650505050505050565b3b151590565b606083156135a35750816134c5565b8251156135b35782518084602001fd5b8160405162461bcd60e51b81526004016108e69190613af1565b828054600181600116156101000203166002900490600052602060002090601f016020900481019282601f1061360e57805160ff191683800117855561363b565b8280016001018555821561363b579182015b8281111561363b578251825591602001919060010190613620565b5061364792915061364b565b5090565b61118091905b808211156136475760008155600101613651565b600082601f830112613675578081fd5b813567ffffffffffffffff8082111561368c578283fd5b604051601f8301601f1916810160200182811182821017156136ac578485fd5b6040528281529250828483016020018610156136c757600080fd5b8260208601602083013760006020848301015250505092915050565b6000602082840312156136f4578081fd5b81356134c5816143fd565b600060208284031215613710578081fd5b81516134c5816143fd565b60008060006060848603121561372f578182fd5b833561373a816143fd565b9250602084013567ffffffffffffffff811115613755578283fd5b61376186828701613665565b925050604084013590509250925092565b600080600060608486031215613786578283fd5b8335613791816143fd565b925060208401359150604084013567ffffffffffffffff8111156137b3578182fd5b6137bf86828701613665565b9150509250925092565b600080600080608085870312156137de578081fd5b84356137e9816143fd565b93506020850135925060408501359150606085013567ffffffffffffffff811115613812578182fd5b61381e87828801613665565b91505092959194509250565b60006020828403121561383b578081fd5b81516134c581614415565b60008060408385031215613858578182fd5b823561386381614415565b9150602083013561387381614415565b809150509250929050565b60008060408385031215613890578182fd5b82359150602083013567ffffffffffffffff8111156138ad578182fd5b6138b985828601613665565b9150509250929050565b6000602082840312156138d4578081fd5b5035919050565b6000602082840312156138ec578081fd5b5051919050565b60008060408385031215613905578182fd5b823591506020830135613873816143fd565b60008060408385031215613929578182fd5b50508035926020909101359150565b6000806000806080858703121561394d578182fd5b8435935060208501359250604085013561396681614415565b9150606085013561397681614415565b939692955090935050565b600081518084526139998160208601602086016143d1565b601f01601f19169290920160200192915050565b60609190911b6bffffffffffffffffffffffff1916815260140190565b600082516139dc8184602087016143d1565b9190910192915050565b6222aaa760e91b815260030190565b6001600160a01b0391909116815260200190565b6001600160a01b03929092168252602082015260400190565b6001600160a01b039390931683526020830191909152604082015260600190565b6020808252825182820181905260009190848201906040850190845b81811015613a845783516001600160a01b031683529284019291840191600101613a5f565b50909695505050505050565b6020808252825182820181905260009190848201906040850190845b81811015613a8457835183529284019291840191600101613aac565b901515815260200190565b93845260ff9290921660208401526040830152606082015260800190565b6000602082526134c56020830184613981565b600060408252613b176040830185613981565b90508260208301529392505050565b60208082526015908201527452656164657220616c72656164792065786973747360581b604082015260600190565b60208082526038908201527f4d756c746953696757616c6c65743a2063616c6c6572206973206e6f74206f6e60408201527f65206f66207468652077616c6c6574206f70657261746f720000000000000000606082015260800190565b60208082526032908201527f5061796d656e742077616c6c65742061646472657373206973206e6f742077616040820152716c6c6574206f776e6572206164647265737360701b606082015260800190565b6020808252601f908201527f45554e206973206e6f7420656c696769626c6520746f20776974686472617700604082015260600190565b6020808252602a908201527f4d756c746953696757616c6c65743a2063616c6c6572206973206e6f74207761604082015269363632ba1037bbb732b960b11b606082015260800190565b60208082526015908201527457726974657220616c72656164792065786973747360581b604082015260600190565b6020808252601690820152750a4cae2ead2e4ca40c6dee4e4cac6e840d8cadccee8d60531b604082015260600190565b60208082526027908201527f4f776e61626c653a2063616c6c6572206973206e6f74206f6e65206f66207468604082015266329037bbb732b960c91b606082015260800190565b6020808252602c908201527f4d756c746953696757616c6c65743a205472616e73616374696f6e206973206e60408201526b1bdd0818dbdb999a5c9b595960a21b606082015260800190565b6020808252601b908201527f5369676e61747572652076657273696f6e206e6f74206d617463680000000000604082015260600190565b6020808252601f908201527f4d756c746953696757616c6c65743a2041646472657373206973206e756c6c00604082015260600190565b6020808252601a908201527f43616e6e6f742072656d6f76652077616c6c6574206f776e6572000000000000604082015260600190565b6020808252601c908201527f5472616e73616374696f6e20616c726561647920657865637574656400000000604082015260600190565b6020808252602c908201527f4d756c746953696757616c6c65743a205472616e73616374696f6e20616c726560408201526b18591e48195e1958dd5d195960a21b606082015260800190565b6020808252603a908201527f416464726573733a20756e61626c6520746f2073656e642076616c75652c207260408201527f6563697069656e74206d61792068617665207265766572746564000000000000606082015260800190565b6020808252601d908201527f416464726573733a20696e73756666696369656e742062616c616e6365000000604082015260600190565b60208082526026908201527f416464726573733a20696e73756666696369656e742062616c616e636520666f6040820152651c8818d85b1b60d21b606082015260800190565b60208082526030908201527f4d756c746953696757616c6c65743a205472616e73616374696f6e206973206160408201526f1b1c9958591e4818dbdb999a5c9b595960821b606082015260800190565b60208082526025908201527f4d756c746953696757616c6c65743a205472616e73616374696f6e206e6f7420604082015264199bdd5b9960da1b606082015260800190565b6020808252601a908201527f53656e646572206973206e6f742077616c6c6574206f776e6572000000000000604082015260600190565b6020808252600e908201526d496e76616c69642061737365742160901b604082015260600190565b6020808252602b908201527f4d756c746953696757616c6c65743a2041646472657373206973206f7065726160408201526a746f7220616c726561647960a81b606082015260800190565b60208082526026908201527f4d756c746953696757616c6c65743a2063616c6c65722069732077616c6c65746040820152651037bbb732b960d11b606082015260800190565b6020808252601b908201527f4164647265737320616c726561647920697320616e206f776e65720000000000604082015260600190565b6020808252601d908201527f45554e206e6f7420656e6f75676820696e20746865206163636f756e74000000604082015260600190565b60208082526010908201526f15dc9a5d195c881b9bdd08195e1a5cdd60821b604082015260600190565b6020808252600b908201526a577269746572206f6e6c7960a81b604082015260600190565b6020808252601d908201527f5461726765742067617320657863656564207570706572206c696d6974000000604082015260600190565b6020808252600f908201526e105cdcd95d081b9bdd08199bdd5b99608a1b604082015260600190565b6020808252601d908201527f416464726573733a2063616c6c20746f206e6f6e2d636f6e7472616374000000604082015260600190565b6020808252602a908201527f5361666545524332303a204552433230206f7065726174696f6e20646964206e6040820152691bdd081cdd58d8d9595960b21b606082015260800190565b6020808252602c908201527f4d756c746953696757616c6c65743a205472616e73616374696f6e20616c726560408201526b18591e481c995a9958dd195960a21b606082015260800190565b60208082526010908201526f14995859195c881b9bdd08195e1a5cdd60821b604082015260600190565b60208082526030908201527f5061796d656e742077616c6c657420686173207468652074617267657420676160408201526f7320616d6f756e7420616c726561647960801b606082015260800190565b90815260200190565b89815288151560208201526001600160a01b038816604082015260608101879052610120608082018190526000906143a583820189613981565b60a0840197909752505060c081019390935290151560e083015215156101009091015295945050505050565b60005b838110156143ec5781810151838201526020016143d4565b83811115612f865750506000910152565b6001600160a01b038116811461441257600080fd5b50565b801515811461441257600080fdfea26469706673582212201d924a90b3286d75829f5f35ece6d3369cb1023b6711d9d6ab84c3e82ffbde3764736f6c63430006020033",
  "source": "pragma solidity >=0.6.0 <0.8.0;\npragma experimental ABIEncoderV2;\n\nimport \"./MultiSigWallet.sol\";\nimport \"../config/InternalSmartContractConfig.sol\";\nimport \"../erc20/basic/ERC20.sol\";\nimport \"../erc20/extend/EurusERC20.sol\";\nimport \"../utils/basic/Address.sol\";\nimport \"../erc20/extend/SafeERC20.sol\";\n\ncontract UserWallet is MultiSigWallet{\n\n    using Address for address payable;\n    using SafeERC20 for ERC20;\n\n    uint[] public TranList;\n    InternalSmartContractConfig internalSmartContractContract;\n\n    event TransferRequestEvent(uint256 indexed transactionId,  address indexed dest, string assetName,  uint256 amount);\n    event WithdrawRequestEvent(address indexed dest, uint256 indexed withdrawAmount,  string assetName, uint256 amountWithFee);\n    event TransferEvent(uint256 indexed transactionId,  address indexed dest, string assetName, uint256 indexed amount);\n    event TopUpPaymentWalletEvent(address indexed dest, uint256 indexed targetGasWei, uint256 indexed gasTransferred);\n\n    string constant internal assetNameKeyName = \"assetName\";\n    string constant internal destAddressKeyName = \"destAddress\";\n    \n\n\n    constructor() MultiSigWallet(2) public {\n    }\n\n    function setInternalSmartContractConfig(address addr) public \n    onlyOwner{\n        internalSmartContractContract = InternalSmartContractConfig(addr);\n    }\n\n    function requestTransfer(address dest, string memory assetName, uint256 amount) public isWalletOwner(_msgSender()){\n    \n        address tmp ;\n        bool isEun = false;\n        if (keccak256(abi.encodePacked(\"EUN\")) == keccak256(abi.encodePacked(assetName))){\n            isEun = true;\n        }\n\n        if (!isEun) {\n            tmp = internalSmartContractContract.getErc20SmartContractAddrByAssetName(assetName);\n        }\n\n        uint transId;\n\n        if(tmp!=address(0) || isEun ){\n            transId = addTransaction(dest, amount, \"\");\n            transactions[transId].isDirectInvokeData = false;  \n            miscellaneousData[transId][assetNameKeyName] = assetName;\n            miscellaneousData[transId][destAddressKeyName] = string(abi.encode(dest));\n            \n            confirmations[transId][walletOwner] = true;\n            Confirmation(walletOwner, transId);\n            if (required == 1){\n                executeTransaction(transId);\n            }\n            TranList.push(transId);\n\n        }else{\n            revert(\"Invalid asset!\");\n        }\n\n        emit TransferRequestEvent(transId, dest, assetName, amount);\n    }\n\n    function getGasFeeWalletAddress() public view returns(address){\n        return internalSmartContractContract.getGasFeeWalletAddress();\n    }\n\n    function verifySignature(bytes32 hash, bytes memory signature) public pure returns (address) {\n        address addressFromSig = recoverSigner(hash, signature);\n        return addressFromSig;\n    }\n//\n//    /**\n//    * @dev Recover signer address from a message by using their signature\n//    * @param hash bytes32 message, the hash is the signed message. What is recovered is the signer address.\n//    * @param sig bytes signature, the signature is generated using web3.eth.sign(). Inclusive \"0x...\"\n//    */\n    function recoverSigner(bytes32 hash, bytes memory sig) private pure returns (address) {\n        require(sig.length == 65, \"Require correct length\");\n\n        bytes32 r;\n        bytes32 s;\n        uint8 v;\n\n        // Divide the signature in r, s and v variables\n        assembly {\n            r := mload(add(sig, 32))\n            s := mload(add(sig, 64))\n            v := byte(0, mload(add(sig, 96)))\n        }\n\n        // Version of signature should be 27 or 28, but 0 and 1 are also possible versions\n        if (v < 27) {\n            v += 27;\n        }\n\n        require(v == 27 || v == 28, \"Signature version not match\");\n\n        return recoverSigner2(hash, v, r, s);\n    }\n\n    function recoverSigner2(bytes32 h, uint8 v, bytes32 r, bytes32 s) internal pure returns (address) {\n        address addr = ecrecover(h, v, r, s);\n        return addr;\n    }\n\n\n    function transfer(uint256 transId, address dest,string memory assetName, uint256 amount) internal{\n\n        if (keccak256(abi.encodePacked(\"EUN\")) == keccak256(abi.encodePacked(assetName))){\n            payable(dest).sendValue(amount);\n        }else{\n            address erc20Addr = internalSmartContractContract.getErc20SmartContractAddrByAssetName(assetName);\n            if(erc20Addr!=address(0)){\n                ERC20 erc20 = ERC20(erc20Addr);\n                erc20.safeTransfer(dest, amount);\n            }else{\n                revert(\"Invalid asset!\");\n            }\n        }\n\n        emit TransferEvent(transId, dest, assetName, amount);\n    }\n\n    function executeTransaction(uint transId) override internal\n    confirmed(transId, msg.sender)\n    {\n        Transaction storage txn = transactions[transId];\n        require (!txn.executed, \"Transaction already executed\");\n\n        if (isConfirmed(transId)) {\n            txn.executed = true;\n            string memory assetName = miscellaneousData[transId][assetNameKeyName];\n            address dest = abi.decode(bytes(miscellaneousData[transId][destAddressKeyName]), (address));\n\n            transfer(transId, dest, assetName, txn.value);\n        }\n    }\n\n    function submitWithdraw(address dest, uint256 withdrawAmount, uint256 amountWithFee, string memory assetName) public isWalletOwner(_msgSender()) {\n    \n        require (keccak256(abi.encodePacked(\"EUN\")) != keccak256(abi.encodePacked(assetName)), 'EUN is not eligible to withdraw');\n        address addr = internalSmartContractContract.getErc20SmartContractAddrByAssetName(assetName);\n        require(addr != address(0), 'Asset not found');\n        EurusERC20(addr).submitWithdraw(dest, withdrawAmount, amountWithFee);\n        \n        emit WithdrawRequestEvent(dest, withdrawAmount, assetName, amountWithFee);\n    }\n\n    function directTopUpPaymentWallet(uint256 targetGasWei, uint256 gasLimit) public isWalletOwner(_msgSender()){\n        topUpPaymentWalletImpl(targetGasWei, gasLimit);\n    }\n\n    function topUpPaymentWallet(address paymentWalletAddr, uint256 targetGasWei, bytes memory signature) public onlyWriter(_msgSender()){\n        require(paymentWalletAddr == walletOwner, 'Payment wallet address is not wallet owner address');\n        bytes32 hashByte = keccak256(abi.encode(paymentWalletAddr));\n        address senderAddr = verifySignature(hashByte, signature);\n        require(senderAddr == walletOwner , 'Sender is not wallet owner');\n\n        topUpPaymentWalletImpl(targetGasWei, 0);\n\n    }\n\n    function topUpPaymentWalletImpl(uint256 targetGasWei, uint256 gasLimit) internal {\n        ExternalSmartContractConfig extConfig = ExternalSmartContractConfig( internalSmartContractContract.getExternalSCConfigAddress());\n        \n        require (targetGasWei <= extConfig.getMaxTopUpGasAmount(), 'Target gas exceed upper limit');\n        uint256 gasPrice = extConfig.getEurusGasPrice();\n\n        uint256 targetEun  = targetGasWei * gasPrice;\n        uint256 currBalance = getWalletOwnerBalance() + gasLimit * gasPrice;\n        require (currBalance <  targetEun , 'Payment wallet has the target gas amount already');\n\n        uint256 transferEun = targetEun - currBalance;\n        address self = payable(this);\n        require(self.balance >= transferEun, 'EUN not enough in the account');\n        \n        payable(walletOwner).sendValue(transferEun);\n        emit TopUpPaymentWalletEvent(walletOwner,  targetGasWei, transferEun/gasPrice);\n    }\n\n    function getWalletOwnerBalance() public view returns(uint256){\n        return walletOwner.balance;\n    }\n\n\n\n    function invokeSmartContract(address scAddr, uint256 eun, bytes memory inputArg) public isWalletOwner(_msgSender()){\n        assembly {            \n            let d := add(inputArg, 32)\n            let inputLen := mload(inputArg)\n            let result := call(gas(), scAddr, eun, d, inputLen, 0, 0)\n            let size := returndatasize()\n            let ptr := mload(0x40)\n            returndatacopy(ptr, 0, size)\n            mstore(0x40, add(ptr, size))\n            switch result\n            case 0 { revert(ptr, size) }\n            default { return (ptr, size) }\n        }\n    }\n}\n",
  "sourcePath": "/Users/duncanto/Documents/WorkingSet2/src/eurus-backend/smartcontract/contracts/wallet/UserWallet.sol",
  "compiler": {
    "name": "solc",
    "version": "0.6.2+commit.bacdbe57.Emscripten.clang"
  },
  "schemaVersion": "3.4.3",
  "updatedAt": "2021-11-22T11:18:24.151Z",
  "devdoc": {
    "methods": {
      "changeRequirement(uint256)": {
        "details": "Allows to change the number of required confirmations. Transaction has to be sent by wallet.",
        "params": {
          "_required": "Number of required confirmations."
        }
      },
      "confirmTransaction(uint256)": {
        "details": "Allows an owner to confirm a transaction.",
        "params": {
          "transactionId": "Transaction ID."
        }
      },
      "isConfirmed(uint256)": {
        "details": "Returns the confirmation status of a transaction.",
        "params": {
          "transactionId": "Transaction ID."
        },
        "returns": {
          "_0": "Confirmation status."
        }
      },
      "renounceOwnership()": {
        "details": "Leaves the contract without owner. It will not be possible to call `onlyOwner` functions anymore. Can only be called by the current owner.     * NOTE: Renouncing ownership will leave the contract without an owner, thereby removing any functionality that is only available to the owner."
      },
      "revokeConfirmation(uint256)": {
        "details": "Allows an owner to revoke a confirmation for a transaction.",
        "params": {
          "transactionId": "Transaction ID."
        }
      }
    }
  },
  "userdoc": {
    "methods": {}
  }
}